:100000000C94981A0C94C31A0C94C31A0C94C31A27
:100010000C94C31A0C94C31A0C94C31A0C94C31AEC
:100020000C94C31A0C94C31A0C941BEA0C9494E815
:100030000C94C31A0C94C31A0C94C31A0C94C31ACC
:100040000C94C31A0C94C4630C94C31A0C94C31A72
:100050000C94C31A0C94C31A0C94EE620C9457E7D8
:100060000C94C31A0C94C31A0C94C31A0C94C31A9C
:100070000C94C31A0C94C31A0C94C31A0C94C31A8C
:100080000C94C31A0C94C31A0C94C31A0C94C31A7C
:100090000C94C31A0C94C31AB95CD25CD25CD25CC7
:1000A000D25CD25CD25CD25CD25CD25CD25CD25CE0
:1000B000D25CD25CD25CD25CD25CD25CD25CD25CD0
:1000C000D25CD25CD25CD25CD25CD25CA65C485C76
:1000D000545CB95BD25C825C8E5CD25CD25CCD5BE2
:1000E000A45BD25C765CD25C9A5C6A5C605CD25C3D
:1000F000D25CD25C245C305C3C5CD25CD25CD25C76
:10010000D25CD25CD25CD25CD25CD25CA65C485C35
:10011000545CB95BD25C825C8E5CD25CD25CCD5BA1
:10012000A45BD25C765CD25C9A5C6A5C605CD25CFC
:10013000D25CD25C245C305C3C5C39C469C4A0C431
:10014000C6C526CC26CC26CC26CC26CC26CC26CC86
:1001500026CC26CCEFC430C57CC526CC26CC26CCFC
:1001600026CC26CC26CC26CC26CC26CC26CC26CCFF
:1001700005C705C705C750C750C750C79BC726CC82
:10018000D0C8E5C7E5C7E5C72EC82EC82EC87BC8AE
:100190007BC87BC826CC26CC26CC26CC26CC6DC6EC
:1001A000A3C626CC19C95FC9B4C9FAC911CA3FCAC6
:1001B0006DCA9BCAE1CA23CB63CBAACBDECB28CACC
:1001C00026CC26CC26CC26CC26CC26CC26CC26CC9F
:1001D00026CC26CC26CC26CC26CC17C641C626CC8F
:1001E00026CC26CC26CC26CC26CC26CC26CC26CC7F
:1001F00086C626CC26CC26CCF6CB10CC26CC26CC5C
:1002000026CC26CC2CC426CC26CC97C473C526CCB1
:10021000D4C605A84CCDB2D44EB93836A9020C507C
:10022000B9918688083CA6AAAA2ABE000000803F91
:10023000000001001C001D001300FFFF1A001E003B
:100240001F001200FFFF1B00200021001100FFFF14
:100250002400FFFF0F000E00220023000D00070006
:1002600006002600536574204D6963726F737465D0
:100270007070696E67005761746368646F672066A9
:1002800065617475726520776173206E6F74206389
:100290006F6D70696C656420696E746F2074686935
:1002A000732076657273696F6E21004D323531208F
:1002B0000020746F200053657420766F6C756D6537
:1002C0007472696320657874727573696F6E2066E5
:1002D0006F7220657874727564657220004469736A
:1002E00061626C656420766F6C756D6574726963AC
:1002F00020657874727573696F6E20666F72206501
:100300007874727564657220004D31313420004874
:10031000656174696E67204265640048656174694F
:100320006E672045787472756465720050696E203E
:1003300063616E206E6F7420626520736574206245
:1003400079204D34322C206D617920696E20696EE0
:1003500076616C6964206F7220696E207573652EFA
:100360002000496C6C6567616C20532076616C7568
:100370006520666F72204D3432004175746F72656E
:1003800074726163743A00436F6C642065787472B0
:100390007573696F6E20646973616C6C6F776564E7
:1003A00000436F6C6420657874727573696F6E209A
:1003B000616C6C6F776564004A616D20646562757D
:1003C0006767696E673A004A616D20636F6E747289
:1003D0006F6C2064697361626C65643A0047313305
:1003E000342000506F7346726F6D53746570733AAA
:1003F00000436F6D7044656C74613A0043616C69D1
:1004000062726174696F6E206D6F76656D656E7472
:10041000206973206C696D6974656420746F203184
:10042000306D6D2E004669727374206D6F76652095
:10043000746F20746F75636820617420782C793D27
:10044000302C3020746F206175746F2D73657420AB
:100450007261646975732E0043616C6962726174C4
:10046000696F6E206D6F76656D656E74206973209F
:100470006C696D6974656420746F2031306D6D2E08
:100480000043616E6E6F74207365742072616469DD
:10049000757320616E6420666C6F6F7220617420CA
:1004A00073616D652074696D652E0043616C6962CE
:1004B000726174696F6E20636F6465206973206C6C
:1004C000696D6974656420746F20626F74746F6DF8
:1004D00020313025206F66205A206865696768746E
:1004E0000052656C617469766520706F7369746918
:1004F0006F6E696E67004162736F6C757465207012
:100500006F736974696F6E696E670065786563758E
:10051000746547436F6465202F2071756575654468
:10052000656C74614D6F76652072657475726E735B
:10053000206572726F7200526F6420526164697537
:10054000732073657420746F3A2000582028412965
:1005500020746F77657220666C6F6F72207365749C
:1005600020746F3A2000592028422920746F776543
:100570007220666C6F6F722073657420746F3A20FE
:10058000005A2028432920746F77657220666C6FAB
:100590006F722073657420746F3A20004649524D83
:1005A000574152455F4E414D453A526570657469F9
:1005B00065725F302E39322E33204649524D5741F5
:1005C00052455F55524C3A68747470733A2F2F67D6
:1005D00069746875622E636F6D2F726570657469DA
:1005E00065722F52657065746965722D4669726D0A
:1005F000776172652F2050524F544F434F4C5F56D6
:10060000455253494F4E3A312E30204D41434849CF
:100610004E455F545950453A44656C7461204558C5
:100620005452554445525F434F554E543A3120522F
:10063000455045544945525F50524F544F434F4CDB
:100640003A330044656275673A006F6B000D0A002B
:100650004E414E00494E46004572726F723A004953
:100660006E666F3A005761726E696E673A00526546
:1006700073656E643A004563686F3A006F6B2000E3
:1006800057726F6E6720636865636B73756D004D9D
:10069000697373696E6720636865636B73756D005A
:1006A000466F726D6174206572726F7200446F6E76
:1006B00065207072696E74696E672066696C65008A
:1006C000205800205900205A0020450020460020D4
:1006D0005300205000204900204A0020520053447B
:1006E0002072656164206572726F72004572726F6C
:1006F000723A6578706563746564206C696E652014
:100700000020676F742000736B69702000424C4BAF
:100710002000737461727400506F776572557000B9
:1007200045787465726E616C205265736574004221
:10073000726F776E206F7574205265736574005701
:1007400061746368646F6720526573657400536FEA
:1007500066747761726520526573657400556E6BBF
:100760006E6F776E20636F6D6D616E643A004672D6
:1007700065652052414D3A00583A0020583A002011
:10078000593A00205A3A0020453A00543A00204293
:100790003A0020403A002054002040002042403AD5
:1007A0000020524157003A002F00202F005370655F
:1007B00065644D756C7469706C793A00466C6F773E
:1007C0004D756C7469706C793A0046616E73706532
:1007D00065643A005072696E7465642066696C6184
:1007E0006D656E743A005072696E74696E6720743C
:1007F000696D653A006D20002064617973200020E6
:10080000686F7572732000206D696E00496E7661A5
:100810006C696420617263002C002000593A005A10
:100820003A0045303A0045313A004D53312C4D5392
:10083000322050696E7300536574206F7574707543
:10084000743A200047657420496E7075743A200030
:1008500020746F200020697320004820004C200085
:10086000785F6D696E3A00785F6D61783A00795F04
:100870006D696E3A00795F6D61783A007A5F6D69F3
:100880006E3A007A5F6D61783A004A65726B3A00A1
:10089000205A4A65726B3A00206C696E656172205D
:1008A00073746570733A0020717561647261746964
:1008B000632073746570733A002C207370656564EF
:1008C0003D00454550524F4D20757064617465641C
:1008D000006C696E656172204C3A0020717561642C
:1008E0007261746963204B3A00457874727564656F
:1008F00072204A616D0046696C616D656E7420738B
:100900006C697070696E67004D6561737572656DB5
:10091000656E742072657365742E004D6561737524
:1009200072652F64656C7461202853746570732937
:10093000203D004D6561737572652F64656C74614F
:10094000203D004D65617375726564206F72696743
:10095000696E207365742E204D6561737572656DC7
:10096000656E742072657365742E004F72696769D5
:100970006E206D6561737572656D656E742063615F
:100980006E6E6F74206265207365742E202055731F
:1009900065206F6E6C79205A2D436172746573699E
:1009A000616E2028737472616967687420757020A5
:1009B000616E6420646F776E29206D6F76656D655A
:1009C0006E747320616E642074727920616761694E
:1009D0006E2E00496E76616C69642064656C74618A
:1009E00020636F6F7264696E617465202D206D6F76
:1009F00076652069676E6F726564004C6576656C1C
:100A0000696E672063616C633A00546F776572208A
:100A1000313A00546F77657220323A00546F77652F
:100A20007220333A00416C706861204128323130C5
:100A3000293A00416C706861204228333330293AEA
:100A400000416C7068612043283930293A004465C0
:100A50006C74612052616469757320412830293AB1
:100A60000044656C7461205261646975732042288A
:100A700030293A0044656C74612052616469757371
:100A800020432830293A004E6F206D6F766520692B
:100A90006E2064656C7461207365676D656E74208B
:100AA00077697468203E2031207365676D656E74C8
:100AB0002E20546869732073686F756C64206E65AE
:100AC0007665722068617070656E20616E64206D5D
:100AD000617920636175736520612070726F626C4B
:100AE000656D2100546172676574457874720054B5
:100AF00061726765744265643A00504944204175EB
:100B0000746F74756E65207374617274002062690D
:100B100061733A200020643A2000206D696E3A200B
:100B200000206D61783A2000204B753A2000205457
:100B3000753A200020436C61737369632050494407
:100B400000204B703A2000204B693A2000204B6473
:100B50003A2000504944204175746F74756E6520C9
:100B60006661696C6564212054656D70657261749D
:100B700075726520746F2068696768005049442069
:100B80004175746F74756E65206661696C6564216A
:100B90002074696D656F7574005049442041757407
:100BA0006F74756E652066696E697368656420216F
:100BB00020506C61636520746865204B702C204B5D
:100BC0006920616E64204B6420636F6E7374616E84
:100BD000747320696E2074686520436F6E66696760
:100BE00075726174696F6E2E68206F722045455072
:100BF000524F4D004D54454D503A00686561746543
:100C000064206265640065787472756465722000A2
:100C10003A2074656D702073656E736F7220646521
:100C200066656374003A20776F726B696E67005077
:100C300072696E7465722073657420696E746F20BA
:100C40006472792072756E206D6F646520756E74A4
:100C5000696C207265737461727421004175746FE0
:100C60006C6576656C206D6174726978207265734D
:100C70006574004175746F6C6576656C696E67208C
:100C8000656E61626C6564004175746F6C65766554
:100C90006C696E672064697361626C65640054728C
:100CA000616E73666F726D6174696F6E206D6174D1
:100CB0007269783A005A2D70726F626520666169B8
:100CC0006C6564005A2D70726F6265206D61783AB0
:100CD000005072696E746572206865696768743A5D
:100CE0000077616974004175746F6C6576656C207E
:100CF0006163746976652028312F302900436F6E57
:100D000066696775726174696F6E2073746F72655E
:100D10006420746F20454550524F4D2E00436F6E36
:100D200066696775726174696F6E206C6F61646566
:100D3000642066726F6D20454550524F4D2E004322
:100D40006F6E66696775726174696F6E2072657324
:100D5000657420746F2064656661756C74732E0011
:100D600050726F746F636F6C2076657273696F6E0B
:100D7000206368616E6765642C20757067726164BA
:100D8000696E67004550523A3020004550523A3162
:100D900020004550523A3220004550523A3320004C
:100DA00042617564726174650046696C616D656E5F
:100DB00074207072696E746564205B6D5D005072A2
:100DC000696E74657220616374697665205B735D1A
:100DD000004D61782E20696E6163746976652074B8
:100DE000696D65205B6D732C303D6F66665D0053E9
:100DF000746F7020737465707065722061667465BD
:100E00007220696E6163746976697479205B6D73B1
:100E10002C303D6F66665D005820686F6D652070F0
:100E20006F73205B6D6D5D005920686F6D6520707C
:100E30006F73205B6D6D5D005A20686F6D6520706B
:100E40006F73205B6D6D5D0058206D6178206C655F
:100E50006E677468205B6D6D5D0059206D61782050
:100E60006C656E677468205B6D6D5D005A206D6106
:100E700078206C656E677468205B6D6D5D0058202E
:100E80006261636B6C617368205B6D6D5D005920FE
:100E90006261636B6C617368205B6D6D5D005A20ED
:100EA0006261636B6C617368205B6D6D5D004D61A9
:100EB000782E206A65726B205B6D6D2F735D00412B
:100EC0006363656C65726174696F6E205B6D6D2F15
:100ED000735E325D0054726176656C206163636598
:100EE0006C65726174696F6E205B6D6D2F735E321D
:100EF0005D00537465707320706572206D6D004DD8
:100F000061782E206665656472617465205B6D6D25
:100F10002F735D00486F6D696E672066656564724A
:100F2000617465205B6D6D2F735D00446961676F4F
:100F30006E616C20726F64206C656E677468205BF4
:100F40006D6D5D00486F72697A6F6E74616C2072AE
:100F50006F642072616469757320617420302C3075
:100F6000205B6D6D5D005365676D656E74732F73E7
:100F700020666F72207072696E74696E67005365C7
:100F8000676D656E74732F7320666F722074726163
:100F900076656C00546F776572205820656E6473B7
:100FA000746F70206F6666736574205B7374657010
:100FB000735D00546F776572205920656E64737499
:100FC0006F70206F6666736574205B7374657073F1
:100FD0005D00546F776572205A20656E6473746F7C
:100FE00070206F6666736574205B73746570735DE3
:100FF000004D6178207072696E7461626C65207258
:101000006164697573205B6D6D5D00436F72722E54
:1010100020646961676F6E616C2041205B6D6D5D5E
:1010200000436F72722E20646961676F6E616C207D
:1010300042205B6D6D5D00436F72722E20646961AA
:10104000676F6E616C2043205B6D6D5D004F505388
:10105000206F7065726174696F6E206D6F646520BA
:101060005B303D4F66662C313D436C617373696341
:101070002C323D466173745D004F5053206D6F7686
:1010800065206166746572207825207265747261CE
:101090006374205B255D004F5053206D696E2E20D8
:1010A00064697374616E636520666F722066696C33
:1010B0002E2072657472616374696F6E205B6D6D52
:1010C0005D004F50532072657472616374696F6E76
:1010D000206C656E677468205B6D6D5D004F5053CA
:1010E0002072657472616374696F6E206261636BF4
:1010F0006C617368205B6D6D5D00426564204865BE
:101100006174204D616E61676572205B302D335DC7
:101110000042656420504944206472697665206D00
:1011200061780042656420504944206472697665A4
:10113000206D696E004265642050494420502D673F
:1011400061696E004265642050494420492D676101
:10115000696E004265642050494420442D676169EE
:101160006E0042656420504944206D6178207661AC
:101170006C7565205B302D3235355D00737465709C
:101180007320706572206D6D006D61782E2066652C
:10119000656472617465205B6D6D2F735D0073749F
:1011A000617274206665656472617465205B6D6D43
:1011B0002F735D00616363656C65726174696F6E46
:1011C000205B6D6D2F735E325D0068656174206D0C
:1011D000616E61676572205B302D335D005049445C
:1011E000206472697665206D6178005049442064FE
:1011F00072697665206D696E0050494420502D67F4
:1012000061696E2F646561642D74696D6500486560
:101210006174657220646561642D74696D65006E2A
:101220006120666F7220646561642074696D652059
:101230006374726C0050494420492D6761696E00E7
:1012400050494420442D6761696E00504944206D27
:1012500061782076616C7565205B302D3235355DA7
:1012600000582D6F6666736574205B7374657073C8
:101270005D00592D6F6666736574205B73746570CD
:10128000735D0074656D702E2073746162696C69A2
:101290007A652074696D65205B735D0074656D709F
:1012A0002E20666F722072657472616374696F6E4E
:1012B000207768656E2068656174696E67205B439E
:1012C0005D0064697374616E636520746F2072657C
:1012D0007472616374207768656E206865617469F3
:1012E0006E67205B6D6D5D00657874727564657204
:1012F00020636F6F6C6572207370656564205B306E
:101300002D3235355D00616476616E6365204B205A
:101310005B303D6F66665D00616476616E6365207B
:101320004C205B303D6F66665D0053442043617224
:10133000642072656D6F766564005344204361726A
:101340006420696E73657274656400534420696E2D
:101350006974206661696C006572726F72207772C1
:101360006974696E6720746F2066696C65004265F8
:1013700067696E2066696C65206C69737400456EE0
:10138000642066696C65206C6973740046696C65DD
:10139000206F70656E65643A002053697A653A0083
:1013A00046696C652073656C656374656400666985
:1013B0006C652E6F70656E206661696C65640053A4
:1013C00044207072696E74696E672062797465205A
:1013D000004E6F74205344207072696E74696E679A
:1013E000006F70656E206661696C65642C204669CB
:1013F0006C653A200057726974696E6720746F20BB
:1014000066696C653A2000446F6E65207361766989
:101410006E672066696C652E0046696C65206465A0
:101420006C657465640044656C6574696F6E2066F4
:1014300061696C6564004469726563746F727920D8
:1014400063726561746564004372656174696F6E8F
:10145000206661696C6564005344206572726F7226
:10146000436F64653A004865617465722064656322
:101470006F75706C6564004F6E652068656174659A
:1014800072207365656D73206465636F75706C653C
:10149000642066726F6D20746865726D6973746F15
:1014A00072202D2064697361626C696E6720616CC3
:1014B0006C20666F72207361666574792100436FDA
:1014C0006E6669673A00457874722E0007061C152F
:1014D0001C141E00002243141F1F5915C9151D1688
:1014E0008D16DD16000000005517DD17E9183919B3
:1014F000B519206465672E204300206D6561737502
:1015000072656420004572726F723A436F756C6445
:10151000206E6F7420686F6C642074656D706572E6
:1015200061747572652000206D73002061667465BA
:101530007220004572726F723A54656D702E20727F
:10154000616973656420746F20736C6F772E20520D
:10155000697365203D200000000000A00F5C006062
:1015600009690010097900C0088C007008A20020E9
:1015700008BD00D007DE008007050130073401E018
:10158000066D019006B20140060702F0056D02A04B
:1015900005E80250057B0300052B04B004F8046045
:1015A00004EB06C003350920037F0B8002650DE0C4
:1015B00001B00E40011D0FF000480FC8006C0FA0D5
:1015C00000ED0F60FFFE0F48FE0400801AD800985F
:1015D00008AC012007800250065403C805280458AF
:1015E00005FC040005D005B004A4066804780728AB
:1015F000044C08E8032009B003F4097003C80A3852
:10160000039C0BF802700CB002440D6802180E081F
:1016100002EC0E8801C00F8800F00F0000040000EB
:101620001B54006009640010097400C00884007035
:10163000089C002008B800D007D8008007000130BF
:10164000072C01E00668019006AC0140060002F09C
:10165000056802A005E0025005740300052404B0EB
:1016600004F0046004DC051004E406C00304087000
:101670000330092003780B8002600DE001A80E40C2
:1016800001680FA000C00F0000E80F60FF040070A9
:101690000DD8004804AC0158038002D802540380DE
:1016A0000228043802FC040002D005C801A40698F0
:1016B00001780770014C08480120091801F409F06D
:1016C00000C80AC8009C0BA000700C7000440D38C4
:1016D00000180E0000EC0EA8FFC00FE8FE0400305A
:1016E0004D900098101C01900CA801A80A340278B3
:1016F00009C00298084C03E807D80360076404E8AF
:1017000006F00480067C0520060806C805940678C5
:101710000520073005AC07E8043808A804C40868A9
:101720000450092804DC09F003680AB003F40A70C5
:1017300003800B30030C0CF002980CB002240D68EF
:1017400002B00D18023C0EB801C80E4801540FA893
:1017500000E00F58FF0000401F450060094F0010D7
:10176000095C00C0086B0070087D0020089200D062
:1017700007AC008007CC003007DE00E006230190B4
:10178000065E014006A601F005FF01A0056D0250AE
:1017900005F30200059603B0045A046004400510E6
:1017A000044806C0036E077003A8082003EB09D0A5
:1017B00002230B8002410C3002390DE001040E902F
:1017C00001A20E4001170FF000690FA000A20F50F8
:1017D00000C60F0000DD0FB0FFEB0F60FF040068D4
:1017E0001D4C00500B94005809DC0050082401A83F
:1017F000076C012807B401C006FC017006440228EA
:10180000068C02F005D402B8051C03880564035851
:1018100005AC033005F40310053C04E8048404C857
:1018200004CC04A804140590045C057004A40558B5
:1018300004EC053804340620047C060804C406F0D1
:10184000030C07D8035407C8039C07B003E40798A8
:10185000032C08800374087003BC0858030409486B
:10186000034C09300394091803DC090803240AF027
:10187000026C0AE002B40AC802FC0AB002440BA0DF
:10188000028C0B8802D40B70021C0C5802640C40B2
:1018900002AC0C2802F40C10023C0DF001840DD8AF
:1018A00001CC0DB801140E98015C0E7001A40E4815
:1018B00001EC0E1801340FD8007C0F8800C40F080B
:1018C00000FC0F000000000000000000000000000D
:1018D0000000000000000000000000000000000008
:1018E00000000000000000000004000016D800C046
:1018F00006AC0178058002C004540348042804E8BB
:1019000003FC049803D0055003A40618037807D8F5
:10191000024C08A80220097002F4093802C80A081B
:10192000029C0BD001700C9001440D5001180EF870
:1019300000EC0E8800C00F00000400401D90006005
:10194000091C01B007A801D00634023806C002C83D
:10195000054C036805D80318056404D804F00498FE
:10196000047C05600408063004940600042007D0B7
:1019700003AC07A80338088003C408580350093093
:1019800003DC090803680AE002F40AB802800B8845
:10199000020C0C6002980C3002240DF801B00DC04E
:1019A000013C0E8001C80E3001540FB800B40F285E
:1019B00000E00F00000400081D900058091C01B051
:1019C00007A801C80634023006C002C0054C0368EF
:1019D00005D80318056404D004F00498047C05605D
:1019E0000408063004940600042007D003AC07A8BE
:1019F0000338088003C408580350093003DC090881
:101A000003680AD802F40AB002800B88020C0C604A
:101A100002980C3002240DF801B00DC0013C0E807C
:101A200001C80E3001540FB800B40F2800E00F00B9
:101A3000005344206572726F722066697865640095
:101A40005344206572726F7220646964206E6F74F3
:101A5000207265636F766572210053442052656180
:101A600064204572726F720042696E6172793A0049
:101A7000436F6D6D616E644275666665720000004D
:101A8000000000000000000000000000000024F43E
:101A900003D950C38EB1C2A23D96828B3582127A91
:101AA000E372816CCB66A861015DC758EB5461514C
:101AB000204E1E4B5648C14559431A41013F093D2E
:101AC0002F3B7139CD374036C93465331432D430A9
:101AD000A32F802E6B2D632C672B752A8E29B0289F
:101AE000DC2710274B268F25D9242B248223E022A4
:101AF0004322AC211A218D200420801F001F841E48
:101B00000C1E971D261DB81C4E1CE61B821B201B9D
:101B1000C11A641A0A1AB2195D190A19B9186A1891
:101B20001C18D11788174017FA16B51673163116F8
:101B3000F115B31576153A150015C7148F145814FE
:101B40002214EE13BA13881356132513F612C71274
:101B500099126C1240121512EB11C11198117011EB
:101B600048112111FB10D610B1108D1069104610CC
:101B700024100210E10FC00FA00F800F610F420F61
:101B8000230F060FE80ECB0EAF0E930E770E5C0EF2
:101B9000410E270E0D0EF30DDA0DC10DA80D900D9F
:101BA000780D600D490D320D1B0D050DEF0CD90C94
:101BB000C30CAE0C990C850C700C5C0C480C350CED
:101BC000210C0E0CFB0BE80BD60BC40BB20BA00BBD
:101BD0008E0B7D0B6B0B5A0B4A0B390B290B180B19
:101BE000080BF80AE90AD90ACA0ABB0AAC0A9D0A14
:101BF0008E0A800A710A630A550A470A390A2C0AB2
:101C00001E0A110A040AF709EA09DD09D009C40904
:101C1000B709AB099F09920987097B096F09630915
:101C200058094C09410936092B09200915090A09E7
:101C30000009F508EB08E008D608CC08C208B80887
:101C4000AE08A4089A08900887087D0874086B08F5
:101C5000610858084F0846083D0834082C08230836
:101C60001A08120809080108F807F007E807E00752
:101C7000D807D007C807C007B807B007A807A1074B
:101C80000000420FA1071605D0030D038B022E02A0
:101C9000E801B2018601630145012C01170104012D
:101CA000F40049646C650049646C6500696E2071DC
:101CB0007565756544656C74614D6F766520746FEC
:101CC0002063616C63756C61746544656C74615309
:101CD00075625365676D656E747320726574757295
:101CE0006E73206572726F722E00207A3A0020792E
:101CF0003A0020783A00432068697420666C6F6F60
:101D0000720043706F732078207371756172652063
:101D10000043706F732078207374657073200043E4
:101D2000706F732079207371756172652000437044
:101D30006F73207920737465707320004220686986
:101D40007420666C6F6F720042706F73207820731E
:101D50007175617265200042706F73207820737412
:101D6000657073200042706F732079207371756104
:101D70007265200042706F732079207374657073F0
:101D80002000412068697420666C6F6F720041709A
:101D90006F73207820737175617265200041706FD8
:101DA000732078207374657073200041706F732006
:101DB0007920737175617265200041706F732079AD
:101DC00020737465707320006D6F766552656C6169
:101DD0007469766544697374616E6365496E5374A2
:101DE000657073202F20717565756544656C74612D
:101DF0004D6F76652072657475726E7320657272B0
:101E00006F72004D617854656D703A004469616D80
:101E1000657465723A00416363656C6572617469EB
:101E20006F6E3A004D617853706565643A004A659B
:101E3000726B3A004D617842656454656D703A008A
:101E40005072696E746572547970653A44656C7449
:101E500061005A54726176656C416363656C3A0047
:101E60005954726176656C416363656C3A005854ED
:101E7000726176656C416363656C3A005A507269B1
:101E80006E74416363656C3A00595072696E7441B7
:101E90006363656C3A00585072696E7441636365A0
:101EA0006C3A005A53697A653A005953697A653A2F
:101EB000005853697A653A005A4D61783A00594D95
:101EC00061783A00584D61783A005A4D696E3A008F
:101ED000594D696E3A00584D696E3A004A65726B09
:101EE00058593A005072696E746C696E654361634B
:101EF00068653A00454550524F4D3A004175746F40
:101F00006C6576656C3A005A50726F62653A0043B0
:101F10006173654C69676874733A00537570706FCC
:101F200072744C6F63616C46696C616D656E74634D
:101F300068616E67653A00537570706F72744731EF
:101F4000304731313A005A486F6D654469723A0042
:101F500059486F6D654469723A0058486F6D654421
:101F600069723A00536F667477617265506F776576
:101F7000725377697463683A004C43443A0046618F
:101F80006E3A005344436172643A00486561746577
:101F9000644265643A004D6978696E674578747289
:101FA000756465723A004E756D4578747275646536
:101FB000723A0042617564726174653A004E6F2036
:101FC00063617365206C696768747300686F6D6521
:101FD000417869732000686F6D6541786973202FBF
:101FE00020717565756544656C74614D6F7665200B
:101FF00072657475726E73206572726F7200486FCD
:102000006D652044656C746100686F6D6559417839
:102010006973202F20717565756544656C74614D19
:102020006F76652072657475726E73206572726F5B
:102030007200686F6D655841786973202F20717543
:1020400065756544656C74614D6F76652072657465
:1020500075726E73206572726F72005072696E7461
:1020600065723A3A736574757020004175746F72C9
:102070006574726163743A006D6F7665546F526572
:10208000616C202F20717565756544656C74614DB8
:102090006F76652072657475726E73206572726FEB
:1020A00072006D6F7665546F202F207175657565B0
:1020B00044656C74614D6F76652072657475726EDF
:1020C00073206572726F7200537465707065722050
:1020D00044697361626C6564004B696C6C65640093
:1020E0006973506F736974696F6E416C6C6F77655B
:1020F00064200055706C6F6164696E672E2E2E002F
:10210000005344207072696E742073746F70706530
:102110006420627920757365722E00000000002132
:1021200010422063308440A550C660E770088129C2
:10213000914AA16BB18CC1ADD1CEE1EFF13112105A
:102140000273325222B5529442F772D66239931812
:10215000837BB35AA3BDD39CC3FFF3DEE362244366
:102160003420040114E664C774A44485546AA54B62
:10217000B528850995EEE5CFF5ACC58DD5533672FA
:102180002611163006D776F6669556B4465BB77AB2
:10219000A719973887DFF7FEE79DD7BCC7C448E586
:1021A000588668A7784008611802282338CCC9ED02
:1021B000D98EE9AFF9488969990AA92BB9F55AD49A
:1021C0004AB77A966A711A500A333A122AFDDBDC52
:1021D000CBBFFB9EEB799B588B3BBB1AABA66C87A6
:1021E0007CE44CC55C222C033C600C411CAEED8FA2
:1021F000FDECCDCDDD2AAD0BBD688D499D977EB63A
:102200006ED55EF44E133E322E511E700E9FFFBEF1
:10221000EFDDDFFCCF1BBF3AAF599F788F8891A9C4
:1022200081CAB1EBA10CD12DC14EF16FE18010A19B
:1022300000C230E3200450254046706760B983989F
:1022400093FBA3DAB33DC31CD37FE35EF3B10290EB
:1022500012F322D2323542145277625672EAB5CB6B
:10226000A5A89589856EF54FE52CD50DC5E234C33B
:1022700024A01481046674476424540544DBA7FA3F
:10228000B79987B8975FE77EF71DC73CD7D326F28B
:10229000369106B01657667676154634564CD96D8B
:1022A000C90EF92FE9C899E9898AB9ABA9445865DB
:1022B0004806782768C018E1088238A3287DCB5CDF
:1022C000DB3FEB1EFBF98BD89BBBAB9ABB754A542B
:1022D0005A376A167AF10AD01AB32A923A2EFD0FAB
:1022E000ED6CDD4DCDAABD8BADE89DC98D267C077B
:1022F0006C645C454CA23C832CE01CC10C1FEF3E7F
:10230000FF5DCF7CDF9BAFBABFD98FF89F176E36CA
:102310007E554E745E932EB23ED10EF01E7C3C3E36
:102320005E2B3D3F2F5B5D3B2C2A225C004E6F20D5
:102330006572726F7220666F756E642E0043616EF7
:102340002774206F70656E20726F6F7420646972DD
:102350006563746F72792E00496E76616C696420D2
:10236000666F726D61742C207265666F726D617438
:102370002053442E004E6F20636172642C207772CC
:102380006F6E6720636869702073656C6563742085
:1023900070696E2C206F72205350492070726F62EA
:1023A0006C656D3F0043616E2774206163636573E4
:1023B0007320534420636172642E20446F206E6F3B
:1023C00074207265666F726D61742E000000FF00EC
:1023D000000000010100000000FF0000416374697B
:1023E0006F6E3A256C61000310270200D626031099
:1023F000270200DA260100000100DE2602000008A4
:1024000000E02603ED030400F02603EE030400F8C9
:102410002603EF030400002703FA03040008270340
:10242000FB030400102703FC03040018270200002C
:1024300009002027020000060032270200000900E0
:102440003E275265717565737450617573653A0006
:1024500055495F414354494F4E5F5345545F4D4585
:102460004153555245445F4F524947494E20004E13
:102470006F205344204361726400436F6F6C646F3C
:10248000776E005072656865617420414253005058
:1024900072656865617420504C410055495F414345
:1024A00054494F4E5F484F4D455F5A200055495F94
:1024B000414354494F4E5F484F4D455F59200055A9
:1024C000495F414354494F4E5F484F4D455F582047
:1024D0000055495F414354494F4E5F484F4D454178
:1024E0004C4C20008025000040380000004B0000CC
:1024F0008070000000960000C0DA000000E10000DB
:10250000002C010008B2010000C2010000F401002B
:102510000084030090D0030000E8030000080700D7
:1025200020A1070000100E0040420F0060E31600DB
:102530000000000055495F414354494F4E5F4550EC
:102540004F534954494F4E200055495F4143544928
:102550004F4E5F5A504F534954494F4E5F46415377
:1025600054200055495F414354494F4E5F59504FE5
:10257000534954494F4E5F46415354200055495FDB
:10258000414354494F4E5F58504F534954494F4E61
:102590005F46415354200055495F414354494F4ED3
:1025A0005F5A504F534954494F4E200055495F419F
:1025B0004354494F4E5F59504F534954494F4E2051
:1025C0000055495F414354494F4E5F58504F53495E
:1025D00054494F4E20000200000900502762270294
:1025E0006E27000075277C2783278A27596573008B
:1025F0004E6F00030004004E2F410042616E67429F
:10260000616E6700536C6F7742616E67004465616D
:10261000642054696D650050494400003A0020640C
:1026200061797320005072696E74696E672E2E2E68
:10263000002064656320002064656620004F6E0002
:102640004F6666000000003FCDCC4C3D0AD7A33B4F
:102650006F12033A526570657469657220302E39C5
:10266000322E33002020202020627920654D6F74A7
:10267000696F6E2054656368004D6963726F202036
:1026800044656C74612020202020005072696E74B3
:1026900065722072656164792E0000401454040E46
:1026A00015041C000000040A040000000000001FC4
:1026B0001F1F1F1F0000001F1111111F0000040A1F
:1026C0000A0A0E1F1F0E001C1F11111F0000110A05
:1026D0000411040A1111912798279F27A627AD27D7
:1026E000AD27B427BB27C227C927D027D727DE2786
:1026F000E527EC27F327FA27012808280F281628B2
:102700001D2824282B2832283928402847284E28DD
:1027100055285C2863286A28712878287F2886280D
:10272000AD278D2894289B28A228A928B028B7284F
:10273000BE28AD27C528CC28D328DA28E128AD2724
:102740008D28E828EF28F628FD2804290B29DA2807
:10275000AD271229B4271929202927292E293529FF
:102760003C2948656174696E672042656400020017
:102770000008004329000000040053290000000461
:10278000005B290000000400632900000004006BC6
:102790002973290000000000812900000000009238
:1027A000290000000000A0290000000000B129035A
:1027B000E8030000B82903F5030102C32903F60367
:1027C0000204CF2903F7030400DE2902E9290200ED
:1027D000F02903F8030100FD2903F9030001082A89
:1027E00003F4030102142A00000000001D2A000067
:1027F0000000002D2A00000000003D2A000000001B
:10280000003E2A0000000000472A00000000005798
:102810002A0000000000672A0000000000682A006B
:1028200000000000712A0000000000812A00000062
:102830000000912A0000000000922A000000000021
:102840009B2A0000000000AB2A0000000000BB2A09
:102850000000000000BC2A0000000000C52A0000A3
:10286000000000D52A0000000000E52A000000005A
:1028700000E62A0000000000EF2A0000000000FF30
:102880002A00000000000F2B0000000000102B03A6
:10289000FD030010192B041F0400002B2B04480417
:1028A00000003D2B0337040000492B0347040000C0
:1028B000552B03380400005E2B03310400106C2BF1
:1028C00003430400107C2B043D0400008C2B043EC9
:1028D0000400009C2B033A040000AD2B02BC2B002B
:1028E00000C32B0344040000CE2B0218240000DA9E
:1028F0002B0203240000E52B021F240000F12B0211
:102900000A240000FC2B0226240000082C021124BB
:102910000000132C022D240000222C023B24000076
:102920002B2C0234240000342C023E2C0000452CB9
:1029300002FC2300004D2C02572C00005E2C026C80
:102940002C0000AD27732C7A2C812C882C8F2C9690
:102950002C9D2CA42CAB2CB22CB92CC02CC72CCE6B
:102960002CD52CDC2CE32CEA2CF12CF82CFF2C069B
:102970002D0D2D436F6E66696775726174696F6E98
:102980000073746F72656420696E20454550524F24
:102990004D00436F6E66696775726174696F6E0092
:1029A0006C6F6164656420662E20454550524F4D22
:1029B000004261636B2001005072696E7420666989
:1029C0006C65005061757365205072696E740043C8
:1029D0006F6E74696E7565205072696E7400537401
:1029E0006F70205072696E74000200000300142D95
:1029F000556E6D6F756E742043617264004D6F7516
:102A00006E7420436172640044656C657465206671
:102A1000696C6500583A257830206D6D004D696EFF
:102A200020656E6473746F703A257378004D617819
:102A300020656E6473746F703A2573580000593ABC
:102A4000257831206D6D004D696E20656E6473745C
:102A50006F703A257379004D617820656E647374E8
:102A60006F703A25735900005A3A257832206D6DFF
:102A7000004D696E20656E6473746F703A25737AC9
:102A8000004D617820656E6473746F703A25735AD7
:102A90000000583A257830206D6D004D696E206534
:102AA0006E6473746F703A257378004D6178206599
:102AB0006E6473746F703A2573580000593A257824
:102AC00031206D6D004D696E20656E6473746F709A
:102AD0003A257379004D617820656E6473746F7068
:102AE0003A25735900005A3A257832206D6D004D11
:102AF000696E20656E6473746F703A25737A004D49
:102B0000617820656E6473746F703A25735A0000A3
:102B1000486F6D6520416C6C005370656564204D95
:102B2000756C2E3A256F6D25252500466C6F772034
:102B30004D756C2E203A256F66252525005072654F
:102B40006865617420504C4100507265686561741D
:102B50002041425300436F6F6C646F776E00536582
:102B60007420746F204F726967696E0044697361E5
:102B7000626C6520737465707065720042656420D4
:102B800054656D703A2025456202430054656D70AE
:102B90002E2031203A202545300243005475726EB4
:102BA00020457874722E2031204F66660045787477
:102BB000722E20706F736974696F6E0003F00304E6
:102BC000001A2D536574204F726967696E00582092
:102BD000506F732E2046617374005820506F7369D4
:102BE00074696F6E005920506F732E2046617374A4
:102BF000005920506F736974696F6E005A20506FCE
:102C0000732E2046617374005A20506F7369746983
:102C10006F6E00517569636B2053657474696E67DC
:102C20007300506F736974696F6E004578747275C4
:102C30006465720046616E20737065656400020011
:102C4000000800222D5344204361726400446562F1
:102C5000756767696E67000200000500322D436FDB
:102C60006E66696775726174696F6E000200000AB2
:102C7000003C2D502D042D0400005C2D0422042066
:102C800000662D0423042000702D04240420007A03
:102C90002D0425042000882D0426042000962D04F0
:102CA0002F040000A22D0000000000B52D00000040
:102CB0000000C62D0000000000D72D00000000001D
:102CC000DB2D0000000000E42D0000000000ED2DD1
:102CD0000000000000F62D0000000000FA2D0000AA
:102CE0000000000B2E00000000001C2E0000000061
:102CF000001D2E0000000000212E00000000002F0B
:102D00002E0000000000332E0000000000442E00C2
:102D1000000000004A2E512E582E5F2E662E6D2E7A
:102D2000742EAD277B2E822E892E902E972E9E2ECE
:102D3000A52EAD27AC2EB32EBA2EC12EAD27C82E90
:102D4000CF2ED62EDD2EDD25E42EEB2EF22EF92E03
:102D5000436F6E74726F6C3A255868005049442076
:102D6000503A2558700050494420493A2558690086
:102D700050494420443A25586400447269766520DD
:102D80004D696E3A25586D004472697665204D6133
:102D9000783A25584D00504944204D61783A2558DD
:102DA0004400052565632F25456302422565422FB2
:102DB00025456202005A3A25783220204275662065
:102DC0003A20256F42004D756C3A20256F6D20200A
:102DD00020453A25783400256F7300583A2578301D
:102DE000206D6D00593A257831206D6D005A3A25D5
:102DF0007832206D6D00256F730045313A256530BE
:102E00002F25453002437E256F300020423A25654C
:102E1000622F25456202437E256F620000256F7395
:102E2000005072696E74696E672074696D65002563
:102E300055740046696C616D656E74207072696EC0
:102E400074656400255566206D00002F01000000A8
:102E5000000B2F03E80300000E2F0354240200127E
:102E60002F00000000001B2F00000000002A2F0090
:102E7000000000003B2F0000000000492F04520416
:102E800000005A2F031A040800672F031B040000D8
:102E9000752F031C040000832F031D040000912FD5
:102EA000031E0400009E2F03B4040000B22F03325F
:102EB000040000BE2F0333040000CA2F03340400B3
:102EC00000D62F0335040000E22F02EA2F0000F1A4
:102ED0002F02FE2F00000530020E300000153002D8
:102EE0001E300000253003060400003530030704BF
:102EF00000004430024D30000054300260300000C9
:102F000053746F70205072696E74004E6F00596573
:102F10007300453A257833206D6D003120636C696C
:102F2000636B203D2031206D6D0020453A2565639F
:102F30002F25456302437E256F4300255566206D8E
:102F4000207072696E7465640046616E20737065EE
:102F500065643A254673252525005475726E204612
:102F6000616E204F6666005365742046616E2032A4
:102F700035252525005365742046616E20353025A2
:102F80002525005365742046616E2037352525259B
:102F9000005365742046616E2046756C6C0049676D
:102FA0006E6F7265204D31303620636D642025468A
:102FB00069004563686F2020203A25646F00496EE0
:102FC000666F2020203A256469004572726F727323
:102FD000203A256465004472792072756E3A256442
:102FE000640047656E6572616C0002000005006751
:102FF00030416363656C65726174696F6E000200D5
:1030000000040071304665656472617465000200F9
:1030100000030079304578747275646572000200AF
:103020000011007F3053746F726520746F20454526
:1030300050524F4D004C6F616420662E2045455024
:10304000524F4D005A2043616C69622E000200000D
:103050000500A1304C6576656C2064656C74610078
:103060000200000B00AB30AD27C130C830CF30D6E6
:1030700030AD27DD30E430EB30AD27F230F930AD44
:1030800027003107310E3115311C3123312A3173BC
:103090002C7A2C812C882C8F2C962C313138319D18
:1030A0002CAD278D283F3146314D31AD2754315B52
:1030B0003162316931E828EF28F628FD2804290B10
:1030C00029703104100400007D31028E310000951A
:1030D0003102A3310000AA3103B2040000B9310467
:1030E0000A040000C331040D040000CC31040E04B6
:1030F0000000D8310416040000E03104130400007D
:10310000E9310429040000F631042C0400000332E4
:10311000042B0400000E32042A0400001832042E8E
:103120000400002632044D0400003932044C04002F
:10313000004A32042204400057320426044000674B
:103140003202733200007A3202853200008C320380
:10315000AC0F0000943203AD0F00009B3203AE0FA2
:103160000000A23203AF0F0000A93203B00F00002D
:1031700042617564726174653A256F6300537465CA
:103180007070657220496E61637469766500032012
:10319000040200BC324D61782E20496E616374696F
:1031A0007665000358040200C0324175746F6C6587
:1031B00076656C3A20256C6C005072696E743A2505
:1031C000617A004D6F76653A25615A004A65726BE7
:1031D0002020203A25616A004D61783A25667A0000
:1031E000486F6D653A25665A0053746570732F4DAC
:1031F0004D3A2553650053746172742046523A2546
:103200005866004D61782046523A25584600416381
:1032100063656C3A25584100537461622E54696DA0
:10322000653A255877005761697420556E69747343
:103230003A20255855206D6D0057616974205465FA
:103240006D702E20255854024300446561647469F2
:103250006D653A25587000436F6E74726F6C205024
:10326000574D3A25584D005A20506F732E20466115
:103270007374000356040400C4325A20506F7369FB
:1032800074696F6E000355040400CC3253657420DA
:103290005A3D3000536574205031005365742050FE
:1032A00032005365742050330043616C63756C6168
:1032B0007465204C6576656C696E6700D432DB32CC
:1032C000E232E932F032F732FE3205330C33133397
:1032D0001A33213328330000000000383300000087
:1032E00000004433000000000054330000000000E0
:1032F00060330000000000693300000000007933F3
:103300000000000000893300000000008A33000044
:1033100000000093330000000000A3330000000011
:1033200000B33300000000004469732E204166742E
:1033300065723A20256973005B6D696E5D20303DD2
:103340004F6666004469732E2041667465723A20A8
:10335000256970005B6D696E5D20303D4F666600CB
:103360005A3A257832206D6D004D696E20656E6485
:1033700073746F703A25737A004D617820656E64BE
:1033800073746F703A25735A00005A3A25783220C8
:103390006D6D004D696E20656E6473746F703A25B3
:1033A000737A004D617820656E6473746F703A258E
:1033B000735A00000129022904290829102920290B
:1033C00040298029012C022C0126022604260826E9
:1033D0001026202640268026402C802C0123022304
:1033E00004230823102320234023802301200220CC
:1033F000042008201020202040208020102C202C89
:10340000012F022F042F082F102F202F402F802F45
:103410007EFE7EFD7EFB7EF77EEF7EDF7EBF7E7FC3
:10342000000100005434120002000066344300031F
:103430000000A9340401030904AD3418020309048F
:10344000C7341603030904DF340C0001C1020180F4
:10345000360181361201000202000020C0168304EA
:1034600000010102030109024300020100C0320908
:1034700004000001020201000524001001052401DE
:103480000001042402060524060001070582030842
:10349000004009040100020A000000070503024081
:1034A00000000705840240000004030904180354C7
:1034B00000650065006E00730079006400750069A6
:1034C000006E006F000000160355005300420020FC
:1034D00000530065007200690061006C0000000C80
:1034E00003310032003300340035000000494E46FD
:1034F000494E4954594E414ECDCCCC3D0AD7233C80
:1035000017B7D13877CC2B329595E6241FB14F0AE7
:10351000000020410000C84200401C4620BCBE4CB8
:10352000CA1B0E5AAEC59D743B88009F6CC24CEC02
:1035300011241FBECFEFD0E2DEBFCDBF12E0A0E06E
:10354000B1E0EEEEF1EE01E00BBF02C007900D928C
:10355000A636B107D9F71BBE15E1A6E6B2E001C059
:103560001D92A832B107E1F715E3C0E3D5E304C02B
:103570002297FE010E94A7F0C832D107C9F70E9426
:103580009AEA0C94F5F00C940000A0E0B0E0EBECAB
:10359000FAE10C94C4F0EC015B016115710519F0BE
:1035A000FB0191838083F9908F2D90E00E94ABF016
:1035B000892BC9F7FDE2FF1621F4F990EE24E3947C
:1035C00005C02BE2F21609F4F990EE248E010150A9
:1035D0001040C8016DEE74E343E050E00E94541DBA
:1035E000892B01F58E010E5F1F4FC80160EF74E358
:1035F00045E050E00E94541D892B19F48E01095FAB
:103600001F4FA114B10419F0F50111830083E0FCF0
:1036100004C070E090E080E814C070E090E080E8C2
:103620006FEF08C1C80165EF74E343E050E00E940A
:10363000541D892B69F4A114B10429F470E090E0C1
:1036400080EC6FE7F7C02296F501D183C083F6CFF7
:103650008824992440E050E060E070E0EF2DE053D2
:10366000EA30A0F5F2E0EF2A8E2D90E09C01287060
:103670003070E2FE06C0232B79F50894811C911C62
:103680002BC0232B19F0089481089108DB01CA0193
:1036900012E0880F991FAA1FBB1F1A95D1F7480F78
:1036A000591F6A1F7B1F440F551F661F771F4E0F40
:1036B000511D611D711D483929E9520729E9620729
:1036C00029E1720748F084E0E82A06C0EE3F31F4B1
:1036D000E3FC39C098E0E92AF990C0CFE53311F056
:1036E000E53189F529912D3219F4E0E1EE2A05C082
:1036F0002B3219F081E090E003C0299182E090E044
:10370000E22FE053EA3018F0C81BD90B1CC020E0B0
:1037100030E0FCE020383F075CF4C901880F991FB6
:10372000880F991F280F391F220F331F2E0F311DAD
:10373000E991E053EA3068F3E4FE03C03095219547
:103740003F4F820E931ECE2CDD24E1FE07C0A11454
:10375000B10421F02197F501D183C083CB01BA01D7
:103760000E94C4ED7B018C01F3E0CF22DD2423E035
:10377000C216D10421F417FB109517F910955701C3
:103780006801C801B70120E030E040E050E00E944D
:1037900024ED882309F44AC097FE0DC02CE0E22EE8
:1037A00025E3F22E9094819491089394C0E2D0E0A6
:1037B00000E010E012C094E2E92E95E3F92EF6CF76
:1037C000F7012591359145915491C601B5010E94AB
:1037D00011EF5B016C018C1A9D0A8C169D0684F713
:1037E000D595C7950F5F1F4F0630110529F08CEF57
:1037F0009FEFE80EF91EF1CFC501D6017C018D01C6
:103800008C2D880F8D2D881F8F3F51F0C601B5017B
:1038100020E030E040E050E00E9424ED882331F4C5
:1038200082E290E090932715809326157E2D9F2DA0
:10383000802F612F272F392F482F562FB901CA010A
:10384000CDB7DEB7ECE00C94E0F02F923F925F92A0
:103850006F927F928F929F92AF92BF92CF92DF92A0
:10386000EF92FF920F931F93CF93DF938C011B0175
:10387000EA016115710519F0FB019183808320979E
:1038800049F0CE010297839728F020E030E040E035
:1038900050E0F6C0F801A1908F018A2D90E00E94BF
:1038A000ABF0892BB9F7FDE2AF1631F4F801A19026
:1038B0008F015524539407C0FBE2AF1619F4F801A9
:1038C000A1908F015524209719F0C031D105C1F482
:1038D000F0E3AF1679F4F8018081883711F088356C
:1038E00049F4F801A1800E5F1F4FF2E05F2AC0E1AA
:1038F000D0E006C0209721F480E3A816E9F427C0A1
:10390000C830D10531F1C930D10524F4C230D10518
:1039100031F50CC0CA30D10589F0C031D105F9F4B8
:10392000C12CD12CE12CB8E0FB2E28C0C12CD12C0D
:10393000E12CA0E4FA2E22C0CAE0D0E0FCECCF2EAD
:10394000FCECDF2EFCECEF2EFCE0FF2E17C0C8E0F5
:10395000D0E0C12CD12CE12CE0E1FE2E0FC09E0165
:10396000442737FD4095542F60E070E080E090E8F8
:103970000E945CF0C901DA016C017D0120E030E0B9
:1039800040E050E060E03E01882477FC8094982C71
:1039900070EDB72EBA0CE9E0EB1570F48A2D815466
:1039A0008A3118F499ECB92E06C08A2D81568A31D5
:1039B00050F589EAB82EBA0C8B2D90E08C179D0734
:1039C00014F56F3FE1F0C216D306E406F506B0F039
:1039D000CA01B901A40193010E9409F09B01AC0145
:1039E0002B0D311D411D511D2130F0E03F07F0E04E
:1039F0004F07F0E85F0710F461E001C06FEFF801D6
:103A0000A1908F01C5CF2114310481F0662331F0DC
:103A100001501040F1011183008308C051FE1AC00B
:103A200002501040F1011183008314C067FF12C0DF
:103A300050FC05C02FEF3FEF4FEF5FE704C020E0E1
:103A400030E040E050E882E290E0909327158093C8
:103A5000261516C050FE08C050954095309521950A
:103A60003F4F4F4F5F4F0CC057FF0AC082E290E0BC
:103A700090932715809326152FEF3FEF4FEF5FE7C9
:103A8000B901CA01DF91CF911F910F91FF90EF9083
:103A9000DF90CF90BF90AF909F908F907F906F906E
:103AA0005F903F902F900895FB01DC014150504002
:103AB00088F08D9181341CF08B350CF4805E65911B
:103AC00061341CF06B350CF4605E861B611171F380
:103AD000990B0895881BFCCFFB01DC0102C001900B
:103AE0000D9241505040D8F70895FB01DC010D9034
:103AF0000020E9F7119701900D920020E1F7089559
:103B0000FC018191861721F08823D9F79927089520
:103B10003197CF010895FB01DC018D91019080194F
:103B20000110D9F3990B0895FB01DC0101900D926E
:103B30000020E1F70895FB01DC014150504048F0BE
:103B400001900D920020C9F701C01D9241505040D4
:103B5000E0F70895FC0181E090E00190061609F479
:103B6000CF010020D1F701970895A0E0B0E0EBEB82
:103B7000FDE10C94C8F07C01EB018A01690109C0E8
:103B8000CE012196F6010995F70181937F0101503D
:103B9000104001151105A1F7CDB7DEB7E8E00C9490
:103BA000E4F0BF92CF92DF92EF92FF920F931F93B8
:103BB0007B018C01FB010995B82EC8010196F70124
:103BC0000995C82EC8010296F7010995D82EC8019B
:103BD0000396F7010995982F6B2D7C2D8D2D1F9144
:103BE0000F91FF90EF90DF90CF90BF900895DF92FC
:103BF000EF92FF920F931F937B018C01FB010995BC
:103C0000D82EC8010196F7010995982F8D2D1F9187
:103C10000F91FF90EF90DF900895A0E0B0E0E3E116
:103C2000FEE10C94C8F0EC017B018A01690109C036
:103C3000CE012196F70161917F01F60109950150AE
:103C4000104001151105A1F7CDB7DEB7E8E00C94DF
:103C5000E4F0BF92CF92DF92EF92FF920F931F9307
:103C6000D52EC62EB72E79018C01642FF901099546
:103C7000C80101966D2DF7010995C80102966C2DBA
:103C8000F7010995C80103966B2DF70109951F915E
:103C90000F91FF90EF90DF90CF90BF900895DF924B
:103CA000EF92FF920F931F93D72E7A018C01FA01A6
:103CB0000995C80101966D2DF70109951F910F9186
:103CC000FF90EF90DF9008959C01F999FECF32BDEF
:103CD00021BDF89A80B508959C01F999FECF1FBACD
:103CE00032BD21BD60BD0FB6F894FA9AF99A0FBEA5
:103CF000089508956091110170911201809113014E
:103D0000909114016817790744F47093140160933B
:103D100013018EE697E00E94A5380895AF92BF92F6
:103D2000CF92DF92EF92FF920F931F93CF93DF9387
:103D3000EC01893191051CF4C9E1D0E005C0893C52
:103D4000910514F0C8ECD0E0D093A210C093A1105C
:103D5000E0916E02F0916F02E858FF4FA080B180B1
:103D6000C280D380C601B50120E030E040E050E0E1
:103D70000E9424ED9E01442737FD4095542F1816CC
:103D80005CF0CA01B9010E94C6ED2AE037ED43E2BA
:103D90005CE30E9411EF24C0CA01B9010E94C6ED84
:103DA0002AE037ED43E25CE30E9411EF20E030E0CF
:103DB00040E850E40E9411EF7B018C01C601B5017F
:103DC000A60195010E9411EF2BED3FE049E450E47C
:103DD0000E9411EF9B01AC01C801B7010E942BEDBD
:103DE00060933F027093400280934102909342029D
:103DF0008CEB97E0BE010E94A538DF91CF911F9117
:103E00000F91FF90EF90DF90CF90BF90AF9008950B
:103E1000EF92FF920F931F93CF93DF93EC018931C1
:103E200091051CF4C9E1D0E006C081E0C53FD80788
:103E300014F0C4EFD1E0BE01882777FD8095982F5C
:103E40000E94C6ED7B018C0160919F107091A010C3
:103E5000882777FD8095982F0E94C6ED9B01AC01C5
:103E6000C801B7010E942BED9B01AC0160919B1032
:103E700070919C1080919D1090919E100E9411EF66
:103E800060939B1070939C1080939D1090939E1054
:103E9000D093A010C0939F108DEA97E0BE010E94BE
:103EA000A538DF91CF911F910F91FF90EF9008956A
:103EB0000E946C649C01809111019091120128175D
:103EC000390724F4309312012093110108950E94C0
:103ED000B3620895EF92FF920F931F93DF93CF93F6
:103EE00000D000D0CDB7DEB77B018C0160932710E6
:103EF000709328108093291090932A100E943A966C
:103F0000E982FA820B831C8385E793E0BE016F5F31
:103F10007F4F44E050E02CE63EE10E940D1E87E317
:103F200095E0B801A70123E00E94023A0E944B3AB3
:103F3000282FF999FECF88E690E092BD81BDF89ACE
:103F400080B5281769F0F999FECF1FBA88E690E08E
:103F500092BD81BD20BD0FB6F894FA9AF99A0FBEB2
:103F60000F900F900F900F90CF91DF911F910F91B5
:103F7000FF90EF900895DF93CF9300D000D0CDB79E
:103F8000DEB76093871070938810809389109093A8
:103F90008A100E943A964091871050918810609143
:103FA000891070918A108BE495E023E00E94023A18
:103FB0008091871090918810A0918910B0918A10FB
:103FC00089839A83AB83BC8385E890E0BE016F5FF1
:103FD0007F4F44E050E02CE63EE10E940D1E0E941F
:103FE0004B3A282FF999FECF88E690E092BD81BD2B
:103FF000F89A80B5281769F0F999FECF1FBA88E6BC
:1040000090E092BD81BD20BD0FB6F894FA9AF99A5E
:104010000FBE0F900F900F900F90CF91DF910895EA
:10402000DF93CF9300D000D0CDB7DEB760938F1071
:104030007093901080939110909392100E943A96F2
:1040400040918F105091901060919110709192104A
:1040500086E695E023E00E94023A80918F109091CD
:104060009010A0919110B091921089839A83AB83A4
:10407000BC8389E890E0BE016F5F7F4F44E050E071
:104080002CE63EE10E940D1E0E944B3A282FF99922
:10409000FECF88E690E092BD81BDF89A80B52817E2
:1040A00069F0F999FECF1FBA88E690E092BD81BD14
:1040B00020BD0FB6F894FA9AF99A0FBE0F900F90A0
:1040C0000F900F90CF91DF910895DF93CF9300D0A1
:1040D00000D0CDB7DEB7609397107093981080939F
:1040E000991090939A100E943A964091971050918F
:1040F00098106091991070919A1081E895E023E0F2
:104100000E94023A8091971090919810A091991076
:10411000B0919A1089839A83AB83BC838DE890E039
:10412000BE016F5F7F4F44E050E02CE63EE10E940D
:104130000D1E0E944B3A282FF999FECF88E690E099
:1041400092BD81BDF89A80B5281769F0F999FECF24
:104150001FBA88E690E092BD81BD20BD0FB6F894ED
:10416000FA9AF99A0FBE0F900F900F900F90CF917F
:10417000DF9108956F927F928F929F92AF92BF923C
:10418000CF92DF92EF92FF920F931F93DF93CF9323
:1041900000D000D0CDB7DEB76091B5107091B610E9
:1041A0008091B7109091B8102FE632E143E85AE3BE
:1041B0000E9411EF7B018C01CE01019661E870E055
:1041C00044E050E024E63EE10E94B51DC801B7017D
:1041D00029813A814B815C810E94C0ECAB01BC011A
:1041E00084ED97E022E00E94C63985EF97E00E94B7
:1041F0009C37E091E201F091E30163857485858548
:10420000968520E030E040E751E40E940DEF18165B
:104210000CF47AC06624772443018DE790E064E6CD
:104220007EE10E94D11D7B018C01E60CF71C081D6C
:10423000191DC801B70120E831E541E050E00E94B6
:104240007EF0922E832E742E652E622F732F842F74
:10425000952F20E83EEA4EEF5FEF0E9409F05B01E8
:104260006C01AE0CBF1CC01ED11E86EE97E0492D1E
:10427000582D672D762D0E940E39C601B50120E11B
:104280003EE040E050E00E947EF0122F032FF42E1B
:10429000E52E88EF97E0422F502F6F2D7E2D0E9444
:1042A0000E39612F702F8F2D9E2D20EF31EF4FEFA4
:1042B0005FEF0E9409F0A60EB71EC81ED91EC601E8
:1042C000B5012CE330E040E050E00E947EF08FEF3B
:1042D00097E0BA01A9010E940E3987E098E00E9498
:1042E000AA370F900F900F900F90CF91DF911F91F1
:1042F0000F91FF90EF90DF90CF90BF90AF909F9085
:104300008F907F906F9008950FB6F894609112157A
:104310007091131580911415909115150FBE209171
:10432000B1103091B2104091B3105091B410621B93
:10433000730B840B950B28EE33E040E050E00E94B5
:104340005CF0C901DA013C014D0167CF2F923F9229
:104350004F925F926F927F928F929F92AF92BF9295
:10436000CF92DF92EF92FF920F931F93DF93CF9341
:10437000CDB7DEB72C970FB6F894DEBF0FBECDBF1A
:104380009A878987A090A60FB090A70FC090A80F1A
:10439000D090A90F6090AA0F7090AB0F8090AC0FD7
:1043A0009090AD0F2090AE0F3090AF0F4090B00FB7
:1043B0005090B10FC601B501A60195010E94C8EF4A
:1043C000882309F078C01C861B8686017501E89455
:1043D00017F9C801B7012FEF3FEF4FE75FE70E94E2
:1043E000C8EF882351F4C801B7012FEF3FEF4FE723
:1043F0005FE70E9424ED181624F081E090E09C878E
:104400008B87AB85BC85119709F055C0C401B301FA
:10441000A40193010E94C8EF882309F04CC01C86B8
:104420001B8684017301E89417F9C801B7012FEFC7
:104430003FEF4FE75FE70E94C8EF882351F4C801C0
:10444000B7012FEF3FEF4FE75FE70E9424ED18160B
:1044500024F0E1E0F0E0FC87EB878B859C850197F9
:1044600051F5C201B101A20191010E94C8EF882358
:1044700011F51C861B8682017101E89417F9C801A9
:10448000B7012FEF3FEF4FE75FE70E94C8EF8823A8
:1044900051F4C801B7012FEF3FEF4FE75FE70E94EC
:1044A00024ED181624F0A1E0B0E0BC87AB87EB85C3
:1044B000FC85319721F089859A850E94AF3720913C
:1044C000CE0F3091CF0F4091D00F5091D10F8091EE
:1044D000D20F9091D30FA091D40FB091D50F8D83AF
:1044E0009E83AF83B8878091D60F9091D70FA0910C
:1044F000D80FB091D90F89839A83AB83BC83809105
:10450000520F882359F40F2EF0E0EF2EF0E0FF2E2B
:10451000F0E80F2FFFE31F2FF02D0AC00F2EF0E75A
:10452000EF2EF2E4FF2EF1E20F2FFDE31F2FF02D0F
:10453000C601B5010E94C0ECA80197010E9411EFCD
:10454000AB01BC0188E797E022E00E94C639809168
:10455000520F882359F40F2EF0E0EF2EF0E0FF2EDB
:10456000F0E80F2FFFE31F2FF02D0AC00F2EF0E70A
:10457000EF2EF2E4FF2EF1E20F2FFDE31F2FF02DBF
:10458000C401B3012D813E814F8158850E94C0EC4A
:10459000A80197010E9411EFAB01BC018FE797E0E2
:1045A00022E00E94C6398091520F882359F40F2EC1
:1045B000F0E0EF2EF0E0FF2EF0E80F2FFFE31F2FCB
:1045C000F02D0AC00F2EF0E7EF2EF2E4FF2EF1E2FD
:1045D0000F2FFDE31F2FF02DC201B10129813A8178
:1045E0004B815C810E94C0ECA80197010E9411EFF1
:1045F000AB01BC0183E897E023E00E94C63920911B
:10460000A20F3091A30F4091A40F5091A50FA0903D
:104610005F0FB090600FC090610FD090620F8091DB
:10462000520F882359F40F2EF0E0EF2EF0E0FF2E0A
:10463000F0E80F2FFFE31F2FF02D0AC00F2EF0E739
:10464000EF2EF2E4FF2EF1E20F2FFDE31F2FF02DEE
:10465000CA01B9010E94C6EDA60195010E9411EFA1
:10466000A80197010E9411EFAB01BC0187E897E018
:1046700024E00E94023A2C960FB6F894DEBF0FBEDB
:10468000CDBFCF91DF911F910F91FF90EF90DF9001
:10469000CF90BF90AF909F908F907F906F905F90E2
:1046A0004F903F902F9008951F93182F0E943488A9
:1046B000809169028823C9F0109269020E944054D7
:1046C00080911601815080931601882349F48091CE
:1046D0001501833010F40E94B64C85E080931601DA
:1046E0008AED93E1612F0E940BE11F91089509C0AB
:1046F0000E944E5F80E00E9454238AED93E10E9465
:104700002AC28091420F882399F70895CF93DF93AF
:1047100097FD10C0EC018F3F910521F01CF0CFEF09
:10472000D0E002C0009731F08091DD0F8860809367
:10473000DD0F07C08091DD0F877F8093DD0FC0E024
:10474000D0E0662311F00E94772380915C0390E013
:10475000C817D907D1F08AEC97E0BE010E94A538AE
:1047600080916602882389F420915C03822F90E077
:104770008C179D0754F4C535D1053CF4222311F064
:1047800082E001C088E080936602C0935C03DF9101
:10479000CF9108952F923F924F925F926F927F92A6
:1047A0008F929F92AF92BF92CF92DF92EF92FF9241
:1047B0000F931F93DF93CF9300D000D0CDB7DEB718
:1047C0005C01FC01808591858A35910509F4FDC065
:1047D0008B359105B8F48430910509F45FC08530BC
:1047E000910520F4029708F0D6C52DC085319105BA
:1047F00009F4A4C08C31910509F4A3C0449709F0D1
:10480000CAC598C08338910509F480C384389105DE
:1048100068F48C35910509F4F9C08C35910508F4DC
:10482000E3C08436910509F0B6C5B9C18538910554
:1048300009F4C6C48538910508F4CEC386389105BD
:1048400009F0A9C578C5F5018081918192FF11C059
:10485000868D978DA0A1B1A12091DB0F0097A105B6
:10486000B10519F0822F806202C0822F8F7D809364
:10487000DB0FC5010E947C8D882359F080E061E048
:1048800041E00E94FA7D882321F48BE095E00E94AC
:10489000C93781E061E00E94A17888C50E94772332
:1048A000F5012081318133FD05C060E070E080E0DA
:1048B00090E005C0F50162A173A184A195A132FF2A
:1048C0000BC0F501668D778D80A191A128EE33E0B4
:1048D00040E050E00E9409F00FB6F894E090121505
:1048E000F090131500911415109115150FBEE60EDA
:1048F000F71E081F191F05C00E944E5F81E00E942D
:1049000054230FB6F8948091121590911315A0912D
:104910001415B09115150FBE37014801681A790AB0
:104920008A0A9B0AD401C30180509449A543B74722
:1049300018F33CC581E08093520F38C51092520F96
:1049400035C5F50120813181C90188739070892BAB
:1049500011F080E008C0C90156E0969587955A95F8
:10496000E1F78095817026FF08C01092A20F109287
:10497000A30F1092A40F1092A50F882321F041E0FD
:1049800051E061E01EC0F50120813181C9018873C9
:104990009070892B09F41CC3C90143E09695879553
:1049A0004A95E1F7582F5170C90134E096958795E3
:1049B0003A95E1F7682F617025FD02C040E001C023
:1049C00041E0852F0E941F9403C31092940F25E5A8
:1049D000622E712CA60CB71CF5018081882309F486
:1049E000E5C486EF94E00FC081E08093940F95E5D5
:1049F000692E712CA60CB71CF5018081882309F45F
:104A0000D5C481EE94E00E94BC37D0C4D090CE0FC4
:104A1000E090CF0FF090D00F0091D10F7090D20F97
:104A20008090D30F9090D40FC090D50F3090D60FB8
:104A30004090D70F5090D80F6090D90FF50110819A
:104A400013FF22C022853385448555858091520FFE
:104A5000882351F0CA01B90123E333E34BEC51E45D
:104A60000E9411EF9B01AC01CA01B9012091A60F70
:104A70003091A70F4091A80F5091A90F0E94BFEC51
:104A8000D62EE72EF82E092F14FF23C0F501268518
:104A90003785408951898091520F882351F0CA018E
:104AA000B90123E333E34BEC51E40E9411EF9B0186
:104AB000AC01CA01B9012091AA0F3091AB0F40910E
:104AC000AC0F5091AD0F0E94BFEC762E872E982E22
:104AD000C92E15FF23C0F5012289338944895589E0
:104AE0008091520F882351F0CA01B90123E333E3C7
:104AF0004BEC51E40E9411EF9B01AC01CA01B901DA
:104B00002091AE0F3091AF0F4091B00F5091B10F87
:104B10000E94BFEC362E472E582E692E2D2D3E2D8D
:104B20004F2D502FB901CA01E72DF82DA92DBC2D0D
:104B30009F01AD01E32DF42DA52DB62D7F018D0133
:104B40000E947386F501808186FF30C426893789EB
:104B5000408D518D8091520F882351F0CA01B901C7
:104B600023E333E34BEC51E40E9411EF9B01AC01D2
:104B7000CA01B9012091FD013091FE014091FF0170
:104B8000509100020E9411EF0E9493ED6093A20FDA
:104B90007093A30F8093A40F9093A50F07C4609008
:104BA000AE0F7090AF0F8090B00F9090B10FC40116
:104BB000B301209193103091941040919510509131
:104BC00096100E942BED2DEC3CEC4CEC5DE30E942A
:104BD0000DEF18162CF48BEA94E00E94AF37E6C371
:104BE000F50182812081318182FFB6C023FD05C09D
:104BF00020733070232B09F403C481E894E061C171
:104C0000C801B70120E030E040E050E00E940DEF25
:104C100018165CF4C801B70120E030E040E251E42E
:104C20000E9424ED1816F4F00AC0C801B70120E074
:104C300030E040E251EC0E940DEF88239CF0CE0161
:104C4000019665E773E044E050E024E63EE10E940F
:104C5000B51DC801B70129813A814B815C810E9451
:104C6000C0EC51C088E594E02CC16091A60F709112
:104C7000A70F8091A80F9091A90F20E030E040E0AD
:104C800050E00E9424ED882309F063C06091AA0FD0
:104C90007091AB0F8091AC0F9091AD0F20E030E0A0
:104CA00040E050E00E9424ED882309F052C080913A
:104CB000DA0F87FF2BC0E0901B10F0901C100091C2
:104CC0001D1010911E106091870F7091880F8091B8
:104CD000890F90918A0F0E94C4ED9B01AC010E9444
:104CE00011EF9B01AC01C801B7010E94BFEC0E940B
:104CF0007EEF20915B0F30915C0F40915D0F5091E2
:104D00005E0F0E9411EF0E946A1FDDC0E0901B1031
:104D1000F0901C1000911D1010911E102091870F13
:104D20003091880F4091890F50918A0FCA01B901C3
:104D30000E9409F0E61AF70A080B190BC801B7011F
:104D40000E94B161A0E0B0E0BC01CD010E94C4EDC1
:104D5000D0CF85E294E0B5C023FF39C0F501E284ED
:104D6000F38404851585C801B70120E030E040E0F8
:104D700050E00E940DEF18165CF4C801B70120E066
:104D800030E040E251E40E9424ED18165CF00DC0C2
:104D9000C801B70120E030E040E251EC0E940DEF85
:104DA00087FF03C0DD24D39413C0C801B701A40159
:104DB00093010E94C0EC209187103091881040919F
:104DC000891050918A100E94C0EC0E94BB1FDD2404
:104DD000F501808184FF38C0E684F7840089118959
:104DE000C801B70120E030E040E050E00E940DEF44
:104DF00018165CF4C801B70120E030E040E251E44D
:104E00000E9424ED18165CF00DC0C801B70120E027
:104E100030E040E251EC0E940DEF87FF03C0DD243B
:104E2000D39412C0C801B701A40193010E94C0EC41
:104E300020918F10309190104091911050919210CC
:104E40000E94C0EC0E941020F501808185FF35C0D2
:104E5000E288F38804891589C801B70120E030E0B1
:104E600040E050E00E940DEF18165CF4C801B70155
:104E700020E030E040E251E40E9424ED1816FCF0FE
:104E80000AC0C801B70120E030E040E251EC0E94C6
:104E90000DEF8823A4F0C801B701A40193010E947B
:104EA000C0EC20919710309198104091991050913A
:104EB0009A100E94C0EC0E946520DD2021F08CEF4A
:104EC00093E00E94AF3700D000D080EF93E2A4E7D8
:104ED000B9E4EDB7FEB781839283A383B483BC01A9
:104EE000CD019B01AC010F2EF0E0EF2EF0E0FF2E84
:104EF000F0E40F2FF1E41F2FF02D5B016C010E94F5
:104F000026890F900F900F900F9050C26091A60FBE
:104F10007091A70F8091A80F9091A90F2091AA0FCF
:104F20003091AB0F4091AC0F5091AD0FE090AE0FB0
:104F3000F090AF0F0091B00F1091B10F60909B10E7
:104F400070909C1080909D1090909E100F2EF0E01D
:104F5000AF2EF0E0BF2EF0E0CF2EF0E0DF2EF02DF0
:104F6000A092A710B092A810C092A910D092AA1037
:104F7000A092AB10B092AC10C092AD10D092AE1017
:104F800000D000D0A0901102B0901202C090130285
:104F9000D0901402EDB7FEB7A182B282C382D48250
:104FA0000F2EF0EFAF2EF3E2BF2EF4E7CF2EF9E491
:104FB000DF2EF02D0E94D89160929B1070929C1071
:104FC00080929D1090929E100F900F900F900F90D6
:104FD00080E00E949486EAC180E00E94A18880E07F
:104FE00090E0A0E0B0E08093CE0F9093CF0FA0931D
:104FF000D00FB093D10F8093D20F9093D30FA09383
:10500000D40FB093D50F8093D60F9093D70FA09362
:10501000D80FB093D90F6091190270911A02809144
:105020001B0290911C020E94968AC0905B10D09047
:105030005C10E0905D10F0905E1000915F10109198
:105040006010209161103091621040915710509182
:1050500058106091591070915A10D901C801480137
:10506000FA2FEB2F0C151D052E053F052CF4D7014B
:10507000C6014601FA2FEB2FC401AF2FBE2F8417B4
:105080009507A607B70714F4DB01CA013C014D01DF
:105090006C187D088E089F08740163013C014D0166
:1050A000601A710A820A930A1C012D01241A350A1A
:1050B000460A570A8AE09AE0B701A6010E94E23840
:1050C00083E19AE0B401A3010E94E2388CE19AE006
:1050D000B201A1010E94E238F5018081918192FF25
:1050E00024C1868D978DA0A1B1A1181619061A06A4
:1050F0001B060CF01AC18DE793E0B6014CE65EE1A9
:105100000E944F1E0E944B3A282FF999FECF88E645
:1051100090E092BD81BDF89A80B5281769F0F999A1
:10512000FECF1FBA88E690E092BD81BD20BD0FB6CC
:10513000F894FA9AF99A0FBE8FE793E0B3014CE620
:105140005EE10E944F1E0E944B3A282FF999FECF34
:1051500088E690E092BD81BDF89A80B5281769F085
:10516000F999FECF1FBA88E690E092BD81BD20BDBF
:105170000FB6F894FA9AF99A0FBE81E893E0B1015C
:105180004CE65EE10E944F1E0E944B3A282FF9998F
:10519000FECF88E690E092BD81BDF89A80B52817D1
:1051A00009F4C3C0F999FECF1FBA88E690E092BD1A
:1051B00081BD20BD0FB6F894FA9AF99A0FBEB5C01A
:1051C0000091DA0F10E085E0169507958A95E1F7D2
:1051D000017080E00E94A1881092960F1092970FA4
:1051E0001092980F1092990F10929A0F10929B0F95
:1051F00010929C0F10929D0F10929E0F10929F0F75
:105200001092A00F1092A10F80E090E0A0E0B0E01B
:105210008093CE0F9093CF0FA093D00FB093D10F68
:105220008093D20F9093D30FA093D40FB093D50F48
:105230008093D60F9093D70FA093D80FB093D90F28
:105240001092830F1092840F1092850F1092860F88
:105250001092870F1092880F1092890F10928A0F68
:1052600010928B0F10928C0F10928D0F10928E0F48
:105270006091190270911A0280911B0290911C0298
:105280000E94968A4091731050917410609175102D
:105290007091761048515C4F6F4F7F4F80917F1017
:1052A00090918010A0918110B0918210481B590BF1
:1052B0006A0B7B0B80915F1090916010A091611040
:1052C000B09162106A017B01C81AD90AEA0AFB0A86
:1052D0008091571090915810A0915910B0915A1088
:1052E0004A015B01881A990AAA0ABB0A80915B10DD
:1052F00090915C10A0915D10B0915E10481B590B0D
:105300006A0B7B0B8AE09AE00E94E23883E19AE024
:10531000B701A6010E94E2388CE19AE0B501A40130
:105320000E94E238802F0E94A18881E061E041E084
:105330000E941F943BC04091830F5091840F609155
:10534000850F7091860F81EF93E00E940E39409196
:10535000870F5091880F6091890F70918A0F88E1B3
:1053600098E00E940E3940918B0F50918C0F609104
:105370008D0F70918E0F88E198E00E94E23880E0F6
:105380000E94948683EE93E00E949C378DED93E01B
:105390000E94A6210BC080913D0282FF07C08DE5CF
:1053A00097E00E949C37C5010E946D5D0FB6F8948E
:1053B0008091121590911315A0911415B0911515A7
:1053C0000FBE8093510390935203A0935303B09365
:1053D00054030F900F900F900F90CF91DF911F917A
:1053E0000F91FF90EF90DF90CF90BF90AF909F9084
:1053F0008F907F906F905F904F903F902F90089587
:10540000F501E6A4F7A400A911A9C801B70120E09D
:1054100030E040E050E00E9424ED882309F0F0CB1A
:1054200024CCEF92FF920F931F93DF93CF930F92B1
:10543000CDB7DEB78DE089836AE1E62E65E1F62E11
:10544000C7018E010F5F1F4FB80141E050E00E947D
:1054500035EB8AE08983C701B80141E050E00E9442
:1054600035EB0F90CF91DF911F910F91FF90EF904F
:1054700008951F93182FE0916E02F0916F0244A5DA
:1054800055A566A577A58BE897E022E00E94C6396E
:10549000E0916E02F0916F0240A951A962A973A92F
:1054A0008AEA97E020E00E94C6390E94C649AB0113
:1054B000BC018EE897E022E00E94C6394091A0012D
:1054C0005091A1016091A2017091A3018AEA97E035
:1054D00020E00E94C639112391F081EA97E061E053
:1054E00070E00E94CE386CEF7FE08091980190913F
:1054F0009901681B790B86EA97E00E94CE38E0910B
:105500009501F0E0E75AFC4F60818CE997E070E08C
:105510000E94CE38E0911701EF3F29F4E0916E022E
:10552000F0916F02E081F0E0E75AFC4F608182E980
:1055300097E070E00E94CE380E94112A1F910895D2
:105540003F924F925F926F927F928F929F92AF9213
:10555000BF92CF92DF92EF92FF920F931F93DF9350
:10556000CF93CDB7DEB728970FB6F894DEBF0FBE46
:10557000CDBF3C01DC0116968D919C911797883721
:10558000910511F40C94EA328937910508F0A1C015
:105590008235910509F48FC28335910508F048C022
:1055A0008B31910509F4CFC18C319105E0F487313D
:1055B000910509F482C18831910568F4853191051E
:1055C00009F46FC18631910508F071C1449711F05B
:1055D0000C94A13660C18931910509F48EC14A97B6
:1055E00008F092C184C18032910509F4DFC1813293
:1055F000910570F48D31910511F40C94AF368D3115
:10560000910508F4A6C14E9711F00C94A136B5C1CE
:105610008A32910509F4E3C18A32910510F40C94A1
:10562000A1368035910510F40C94A1360C94AF3658
:105630008A36910509F426C78B36910518F58C3505
:10564000910509F487C28D35910570F48435910573
:1056500009F43AC28435910508F431C285359105C3
:1056600011F00C94A13653C28836910509F416C383
:105670008936910508F0E4C38336910511F00C9446
:10568000A136B8C28237910509F45DC78337910509
:1056900070F48D36910509F4DFC38F36910509F456
:1056A00014C78B36910511F00C94A13602C78437CC
:1056B000910509F4DAC68437910508F43DC78537AA
:1056C000910509F445C78737910511F00C94A1366F
:1056D00055C7B1E08F329B0711F40C943C35E1E0E3
:1056E00080339E0708F062C08D3C910511F40C9444
:1056F0004E348E3C910528F5893C910511F40C94AB
:1057000066338A3C910570F48E3B910509F4DAC545
:10571000883C910509F46AC78C38910511F00C9406
:10572000A1364AC38B3C910511F40C94F333D30199
:105730002D913C918C3C910510F00C9408340C9404
:10574000AD338C3D910511F40C94A6348D3D91053B
:1057500088F48F3C910511F40C9455348F3C9105DD
:1057600010F40C945134813D910511F00C94A13644
:105770000C9488348B3F910511F40C94CC348C3FFD
:10578000910538F48D3D910511F00C94A1360C94DF
:10579000B934B1E089319B0711F40C9412358E5263
:1057A000914011F00C94A1360C941735F1E0813939
:1057B0009F0711F40C94F83521E08239920780F5A7
:1057C00031E08E35930711F40C94D43541E08F35D8
:1057D000940798F451E08134950711F40C949E35A8
:1057E000A1E082349A0711F40C94BF3580549140A3
:1057F00011F00C94A1360C948935E1E088369E07AF
:1058000011F40C94F235F1E080399F0711F40C94F7
:10581000F5358356914011F00C94A1360C94D9358E
:1058200031E0863F930711F40C94463641E0873F00
:10583000940798F451E0843F950711F40C942F36A7
:10584000A1E0853F9A0710F00C94373682599140B9
:1058500011F00C94A1360C94FB35E2E08A359E07DA
:1058600011F40C945B36F2E08B359F0738F48955C0
:10587000924011F00C94A1360C94493632E08B35ED
:10588000930711F40C949D368C58934011F00C94AE
:10589000A1360C94AF368EE391E10E9479A00C946E
:1058A000AF368EE391E10E9495A40C94AF368EE35F
:1058B00091E10E94C19E0C94AF36D3018D919C91D1
:1058C00097FD02C00C94AF368EE391E160E00E9438
:1058D00047B0E2E5F0E06E0E7F1ED3016D917C9142
:1058E0008EE391E140E00E94E29F0C94AF368EE39C
:1058F00091E10E94D99E0C94AF368EE391E160E075
:105900000E9476A30C94AF36F3018081918192FDC1
:1059100002C00C94AF36468D578D60A171A1809165
:10592000A811882311F40C94AF3640939F11509323
:10593000A0116093A1117093A2118EE791E10E94D2
:10594000DAAD0C94AF368EE391E10E94BD9F0C94CA
:10595000AF36D3018D919C9197FD02C00C94AF3668
:10596000E2E5F0E06E0E7F1ED3016D917C918EE337
:1059700091E10E947E9F0C94AF36F301808191816A
:1059800097FD02C00C94AF368EE391E160E00E9477
:1059900047B022E530E0620E731ED3016D917C9119
:1059A0008EE391E10E942F9F0C94AF36F30180812A
:1059B000918197FD02C00C94AF368EE391E160E0D7
:1059C0000E9447B022E530E0620E731ED3016D9154
:1059D0007C918EE391E10E94059F0C94AF36F30118
:1059E0004081518153FD02C00C94AF36E2A0F3A078
:1059F00020E030E0F901EE0FFF1FE05DFD4FE49184
:105A00008E2F90E08E159F0509F44FC02F5F3F4FFA
:105A10002433310579F7F7FC48C052FF32C0F30157
:105A2000868D978DA0A1B1A18F3F9105A105B105EC
:105A300009F008F58E2D0E94D8E4D3015E969C9162
:105A40005E975F962C91EE2DF0E0092E0E9447E5BF
:105A50008E2D692F722F0E94CAE787E398E0B70165
:105A60000E94CE38F301668D778D80E598E00E9424
:105A7000A5380C94AF3682E693E00E94AF370C94C1
:105A8000AF368E2D0E9411E580E598E0B7010E94A7
:105A9000CE38EE2DF0E00E9443E685E598E06E2FCB
:105AA00070E00E94A5380C94AF368CE293E00E941F
:105AB000AF370C94AF361092950F0C94AF3681E04F
:105AC0008093950F0C94AF36D3018D919C911197D3
:105AD00092FF16C05E966D917D918D919C919197EC
