:100000000C945F1A0C948A1A0C948A1A0C948A1A0B
:100010000C948A1A0C948A1A0C948A1A0C948A1AD0
:100020000C948A1A0C948A1A0C9416E60C948FE499
:100030000C948A1A0C948A1A0C948A1A0C948A1AB0
:100040000C948A1A0C9490600C948A1A0C948A1A54
:100050000C948A1A0C948A1A0C94D15F0C9452E373
:100060000C948A1A0C948A1A0C948A1A0C948A1A80
:100070000C948A1A0C948A1A0C948A1A0C948A1A70
:100080000C948A1A0C948A1A0C948A1A0C948A1A60
:100090000C948A1A0C948A1AA659BF59BF59BF5991
:1000A000BF59BF59BF59BF59BF59BF59BF59BF5990
:1000B000BF59BF59BF59BF59BF59BF59BF59BF5980
:1000C000BF59BF59BF59BF59BF59BF599359355926
:1000D0004159A658BF596F597B59BF59BF59BA5892
:1000E0009158BF596359BF59875957594D59BF59ED
:1000F000BF59BF5911591D592959BF59BF59BF5926
:10010000BF59BF59BF59BF59BF59BF5993593559E5
:100110004159A658BF596F597B59BF59BF59BA5851
:100120009158BF596359BF59875957594D59BF59AC
:10013000BF59BF5911591D592959FBC02BC162C163
:1001400088C2BEC8BEC8BEC8BEC8BEC8BEC8BEC8BB
:10015000BEC8BEC8B1C1F2C13EC2BEC8BEC8BEC8DC
:10016000BEC8BEC8BEC8BEC8BEC8BEC8BEC8BEC85F
:100170009DC39DC39DC3E8C3E8C3E8C333C4BEC8E1
:1001800068C57DC47DC47DC4C6C4C6C4C6C413C509
:1001900013C513C5BEC8BEC8BEC8BEC8BEC805C349
:1001A0003BC3BEC8B1C5F7C54CC692C6A9C6D7C623
:1001B00005C733C779C7BBC7FBC742C876C8C0C627
:1001C000BEC8BEC8BEC8BEC8BEC8BEC8BEC8BEC8FF
:1001D000BEC8BEC8BEC8BEC8BEC8BEC8D9C2BEC8DA
:1001E000BEC8BEC8BEC8BEC8BEC8BEC8BEC8BEC8DF
:1001F0001EC3BEC8BEC8BEC88EC8A8C8BEC8BEC8BA
:10020000BEC8BEC8EFC0BEC8BEC859C135C2BEC890
:100210006CC305A84CCDB2D44EB93836A9020C50E7
:10022000B9918688083CA6AAAA2ABE000000803F91
:10023000000001001C001D001300FFFF1A001E003B
:100240001F001200FFFF1B00200021001100FFFF14
:100250002400FFFF0F000E00220023000D00070006
:1002600006002600536574204D6963726F737465D0
:100270007070696E67005761746368646F672066A9
:1002800065617475726520776173206E6F74206389
:100290006F6D70696C656420696E746F2074686935
:1002A000732076657273696F6E21004D323531208F
:1002B0000020746F200053657420766F6C756D6537
:1002C0007472696320657874727573696F6E2066E5
:1002D0006F7220657874727564657220004469736A
:1002E00061626C656420766F6C756D6574726963AC
:1002F00020657874727573696F6E20666F72206501
:100300007874727564657220004D31313420004874
:10031000656174696E6720457874727564657200F2
:1003200050696E2063616E206E6F74206265207369
:100330006574206279204D34322C206D61792069FA
:100340006E20696E76616C6964206F7220696E2020
:100350007573652E2000496C6C6567616C205320B5
:1003600076616C756520666F72204D343200417580
:10037000746F726574726163743A00436F6C6420C9
:10038000657874727573696F6E20646973616C6CE3
:100390006F77656400436F6C642065787472757361
:1003A000696F6E20616C6C6F776564004A616D20C7
:1003B000646562756767696E673A004A616D2063BC
:1003C0006F6E74726F6C2064697361626C65643AFD
:1003D00000473133342000506F7346726F6D537491
:1003E0006570733A00436F6D7044656C74613A00D8
:1003F00043616C6962726174696F6E206D6F7665BE
:100400006D656E74206973206C696D697465642014
:10041000746F2031306D6D2E004669727374206DDB
:100420006F766520746F20746F7563682061742027
:10043000782C793D302C3020746F206175746F2DCD
:10044000736574207261646975732E0043616C6911
:1004500062726174696F6E206D6F76656D656E7422
:10046000206973206C696D6974656420746F203134
:10047000306D6D2E0043616E6E6F74207365742055
:1004800072616469757320616E6420666C6F6F724F
:100490002061742073616D652074696D652E004361
:1004A000616C6962726174696F6E20636F6465204C
:1004B0006973206C696D6974656420746F20626F64
:1004C00074746F6D20313025206F66205A20686566
:1004D000696768740052656C617469766520706F35
:1004E000736974696F6E696E67004162736F6C75D2
:1004F000746520706F736974696F6E696E670065EB
:1005000078656375746547436F6465202F20717546
:1005100065756544656C74614D6F766520726574B0
:1005200075726E73206572726F7200526F64205222
:1005300061646975732073657420746F3A20005884
:100540002028412920746F77657220666C6F6F7266
:100550002073657420746F3A2000592028422920A6
:10056000746F77657220666C6F6F7220736574208C
:10057000746F3A20005A2028432920746F776572DF
:1005800020666C6F6F722073657420746F3A200060
:100590004649524D574152455F4E414D453A52658D
:1005A0007065746965725F302E39322E332046498A
:1005B000524D574152455F55524C3A6874747073AE
:1005C0003A2F2F6769746875622E636F6D2F72659D
:1005D0007065746965722F52657065746965722DF6
:1005E0004669726D776172652F2050524F544F43A8
:1005F0004F4C5F56455253494F4E3A312E30204DA5
:10060000414348494E455F545950453A44656C74DE
:10061000612045585452554445525F434F554E54FE
:100620003A312052455045544945525F50524F543B
:100630004F434F4C3A330044656275673A006F6B25
:10064000000D0A004E414E00494E46004572726F41
:10065000723A00496E666F3A005761726E696E6752
:100660003A00526573656E643A004563686F3A00FC
:100670006F6B200057726F6E6720636865636B73E2
:10068000756D004D697373696E6720636865636B90
:1006900073756D00466F726D6174206572726F7252
:1006A00000446F6E65207072696E74696E672066B3
:1006B000696C6500205800205900205A0020450030
:1006C000204600205300205000204900204A0020EE
:1006D000520053442072656164206572726F72002B
:1006E0004572726F723A6578706563746564206CE8
:1006F000696E65200020676F742000736B6970203D
:1007000000424C4B2000737461727400506F776527
:100710007255700045787465726E616C2052657315
:1007200065740042726F776E206F75742052657326
:100730006574005761746368646F67205265736500
:100740007400536F667477617265205265736574C7
:1007500000556E6B6E6F776E20636F6D6D616E64AA
:100760003A00467265652052414D3A00583A0020E1
:10077000583A0020593A00205A3A0020453A00548D
:100780003A0020423A0020403A0020540020400025
:100790002042403A0020524157003A002F00202FBB
:1007A0000053706565644D756C7469706C793A00BE
:1007B000466C6F774D756C7469706C793A00466160
:1007C0006E73706565643A005072696E746564207A
:1007D00066696C616D656E743A005072696E746919
:1007E0006E672074696D653A006D20002064617940
:1007F00073200020686F7572732000206D696E0091
:10080000496E76616C696420617263002C0020007F
:10081000593A005A3A0045303A0045313A004D53B2
:10082000312C4D53322050696E7300536574206F24
:1008300075747075743A200047657420496E707540
:10084000743A200020746F20002069732000482033
:10085000004C2000785F6D696E3A00785F6D6178BA
:100860003A00795F6D696E3A00795F6D61783A00A0
:100870007A5F6D696E3A007A5F6D61783A004A6519
:10088000726B3A00205A4A65726B3A00206C696EAE
:100890006561722073746570733A002071756164CC
:1008A00072617469632073746570733A002C2073ED
:1008B000706565643D00454550524F4D207570642C
:1008C00061746564006C696E656172204C3A002049
:1008D000717561647261746963204B3A0045787484
:1008E0007275646572204A616D0046696C616D6560
:1008F0006E7420736C697070696E67004D6561730A
:100900007572656D656E742072657365742E004D29
:100910006561737572652F64656C7461202853740A
:1009200065707329203D004D6561737572652F6494
:10093000656C7461203D004D65617375726564205E
:100940006F726967696E207365742E204D656173DF
:100950007572656D656E742072657365742E004FD7
:10096000726967696E206D6561737572656D656E1C
:10097000742063616E6E6F74206265207365742EDF
:100980002020557365206F6E6C79205A2D4361725B
:1009900074657369616E2028737472616967687425
:1009A00020757020616E6420646F776E29206D6FF2
:1009B00076656D656E747320616E64207472792043
:1009C000616761696E2E00496E76616C69642064AE
:1009D000656C746120636F6F7264696E6174652009
:1009E0002D206D6F76652069676E6F726564004CAF
:1009F0006576656C696E672063616C633A00546F5D
:100A000077657220313A00546F77657220323A0070
:100A1000546F77657220333A00416C7068612041F1
:100A200028323130293A00416C7068612042283305
:100A30003330293A00416C706861204328393029ED
:100A40003A0044656C746120526164697573204199
:100A50002830293A0044656C7461205261646975DC
:100A60007320422830293A0044656C746120526139
:100A70006469757320432830293A004E6F206D6FEA
:100A8000766520696E2064656C7461207365676D9E
:100A9000656E742077697468203E20312073656725
:100AA0006D656E742E20546869732073686F756C61
:100AB00064206E657665722068617070656E206175
:100AC0006E64206D617920636175736520612070AB
:100AD000726F626C656D2100546172676574457850
:100AE0007472005461726765744265643A005049DB
:100AF00044204175746F74756E65207374617274EF
:100B00000020626961733A200020643A2000206D61
:100B1000696E3A2000206D61783A2000204B753ACA
:100B200020002054753A200020436C617373696380
:100B30002050494400204B703A2000204B693A2055
:100B400000204B643A2000504944204175746F7472
:100B5000756E65206661696C6564212054656D70F1
:100B60006572617475726520746F206869676800CA
:100B7000504944204175746F74756E6520666169D3
:100B80006C6564212074696D656F7574005049440B
:100B9000204175746F74756E652066696E6973683F
:100BA0006564202120506C61636520746865204B6A
:100BB000702C204B6920616E64204B6420636F6E43
:100BC0007374616E747320696E2074686520436F5E
:100BD0006E66696775726174696F6E2E68206F72D8
:100BE00020454550524F4D004D54454D503A0068F8
:100BF000656174656420626564006578747275640B
:100C0000657220003A2074656D702073656E736F95
:100C10007220646566656374003A20776F726B6951
:100C20006E67005072696E74657220736574206916
:100C30006E746F206472792072756E206D6F6465BA
:100C400020756E74696C2072657374617274210012
:100C50004175746F6C6576656C206D61747269782E
:100C6000207265736574004175746F6C6576656C90
:100C7000696E6720656E61626C6564004175746FB2
:100C80006C6576656C696E672064697361626C651A
:100C900064005472616E73666F726D6174696F6E19
:100CA000206D61747269783A005A2D70726F6265B6
:100CB000206661696C6564005A2D70726F626520F0
:100CC0006D61783A005072696E746572206865696A
:100CD0006768743A0077616974004175746F6C6578
:100CE00076656C206163746976652028312F302920
:100CF00000436F6E66696775726174696F6E207309
:100D0000746F72656420746F20454550524F4D2EAC
:100D100000436F6E66696775726174696F6E206CEF
:100D20006F616465642066726F6D20454550524F57
:100D30004D2E00436F6E66696775726174696F6EE0
:100D400020726573657420746F2064656661756CCC
:100D500074732E0050726F746F636F6C20766572BF
:100D600073696F6E206368616E6765642C207570AF
:100D700067726164696E67004550523A30200045E1
:100D800050523A3120004550523A322000455052DC
:100D90003A33200042617564726174650046696C83
:100DA000616D656E74207072696E746564205B6D30
:100DB0005D005072696E7465722061637469766556
:100DC000205B735D004D61782E20696E61637469EC
:100DD00076652074696D65205B6D732C303D6F66A0
:100DE000665D0053746F7020737465707065722057
:100DF000616674657220696E61637469766974797D
:100E0000205B6D732C303D6F66665D005820686F07
:100E10006D6520706F73205B6D6D5D005920686F8C
:100E20006D6520706F73205B6D6D5D005A20686F7B
:100E30006D6520706F73205B6D6D5D0058206D6176
:100E400078206C656E677468205B6D6D5D0059205D
:100E50006D6178206C656E677468205B6D6D5D00F8
:100E60005A206D6178206C656E677468205B6D6DCB
:100E70005D0058206261636B6C617368205B6D6D0F
:100E80005D0059206261636B6C617368205B6D6DFE
:100E90005D005A206261636B6C617368205B6D6DED
:100EA0005D004D61782E206A65726B205B6D6D2F41
:100EB000735D00416363656C65726174696F6E2078
:100EC0005B6D6D2F735E325D0054726176656C20D0
:100ED000616363656C65726174696F6E205B6D6DD3
:100EE0002F735E325D0053746570732070657220DD
:100EF0006D6D004D61782E20666565647261746564
:100F0000205B6D6D2F735D00486F6D696E672066A5
:100F100065656472617465205B6D6D2F735D00445F
:100F20006961676F6E616C20726F64206C656E67BB
:100F30007468205B6D6D5D00486F72697A6F6E74C6
:100F4000616C20726F6420726164697573206174D2
:100F500020302C30205B6D6D5D005365676D656ED4
:100F600074732F7320666F72207072696E74696E6D
:100F700067005365676D656E74732F7320666F72BB
:100F80002074726176656C00546F7765722058200A
:100F9000656E6473746F70206F6666736574205B32
:100FA00073746570735D00546F77657220592065A6
:100FB0006E6473746F70206F6666736574205B7304
:100FC000746570735D00546F776572205A20656E8A
:100FD0006473746F70206F6666736574205B7374DE
:100FE0006570735D004D6178207072696E74616226
:100FF0006C6520726164697573205B6D6D5D004383
:101000006F72722E20646961676F6E616C2041207F
:101010005B6D6D5D00436F72722E20646961676F56
:101020006E616C2042205B6D6D5D00436F72722EAD
:1010300020646961676F6E616C2043205B6D6D5D3C
:10104000004F5053206F7065726174696F6E206D30
:101050006F6465205B303D4F66662C313D436C61AB
:10106000737369632C323D466173745D004F505356
:10107000206D6F7665206166746572207825207218
:10108000657472616374205B255D004F5053206D61
:10109000696E2E2064697374616E636520666F7279
:1010A0002066696C2E2072657472616374696F6E5C
:1010B000205B6D6D5D004F505320726574726163EB
:1010C00074696F6E206C656E677468205B6D6D5D12
:1010D000004F50532072657472616374696F6E20A3
:1010E0006261636B6C617368205B6D6D5D0042656E
:1010F000642048656174204D616E61676572205B94
:10110000302D335D0042656420504944206472698B
:101110007665206D61780042656420504944206402
:1011200072697665206D696E00426564205049449D
:1011300020502D6761696E0042656420504944204B
:10114000492D6761696E004265642050494420441E
:101150002D6761696E0042656420504944206D61CD
:10116000782076616C7565205B302D3235355D00F9
:10117000737465707320706572206D6D006D617899
:101180002E206665656472617465205B6D6D2F73DA
:101190005D00737461727420666565647261746564
:1011A000205B6D6D2F735D00616363656C657261BB
:1011B00074696F6E205B6D6D2F735E325D006865C4
:1011C0006174206D616E61676572205B302D335DE7
:1011D00000504944206472697665206D6178005042
:1011E0004944206472697665206D696E00504944F7
:1011F00020502D6761696E2F646561642D74696D7F
:10120000650048656174657220646561642D746968
:101210006D65006E6120666F722064656164207484
:10122000696D65206374726C0050494420492D67D4
:1012300061696E0050494420442D6761696E005019
:101240004944206D61782076616C7565205B302D96
:101250003235355D00582D6F6666736574205B739B
:10126000746570735D00592D6F6666736574205BDD
:1012700073746570735D0074656D702E2073746196
:1012800062696C697A652074696D65205B735D00C5
:1012900074656D702E20666F722072657472616362
:1012A00074696F6E207768656E2068656174696E19
:1012B00067205B435D0064697374616E63652074CD
:1012C0006F2072657472616374207768656E206840
:1012D000656174696E67205B6D6D5D006578747221
:1012E0007564657220636F6F6C65722073706565DD
:1012F00064205B302D3235355D00616476616E634C
:1013000065204B205B303D6F66665D0061647661F1
:101310006E6365204C205B303D6F66665D00534414
:1013200020436172642072656D6F7665640053447A
:10133000204361726420696E736572746564005342
:101340004420696E6974206661696C006572726F11
:10135000722077726974696E6720746F2066696C99
:101360006500426567696E2066696C65206C69730B
:101370007400456E642066696C65206C6973740046
:1013800046696C65206F70656E65643A002053692C
:101390007A653A0046696C652073656C65637465AF
:1013A000640066696C652E6F70656E206661696C9D
:1013B0006564005344207072696E74696E672062C0
:1013C00079746520004E6F74205344207072696EEA
:1013D00074696E67006F70656E206661696C656424
:1013E0002C2046696C653A200057726974696E67F3
:1013F00020746F2066696C653A2000446F6E65202A
:10140000736176696E672066696C652E0046696C4B
:10141000652064656C657465640044656C65746919
:101420006F6E206661696C656400446972656374FF
:101430006F727920637265617465640043726561DF
:1014400074696F6E206661696C6564005344206541
:1014500072726F72436F64653A00486561746572B9
:10146000206465636F75706C6564004F6E652068FD
:101470006561746572207365656D73206465636F63
:1014800075706C65642066726F6D20746865726D2E
:101490006973746F72202D2064697361626C696E68
:1014A0006720616C6C20666F722073616665747969
:1014B0002100436F6E6669673A00457874722E00AA
:1014C000071C151C141E00002243141F1F4C15BCC2
:1014D0001510168016D016000000004817D017DC33
:1014E000182C19A819206465672E204300206D650B
:1014F00061737572656420004572726F723A436F52
:10150000756C64206E6F7420686F6C642074656DF8
:1015100070657261747572652000206D73002061C2
:101520006674657220004572726F723A54656D7010
:101530002E2072616973656420746F20736C6F77FD
:101540002E2052697365203D200000000000A00F8E
:101550005C006009690010097900C0088C007008FF
:10156000A2002008BD00D007DE008007050130077B
:101570003401E0066D019006B20140060702F00555
:101580006D02A005E80250057B0300052B04B004A2
:10159000F8046004EB06C003350920037F0B8002CA
:1015A000650DE001B00E40011D0FF000480FC800AE
:1015B0006C0FA000ED0F60FFFE0F48FE0400801AC4
:1015C000D8009808AC012007800250065403C805D3
:1015D00028045805FC040005D005B004A4066804DE
:1015E000780728044C08E8032009B003F4097003C5
:1015F000C80A38039C0BF802700CB002440D680254
:10160000180E0802EC0E8801C00F8800F00F0000D1
:101610000400001B54006009640010097400C00835
:10162000840070089C002008B800D007D80080070C
:10163000000130072C01E00668019006AC0140066D
:101640000002F0056802A005E002500574030005E1
:101650002404B004F0046004DC051004E406C003B4
:101660000408700330092003780B8002600DE0014C
:10167000A80E4001680FA000C00F0000E80F60FF37
:101680000400700DD8004804AC0158038002D80251
:101690005403800228043802FC040002D005C8016B
:1016A000A4069801780770014C0848012009180128
:1016B000F409F000C80AC8009C0BA000700C700070
:1016C000440D3800180E0000EC0EA8FFC00FE8FE15
:1016D0000400304D900098101C01900CA801A80A3D
:1016E00034027809C00298084C03E807D803600761
:1016F0006404E806F00480067C0520060806C80598
:101700009406780520073005AC07E8043808A804DB
:10171000C408680450092804DC09F003680AB0030F
:10172000F40A7003800B30030C0CF002980CB0022A
:10173000240D6802B00D18023C0EB801C80E480115
:10174000540FA800E00F58FF0000401F450060093B
:101750004F0010095C00C0086B0070087D00200875
:101760009200D007AC008007CC003007DE00E00616
:10177000230190065E014006A601F005FF01A005C9
:101780006D025005F30200059603B0045A0460048C
:10179000400510044806C0036E077003A808200324
:1017A000EB09D002230B8002410C3002390DE0011D
:1017B000040E9001A20E4001170FF000690FA00067
:1017C000A20F5000C60F0000DD0FB0FFEB0F60FF4F
:1017D0000400681D4C00500B94005809DC005008B0
:1017E0002401A8076C012807B401C006FC0170069B
:1017F000440228068C02F005D402B8051C038805B3
:1018000064035805AC033005F40310053C04E804F8
:101810008404C804CC04A804140590045C05700476
:10182000A4055804EC053804340620047C0608049A
:10183000C406F0030C07D8035407C8039C07B00381
:10184000E40798032C08800374087003BC0858034D
:10185000040948034C09300394091803DC09080300
:10186000240AF0026C0AE002B40AC802FC0AB002C0
:10187000440BA0028C0B8802D40B70021C0C580283
:10188000640C4002AC0C2802F40C10023C0DF00178
:10189000840DD801CC0DB801140E98015C0E7001B6
:1018A000A40E4801EC0E1801340FD8007C0F8800FC
:1018B000C40F0800FC0F0000000000000000000042
:1018C0000000000000000000000000000000000018
:1018D00000000000000000000000000004000016EE
:1018E000D800C006AC0178058002C0045403480447
:1018F0002804E803FC049803D0055003A406180349
:101900007807D8024C08A80220097002F4093802AE
:10191000C80A08029C0BD001700C9001440D5001C4
:10192000180EF800EC0E8800C00F00000400401DE7
:10193000900060091C01B007A801D00634023806E7
:10194000C002C8054C036805D80318056404D80410
:10195000F00498047C056004080630049406000432
:101960002007D003AC07A80338088003C408580335
:1019700050093003DC090803680AE002F40AB802DF
:10198000800B88020C0C6002980C3002240DF801C8
:10199000B00DC0013C0E8001C80E3001540FB800DC
:1019A000B40F2800E00F00000400081D9000580943
:1019B0001C01B007A801C80634023006C002C005E9
:1019C0004C036805D80318056404D004F004980497
:1019D0007C05600408063004940600042007D00348
:1019E000AC07A80338088003C40858035009300323
:1019F000DC090803680AD802F40AB002800B8802E6
:101A00000C0C6002980C3002240DF801B00DC001DE
:101A10003C0E8001C80E3001540FB800B40F2800EE
:101A2000E00F00005344206572726F72206669787F
:101A30006564005344206572726F7220646964208B
:101A40006E6F74207265636F766572210053442057
:101A500052656164204572726F720042696E6172F4
:101A6000793A00436F6D6D616E64427566666572AA
:101A70000000000000000000000000000000000066
:101A80000024F403D950C38EB1C2A23D96828B3597
:101A900082127AE372816CCB66A861015DC758EB54
:101AA000546151204E1E4B5648C14559431A4101BD
:101AB0003F093D2F3B7139CD374036C9346533146A
:101AC00032D430A32F802E6B2D632C672B752A8E7A
:101AD00029B028DC2710274B268F25D9242B2482D8
:101AE00023E0224322AC211A218D200420801F00F4
:101AF0001F841E0C1E971D261DB81C4E1CE61B8243
:101B00001B201BC11A641A0A1AB2195D190A19B9E5
:101B1000186A181C18D11788174017FA16B51673CB
:101B2000163116F115B31576153A150015C7148F31
:101B30001458142214EE13BA13881356132513F6EF
:101B400012C71299126C1240121512EB11C11198A2
:101B500011701148112111FB10D610B1108D1069B0
:101B600010461024100210E10FC00FA00F800F616B
:101B70000F420F230F060FE80ECB0EAF0E930E771A
:101B80000E5C0E410E270E0D0EF30DDA0DC10DA8E1
:101B90000D900D780D600D490D320D1B0D050DEFEB
:101BA0000CD90CC30CAE0C990C850C700C5C0C4859
:101BB0000C350C210C0E0CFB0BE80BD60BC40BB236
:101BC0000BA00B8E0B7D0B6B0B5A0B4A0B390B29A1
:101BD0000B180B080BF80AE90AD90ACA0ABB0AACA7
:101BE0000A9D0A8E0A800A710A630A550A470A3951
:101BF0000A2C0A1E0A110A040AF709EA09DD09D0AB
:101C000009C409B709AB099F09920987097B096FC4
:101C100009630958094C09410936092B092009159E
:101C2000090A090009F508EB08E008D608CC08C243
:101C300008B808AE08A4089A08900887087D0874B8
:101C4000086B08610858084F0846083D0834082CFE
:101C50000823081A08120809080108F807F007E81D
:101C600007E007D807D007C807C007B807B007A81C
:101C700007A1070000420FA1071605D0030D038B33
:101C8000022E02E801B2018601630145012C011711
:101C9000010401F40049646C650049646C650069E5
:101CA0006E20717565756544656C74614D6F766500
:101CB00020746F2063616C63756C61746544656C3E
:101CC00074615375625365676D656E7473207265D8
:101CD0007475726E73206572726F722E00207A3A7C
:101CE0000020793A0020783A004320686974206621
:101CF0006C6F6F720043706F732078207371756121
:101D00007265200043706F73207820737465707360
:101D1000200043706F7320792073717561726520A4
:101D20000043706F732079207374657073200042D4
:101D30002068697420666C6F6F720042706F732048
:101D40007820737175617265200042706F7320781E
:101D5000207374657073200042706F732079207354
:101D60007175617265200042706F73207920737401
:101D70006570732000412068697420666C6F6F7213
:101D80000041706F73207820737175617265200057
:101D900041706F73207820737465707320004170F8
:101DA0006F73207920737175617265200041706FC7
:101DB00073207920737465707320006D6F7665529F
:101DC000656C617469766544697374616E636549B5
:101DD0006E5374657073202F207175657565446549
:101DE0006C74614D6F76652072657475726E7320C8
:101DF0006572726F72004D617854656D703A00447F
:101E000069616D657465723A00416363656C657202
:101E10006174696F6E3A004D617853706565643A1C
:101E2000004A65726B3A004D617842656454656D95
:101E3000703A005072696E746572547970653A44F4
:101E4000656C7461005A54726176656C41636365B8
:101E50006C3A005954726176656C416363656C3A03
:101E6000005854726176656C416363656C3A005A40
:101E70005072696E74416363656C3A0059507269BF
:101E80006E74416363656C3A00585072696E7441B8
:101E90006363656C3A005A53697A653A005953692D
:101EA0007A653A005853697A653A005A4D61783A32
:101EB00000594D61783A00584D61783A005A4D69A1
:101EC0006E3A00594D696E3A00584D696E3A004AB3
:101ED00065726B58593A005072696E746C696E6520
:101EE00043616368653A00454550524F4D3A0041A1
:101EF00075746F6C6576656C3A005A50726F6265E6
:101F00003A00436173654C69676874733A005375AE
:101F100070706F72744C6F63616C46696C616D6553
:101F20006E746368616E67653A00537570706F72A6
:101F3000744731304731313A005A486F6D65446912
:101F4000723A0059486F6D654469723A0058486F9B
:101F50006D654469723A00536F66747761726550BB
:101F60006F7765725377697463683A004C43443AFB
:101F70000046616E3A005344436172643A0048651A
:101F8000617465644265643A004D6978696E6745BD
:101F9000787472756465723A004E756D4578747226
:101FA000756465723A0042617564726174653A00E5
:101FB0004E6F2063617365206C6967687473006895
:101FC0006F6D65417869732000686F6D6541786950
:101FD00073202F20717565756544656C74614D6F54
:101FE00076652072657475726E73206572726F7299
:101FF00000486F6D652044656C746100686F6D65A5
:102000005941786973202F20717565756544656C39
:1020100074614D6F76652072657475726E7320659C
:1020200072726F7200686F6D655841786973202F06
:1020300020717565756544656C74614D6F766520BA
:1020400072657475726E73206572726F7200507271
:10205000696E7465723A3A736574757020004175E3
:10206000746F726574726163743A006D6F76655453
:102070006F5265616C202F20717565756544656CC4
:1020800074614D6F76652072657475726E7320652C
:1020900072726F72006D6F7665546F202F207175AC
:1020A00065756544656C74614D6F76652072657405
:1020B00075726E73206572726F7200537465707002
:1020C00065722044697361626C6564004B696C6C75
:1020D0006564006973506F736974696F6E416C6CED
:1020E0006F776564200055706C6F6164696E672E50
:1020F0002E2E00005344207072696E742073746F2A
:102100007070656420627920757365722E0000001E
:1021100000002110422063308440A550C660E77063
:10212000088129914AA16BB18CC1ADD1CEE1EFF10B
:102130003112100273325222B5529442F772D662B3
:10214000399318837BB35AA3BDD39CC3FFF3DEE35B
:102150006224433420040114E664C774A444855403
:102160006AA54BB528850995EEE5CFF5ACC58DD5AB
:102170005336722611163006D776F6669556B44653
:102180005BB77AA719973887DFF7FEE79DD7BCC7FB
:10219000C448E5588668A7784008611802282338A3
:1021A000CCC9EDD98EE9AFF9488969990AA92BB94B
:1021B000F55AD44AB77A966A711A500A333A122AF3
:1021C000FDDBDCCBBFFB9EEB799B588B3BBB1AAB9B
:1021D000A66C877CE44CC55C222C033C600C411C43
:1021E000AEED8FFDECCDCDDD2AAD0BBD688D499DEB
:1021F000977EB66ED55EF44E133E322E511E700E93
:102200009FFFBEEFDDDFFCCF1BBF3AAF599F788F3A
:102210008891A981CAB1EBA10CD12DC14EF16FE11A
:102220008010A100C230E320045025404670676052
:10223000B9839893FBA3DAB33DC31CD37FE35EF36A
:10224000B1029012F322D2323542145277625672A2
:10225000EAB5CBA5A89589856EF54FE52CD50DC5BA
:10226000E234C324A01481046674476424540544F2
:10227000DBA7FAB79987B8975FE77EF71DC73CD70A
:10228000D326F2369106B016576676761546345642
:102290004CD96DC90EF92FE9C899E9898AB9ABA95A
:1022A0004458654806782768C018E1088238A32892
:1022B0007DCB5CDB3FEB1EFBF98BD89BBBAB9ABBAA
:1022C000754A545A376A167AF10AD01AB32A923AE2
:1022D0002EFD0FED6CDD4DCDAABD8BADE89DC98DFA
:1022E000267C076C645C454CA23C832CE01CC10C32
:1022F0001FEF3EFF5DCF7CDF9BAFBABFD98FF89F4A
:10230000176E367E554E745E932EB23ED10EF01E81
:102310007C3C3E5E2B3D3F2F5B5D3B2C2A225C00CC
:102320004E6F206572726F7220666F756E642E003C
:1023300043616E2774206F70656E20726F6F74201A
:102340006469726563746F72792E00496E76616C90
:10235000696420666F726D61742C207265666F729D
:102360006D61742053442E004E6F20636172642CA3
:102370002077726F6E6720636869702073656C6583
:1023800063742070696E2C206F7220535049207046
:10239000726F626C656D3F0043616E2774206163EC
:1023A0006365737320534420636172642E20446F0D
:1023B000206E6F74207265666F726D61742E0000FE
:1023C00000FF00000000010100000000FF000041CC
:1023D0006374696F6E3A256C61000310270200C2B6
:1023E000260310270200C6260100000100CA2602AB
:1023F00000000800CC2603ED030400DC2603EE03F6
:102400000400E42603EF030400EC2603FA030400AF
:10241000F42603FB030400FC2603FC03040004274A
:1024200002000009000C2702000005001E27020020
:1024300000090028275265717565737450617573C2
:10244000653A0055495F414354494F4E5F534554E7
:102450005F4D454153555245445F4F524947494EA0
:1024600020004E6F205344204361726400436F6F1D
:102470006C646F776E0050726568656174204142CC
:1024800053005072656865617420504C4100554995
:102490005F414354494F4E5F484F4D455F5A2000BE
:1024A00055495F414354494F4E5F484F4D455F5931
:1024B000200055495F414354494F4E5F484F4D45B9
:1024C0005F58200055495F414354494F4E5F484F84
:1024D0004D45414C4C200080250000403800000054
:1024E0004B00008070000000960000C0DA00000081
:1024F000E10000002C010008B2010000C201000050
:10250000F401000084030090D0030000E803000001
:1025100008070020A1070000100E0040420F0060D5
:10252000E316000000000055495F414354494F4EF7
:102530005F45504F534954494F4E200055495F4124
:102540004354494F4E5F5A504F534954494F4E5F81
:1025500046415354200055495F414354494F4E5F13
:1025600059504F534954494F4E5F464153542000F0
:1025700055495F414354494F4E5F58504F5349545A
:10258000494F4E5F46415354200055495F414354E3
:10259000494F4E5F5A504F534954494F4E200055B2
:1025A000495F414354494F4E5F59504F5349544935
:1025B0004F4E200055495F414354494F4E5F58509C
:1025C0004F534954494F4E200002000009003A275A
:1025D0004C2753275A276127596573004E6F000314
:1025E0000004004E2F410042616E6742616E670039
:1025F000536C6F7742616E67004465616420546973
:102600006D650050494400003A00206461797320F0
:10261000005072696E74696E672E2E2E00206465FC
:102620006320002064656620004F6E004F666600E0
:102630000000003FCDCC4C3D0AD7A33B6F12033ABC
:10264000526570657469657220302E39322E330000
:102650002020202020627920654D6F74696F6E20E4
:1026600054656368004D6963726F202044656C7423
:10267000612020202020005072696E7465722072E3
:10268000656164792E0000401454040E15041C008A
:102690000000040A040000000000001F1F1F1F1F8D
:1026A0000000001F1111111F0000040A0A0A0E1F6A
:1026B0001F0E001C1F11111F0000110A0411040A33
:1026C000111168276F2776277D27842784278B277A
:1026D00092279927A027A727AE27B527BC27C3276E
:1026E000CA27D127D827DF27E627ED27F427FB279E
:1026F00002280928102817281E2825282C283328C6
:102700003A28412848284F2856285D2884276428DD
:102710006B2872287928802887288E289528842776
:102720009C28A328AA28B12884276428B828BF2871
:10273000C628CD28D428DB28AA288427E2288B277E
:10274000E928F028F728FE2805290C2900000004B4
:1027500000132900000004001B29000000040023CE
:102760002900000004002B2933290000000000414B
:10277000290000000000522900000000006029002C
:1027800000000000712903E8030000782903F50325
:102790000102832903F60302048F2903F7030400CF
:1027A0009E2902A9290200B02903F8030100BD29CE
:1027B00003F9030001C82903F4030102D42900002E
:1027C000000000DD290000000000ED2900000000ED
:1027D00000FD290000000000FE29000000000007A5
:1027E0002A0000000000172A0000000000272A002D
:1027F00000000000282A0000000000312A0000002C
:102800000000412A0000000000512A0000000000E2
:10281000522A00000000005B2A00000000006B2A22
:1028200000000000007B2A00000000007C2A00005D
:10283000000000852A0000000000952A000000002A
:1028400000A52A0000000000A62A0000000000AF3A
:102850002A0000000000BF2A0000000000CF2A006C
:1028600000000000D02A03FD030010D92A041F0431
:102870000000EB2A0448040000FD2A03370400008E
:10288000092B0347040000152B03380400001E2BFE
:1028900003310400102C2B03430400103C2B043E96
:1028A0000400004C2B033A0400005D2B026C2B004B
:1028B00000732B03440400007E2B020B2400008ACB
:1028C0002B02F6230000952B0212240000A12B02FC
:1028D000FD230000AC2B0219240000B82B020424B5
:1028E0000000C32B0220240000D22B022E24000063
:1028F000DB2B0227240000E42B02EE2B0000F52B3B
:1029000002EF230000FD2B02072C00000E2C021CFE
:102910002C0000232C2A2C312C382C3F2C462C4DFB
:102920002C542C5B2C622C692C702C772C7E2C85E3
:102930002C8C2C436F6E66696775726174696F6E5B
:102940000073746F72656420696E20454550524F64
:102950004D00436F6E66696775726174696F6E00D2
:102960006C6F6164656420662E20454550524F4D62
:10297000004261636B2001005072696E74206669C9
:102980006C65005061757365205072696E74004308
:102990006F6E74696E7565205072696E7400537441
:1029A0006F70205072696E74000200000300932C57
:1029B000556E6D6F756E742043617264004D6F7556
:1029C0006E7420436172640044656C6574652066B2
:1029D000696C6500583A257830206D6D004D696E40
:1029E00020656E6473746F703A257378004D61785A
:1029F00020656E6473746F703A2573580000593AFD
:102A0000257831206D6D004D696E20656E6473749C
:102A10006F703A257379004D617820656E64737428
:102A20006F703A25735900005A3A257832206D6D3F
:102A3000004D696E20656E6473746F703A25737A09
:102A4000004D617820656E6473746F703A25735A17
:102A50000000583A257830206D6D004D696E206574
:102A60006E6473746F703A257378004D61782065D9
:102A70006E6473746F703A2573580000593A257864
:102A800031206D6D004D696E20656E6473746F70DA
:102A90003A257379004D617820656E6473746F70A8
:102AA0003A25735900005A3A257832206D6D004D51
:102AB000696E20656E6473746F703A25737A004D89
:102AC000617820656E6473746F703A25735A0000E4
:102AD000486F6D6520416C6C005370656564204DD6
:102AE000756C2E3A256F6D25252500466C6F772075
:102AF0004D756C2E203A256F662525250050726590
:102B00006865617420504C4100507265686561745D
:102B10002041425300436F6F6C646F776E005365C2
:102B20007420746F204F726967696E004469736125
:102B3000626C6520737465707065720054656D70A9
:102B40002E2031203A202545300243005475726E04
:102B500020457874722E2031204F666600457874C7
:102B6000722E20706F736974696F6E0003F0030436
:102B700000992C536574204F726967696E00582064
:102B8000506F732E2046617374005820506F736924
:102B900074696F6E005920506F732E2046617374F4
:102BA000005920506F736974696F6E005A20506F1E
:102BB000732E2046617374005A20506F73697469D4
:102BC0006F6E00517569636B2053657474696E672D
:102BD0007300506F736974696F6E00457874727515
:102BE0006465720046616E20737065656400020062
:102BF000000800A12C5344204361726400446562C4
:102C0000756767696E67000200000500B12C436FAD
:102C10006E66696775726174696F6E000200000903
:102C200000BB2CCD2C0000000000DE2C00000000BA
:102C300000E72C0000000000F22C0000000000F66D
:102C40002C0000000000FF2C0000000000082D00F8
:102C500000000000112D0000000000152D000000F4
:102C60000000262D0000000000272D0000000000BD
:102C7000282D00000000002C2D00000000003A2D3F
:102C800000000000003E2D00000000004F2D00005D
:102C9000000000552D5C2D632D6A2D712D782D7F40
:102CA0002D8427862D8D2D942D9B2DA22DA92DB001
:102CB0002D8427B72DBE2DC52DCC2D8427D32DDAFD
:102CC0002DE12DE82DEF2DF62DFD2D042E20453A7A
:102CD0002565632F25456302437E256F43005A3ADD
:102CE000257832206D6D004275666665723A256FF3
:102CF0004200256F7300583A257830206D6D0059D9
:102D00003A257831206D6D005A3A257832206D6D64
:102D100000256F730045313A2565302F2545300277
:102D2000437E256F30000000256F73005072696E7E
:102D300074696E672074696D650025557400466975
:102D40006C616D656E74207072696E7465640025C7
:102D50005566206D000B2E0100000000162E03E8C2
:102D6000030000192E03542402001D2E0000000051
:102D700000262E0000000000352E00000000004656
:102D80002E0000000000542E0452040000652E03A3
:102D90001A040800722E031B040000802E031C047A
:102DA00000008E2E031D0400009C2E031E04000054
:102DB000A92E03B4040000BD2E0332040000C92E66
:102DC0000333040000D52E0334040000E12E033544
:102DD000040000ED2E02F52E0000FC2E02092F004B
:102DE00000102F02192F0000202F02292F00003081
:102DF0002F0306040000402F03070400004F2F029A
:102E0000582F00005F2F026B2F000053746F70204B
:102E10005072696E74004E6F0059657300453A2513
:102E20007833206D6D003120636C69636B203D2029
:102E300031206D6D0020453A2565632F25456302DD
:102E4000437E256F4300255566206D207072696EA4
:102E50007465640046616E2073706565643A25464A
:102E600073252525005475726E2046616E204F66CD
:102E700066005365742046616E2032352525250095
:102E80005365742046616E20353025252500536535
:102E9000742046616E203735252525005365742042
:102EA00046616E2046756C6C0049676E6F726520D6
:102EB0004D31303620636D642025466900456368D6
:102EC0006F2020203A25646F00496E666F20202015
:102ED0003A256469004572726F7273203A25646501
:102EE000004472792072756E3A2564640047656EFD
:102EF0006572616C000200000500722F416363651A
:102F00006C65726174696F6E0002000004007C2FB2
:102F10004665656472617465000200000300842FD9
:102F200045787472756465720002000011008A2F82
:102F300053746F726520746F20454550524F4D0099
:102F40004C6F616420662E20454550524F4D005A0B
:102F50002043616C69622E000200000500AC2F4C1A
:102F60006576656C2064656C7461000200000B007E
:102F7000B62F8427CC2FD32FDA2FE12F8427E82FE9
:102F8000EF2FF62F8427FD2F043084270B301230CB
:102F90001930203027302E3035303C3043304A3025
:102FA000513058305F3066306D307430842764287B
:102FB0007B30823089308427903097309E30A53026
:102FC000B828BF28C628CD28D428DB28AC30041068
:102FD000040000B93002CA300000D13002DF3000F6
:102FE00000E63003B2040000F530040A040000FFDC
:102FF00030040D0400000831040E040000143104F4
:10300000160400001C3104130400002531042904B7
:1030100000003231042C0400003F31042B04000076
:103020004A31042A0400005431042E0400006231A5
:10303000044D0400007531044C0400008631042D59
:10304000040000923104220420009C310423042057
:1030500000A6310424042000B0310425042000BE61
:10306000310426042000CC310422044000D931046C
:1030700026044000E931042F040000F5310201323A
:103080000000083202133200001A3203AC0F0000B5
:10309000223203AD0F0000293203AE0F00003032A0
:1030A00003AF0F0000373203B00F000042617564B8
:1030B000726174653A256F63005374657070657250
:1030C00020496E6163746976650003200402004A3A
:1030D000324D61782E20496E616374697665000314
:1030E000580402004E324175746F6C6576656C3A17
:1030F00020256C6C005072696E743A25617A004D1F
:103100006F76653A25615A004A65726B2020203A35
:1031100025616A004D61783A25667A00486F6D65D1
:103120003A25665A0053746570732F4D4D3A2553F6
:10313000650053746172742046523A255866004DFA
:1031400061782046523A25584600416363656C3ADF
:1031500025584100537461622E54696D653A2558B3
:1031600077005761697420556E6974733A20255849
:1031700055206D6D00576169742054656D702E2067
:10318000255854024300436F6E74726F6C3A255891
:10319000680050494420503A255870005049442056
:1031A000493A2558690050494420443A255864005A
:1031B0004472697665204D696E3A25586D004472F7
:1031C000697665204D61783A25584D004465616403
:1031D00074696D653A25587000436F6E74726F6C38
:1031E0002050574D3A25584D00504944204D6178A4
:1031F0003A255844005A20506F732E20466173744C
:1032000000035604040052325A20506F73697469E7
:103210006F6E0003550404005A32536574205A3D02
:1032200030005365742050310053657420503200D3
:103230005365742050330043616C63756C61746531
:10324000204C6576656C696E670062326932703257
:1032500077327E3285328C3293329A32A132A83262
:10326000AF32B6320000000000C63200000000009D
:10327000D2320000000000E2320000000000EE3216
:103280000000000000F732000000000007330000DB
:103290000000001733000000000018330000000099
:1032A0000021330000000000313300000000004125
:1032B0003300000000004469732E2041667465727B
:1032C0003A20256973005B6D696E5D20303D4F6665
:1032D00066004469732E2041667465723A20256940
:1032E00070005B6D696E5D20303D4F6666005A3A36
:1032F000257832206D6D004D696E20656E647374A3
:103300006F703A25737A004D617820656E6473742E
:103310006F703A25735A00005A3A257832206D6D45
:10332000004D696E20656E6473746F703A25737A10
:10333000004D617820656E6473746F703A25735A1E
:1033400000000129022904290829102920294029DF
:103350008029012C022C012602260426082610268C
:10336000202640268026402C802C01230223042383
:10337000082310232023402380230120022004203F
:1033800008201020202040208020102C202C012FED
:10339000022F042F082F102F202F402F802F7EFE6A
:1033A0007EFD7EFB7EF77EEF7EDF7EBF7E7F0001AF
:1033B0000000E2331200020000F433430003000077
:1033C000373404010309043B34180203090455345B
:1033D00016030309046D340C0001C102018036019B
:1033E00081361201000202000020C0168304000191
:1033F0000102030109024300020100C03209040076
:103400000001020201000524001001052401000151
:103410000424020605240600010705820308004073
:1034200009040100020A0000000705030240000031
:1034300007058402400000040309041803540065D2
:103440000065006E00730079006400750069006E0D
:10345000006F000000160355005300420020005387
:103460000065007200690061006C0000000C03310F
:103470000032003300340035000000494E46494E0A
:103480004954594E414ECDCCCC3D0AD7233C17B7B9
:10349000D13877CC2B329595E6241FB14F0A000026
:1034A00020410000C84200401C4620BCBE4CCA1B44
:1034B0000E5AAEC59D740785C39B2FBF47E81124E4
:1034C0001FBECFEFD0E2DEBFCDBF12E0A0E0B1E083
:1034D000E4EEF9ED01E00BBF02C007900D92A631BA
:1034E000B107D9F71BBE14E1A6E1B2E001C01D92FD
:1034F000A33DB107E1F714E3CEEBD4E304C0229778
:10350000FE010E94A2ECC63BD107C9F70E9495E6D6
:103510000C94F0EC0C940000A0E0B0E0E2E9FAE1D9
:103520000C94BFECEC015B016115710519F0FB0116
:1035300091838083F9908F2D90E00E94A6EC892BD7
:10354000C9F7FDE2FF1621F4F990EE24E39405C0DB
:103550002BE2F21609F4F990EE248E01015010408E
:10356000C8016BE774E343E050E00E941B1D892B08
:1035700001F58E010E5F1F4FC8016EE774E345E051
:1035800050E00E941B1D892B19F48E01095F1F4F0B
:10359000A114B10419F0F50111830083E0FC04C00B
:1035A00070E090E080E814C070E090E080E86FEF99
:1035B00008C1C80163E874E343E050E00E941B1DAA
:1035C000892B69F4A114B10429F470E090E080EC37
:1035D0006FE7F7C02296F501D183C083F6CF882428
:1035E000992440E050E060E070E0EF2DE053EA30D5
:1035F000A0F5F2E0EF2A8E2D90E09C01287030704B
:10360000E2FE06C0232B79F50894811C911C2BC087
:10361000232B19F0089481089108DB01CA0112E0FC
:10362000880F991FAA1FBB1F1A95D1F7480F591F62
:103630006A1F7B1F440F551F661F771F4E0F511DBA
:10364000611D711D483929E9520729E9620729E1FD
:10365000720748F084E0E82A06C0EE3F31F4E3FC4C
:1036600039C098E0E92AF990C0CFE53311F0E5318F
:1036700089F529912D3219F4E0E1EE2A05C02B32AB
:1036800019F081E090E003C0299182E090E0E22F00
:10369000E053EA3018F0C81BD90B1CC020E030E022
:1036A000FCE020383F075CF4C901880F991F880FA0
:1036B000991F280F391F220F331F2E0F311DE9913B
:1036C000E053EA3068F3E4FE03C0309521953F4FA4
:1036D000820E931ECE2CDD24E1FE07C0A114B1049E
:1036E00021F02197F501D183C083CB01BA010E945B
:1036F000BFE97B018C01F3E0CF22DD2423E0C21679
:10370000D10421F417FB109517F9109557016801A2
:10371000C801B70120E030E040E050E00E941FE91E
:10372000882309F44AC097FE0DC02AE9E22E24E35B
:10373000F22E9094819491089394C0E2D0E000E03E
:1037400010E012C092EBE92E94E3F92EF6CFF701C8
:103750002591359145915491C601B5010E940CEB1C
:103760005B016C018C1A9D0A8C169D0684F7D59519
:10377000C7950F5F1F4F0630110529F08CEF9FEFA3
:10378000E80EF91EF1CFC501D6017C018D018C2D0B
:10379000880F8D2D881F8F3F51F0C601B50120E0A5
:1037A00030E040E050E00E941FE9882331F482E2DB
:1037B00090E09093D2148093D1147E2D9F2D802F72
:1037C000612F272F392F482F562FB901CA01CDB7A6
:1037D000DEB7ECE00C94DBEC2F923F925F926F929D
:1037E0007F928F929F92AF92BF92CF92DF92EF9291
:1037F000FF920F931F93CF93DF938C011B01EA017C
:103800006115710519F0FB0191838083209749F0C0
:10381000CE010297839728F020E030E040E050E0AE
:10382000F6C0F801A1908F018A2D90E00E94A6ECCD
:10383000892BB9F7FDE2AF1631F4F801A1908F01A1
:103840005524539407C0FBE2AF1619F4F801A19078
:103850008F015524209719F0C031D105C1F4F0E350
:10386000AF1679F4F8018081883711F0883549F472
:10387000F801A1800E5F1F4FF2E05F2AC0E1D0E0A7
:1038800006C0209721F480E3A816E9F427C0C830C9
:10389000D10531F1C930D10524F4C230D10531F55B
:1038A0000CC0CA30D10589F0C031D105F9F4C12C62
:1038B000D12CE12CB8E0FB2E28C0C12CD12CE12C5E
:1038C000A0E4FA2E22C0CAE0D0E0FCECCF2EFCEC43
:1038D000DF2EFCECEF2EFCE0FF2E17C0C8E0D0E09E
:1038E000C12CD12CE12CE0E1FE2E0FC09E0144271B
:1038F00037FD4095542F60E070E080E090E80E9432
:1039000057ECC901DA016C017D0120E030E040E0B4
:1039100050E060E03E01882477FC8094982C70EDA4
:10392000B72EBA0CE9E0EB1570F48A2D81548A3178
:1039300018F499ECB92E06C08A2D81568A3150F5BB
:1039400089EAB82EBA0C8B2D90E08C179D0714F5E0
:103950006F3FE1F0C216D306E406F506B0F0CA01E7
:10396000B901A40193010E9404EC9B01AC012B0D51
:10397000311D411D511D2130F0E03F07F0E04F07A0
:10398000F0E85F0710F461E001C06FEFF801A1906B
:103990008F01C5CF2114310481F0662331F001502D
:1039A0001040F1011183008308C051FE1AC002507B
:1039B0001040F1011183008314C067FF12C050FC56
:1039C00005C02FEF3FEF4FEF5FE704C020E030E08E
:1039D00040E050E882E290E09093D2148093D114BA
:1039E00016C050FE08C050954095309521953F4F28
:1039F0004F4F5F4F0CC057FF0AC082E290E0909398
:103A0000D2148093D1142FEF3FEF4FEF5FE7B9014E
:103A1000CA01DF91CF911F910F91FF90EF90DF903E
:103A2000CF90BF90AF909F908F907F906F905F905E
:103A30003F902F900895FB01DC014150504088F0E9
:103A40008D9181341CF08B350CF4805E659161346E
:103A50001CF06B350CF4605E861B611171F3990BE1
:103A60000895881BFCCFFB01DC0102C001900D9280
:103A700041505040D8F70895FB01DC010D90002023
:103A8000E9F7119701900D920020E1F70895FC01EC
:103A90008191861721F08823D9F7992708953197C6
:103AA000CF010895FB01DC018D9101908019011077
:103AB000D9F3990B0895FB01DC0101900D920020D0
:103AC000E1F70895FB01DC014150504048F00190BE
:103AD0000D920020C9F701C01D9241505040E0F7FF
:103AE0000895FC0181E090E00190061609F4CF01F1
:103AF0000020D1F701970895A0E0B0E0E2E8FDE1F1
:103B00000C94C3EC7C01EB018A01690109C0CE0170
:103B10002196F6010995F70181937F01015010402C
:103B200001151105A1F7CDB7DEB7E8E00C94DFEC85
:103B3000BF92CF92DF92EF92FF920F931F937B0180
:103B40008C01FB010995B82EC8010196F701099572
:103B5000C82EC8010296F7010995D82EC801039610
:103B6000F7010995982F6B2D7C2D8D2D1F910F91AD
:103B7000FF90EF90DF90CF90BF900895DF92EF928B
:103B8000FF920F931F937B018C01FB010995D82EA7
:103B9000C8010196F7010995982F8D2D1F910F915E
:103BA000FF90EF90DF900895A0E0B0E0EAEDFDE136
:103BB0000C94C3ECEC017B018A01690109C0CE01C0
:103BC0002196F70161917F01F6010995015010409E
:103BD00001151105A1F7CDB7DEB7E8E00C94DFECD5
:103BE000BF92CF92DF92EF92FF920F931F93D52E49
:103BF000C62EB72E79018C01642FF9010995C801F1
:103C000001966D2DF7010995C80102966C2DF701FB
:103C10000995C80103966B2DF70109951F910F9126
:103C2000FF90EF90DF90CF90BF900895DF92EF92DA
:103C3000FF920F931F93D72E7A018C01FA010995F9
:103C4000C80101966D2DF70109951F910F91FF9005
:103C5000EF90DF9008959C01F999FECF32BD21BD10
:103C6000F89A80B508959C01F999FECF1FBA32BD2C
:103C700021BD60BD0FB6F894FA9AF99A0FBE089567
:103C8000089560911101709112018091130190913A
:103C900014016817790744F47093140160931301B9
:103CA00082E697E00E945C370895AF92BF92CF9270
:103CB000DF92EF92FF920F931F93CF93DF93EC016C
:103CC000893191051CF4C9E1D0E005C0893C91051A
:103CD00014F0C8ECD0E0D0934D10C0934C10E0919C
:103CE0001C02F0911D02E858FF4FA080B180C280F5
:103CF000D380C601B50120E030E040E050E00E94F2
:103D00001FE99E01442737FD4095542F18165CF09B
:103D1000CA01B9010E94C1E92AE037ED43E25CE340
:103D20000E940CEB24C0CA01B9010E94C1E92AE03B
:103D300037ED43E25CE30E940CEB20E030E040E82A
:103D400050E40E940CEB7B018C01C601B501A60179
:103D500095010E940CEB2BED3FE049E450E40E94FA
:103D60000CEB9B01AC01C801B7010E9426E96093EE
:103D7000F0017093F1018093F2019093F30180EBD5
:103D800097E0BE010E945C37DF91CF911F910F91A8
:103D9000FF90EF90DF90CF90BF90AF900895EF929B
:103DA000FF920F931F93CF93DF93EC01893191051D
:103DB0001CF4C9E1D0E006C081E0C53FD80714F08B
:103DC000C4EFD1E0BE01882777FD8095982F0E942F
:103DD000C1E97B018C0160914A1070914B108827DA
:103DE00077FD8095982F0E94C1E99B01AC01C80125
:103DF000B7010E9426E99B01AC01609146107091C9
:103E0000471080914810909149100E940CEB6093EC
:103E10004610709347108093481090934910D093A8
:103E20004B10C0934A1081EA97E0BE010E945C37B4
:103E3000DF91CF911F910F91FF90EF9008950E9415
:103E400038619C0180911101909112012817390766
:103E500024F4309312012093110108950E94A05F71
:103E60000895EF92FF920F931F93DF93CF9300D0AB
:103E700000D0CDB7DEB77B018C016093D20F709379
:103E8000D30F8093D40F9093D50F0E94FD92E982B7
:103E9000FA820B831C8385E793E0BE016F5F7F4F3F
:103EA00044E050E023E33EE10E94D41D8BE295E024
:103EB000B801A70123E00E94B9380E940239282FD7
:103EC000F999FECF88E690E092BD81BDF89A80B561
:103ED000281769F0F999FECF1FBA88E690E092BDE5
:103EE00081BD20BD0FB6F894FA9AF99A0FBE0F90D3
:103EF0000F900F900F90CF91DF911F910F91FF9036
:103F0000EF900895DF93CF9300D000D0CDB7DEB708
:103F10006093321070933310809334109093351067
:103F20000E94FD92409132105091331060913410F4
:103F3000709135108FE395E023E00E94B9388091AD
:103F4000321090913310A0913410B09135108983C4
:103F50009A83AB83BC8385E890E0BE016F5F7F4F9F
:103F600044E050E023E33EE10E94D41D0E94023968
:103F7000282FF999FECF88E690E092BD81BDF89A8E
:103F800080B5281769F0F999FECF1FBA88E690E04E
:103F900092BD81BD20BD0FB6F894FA9AF99A0FBE72
:103FA0000F900F900F900F90CF91DF910895DF93B6
:103FB000CF9300D000D0CDB7DEB760933A107093A6
:103FC0003B1080933C1090933D100E94FD924091D5
:103FD0003A1050913B1060913C1070913D108AE571
:103FE00095E023E00E94B93880913A1090913B10FF
:103FF000A0913C10B0913D1089839A83AB83BC8320
:1040000089E890E0BE016F5F7F4F44E050E023E31A
:104010003EE10E94D41D0E940239282FF999FECF5B
:1040200088E690E092BD81BDF89A80B5281769F0C6
:10403000F999FECF1FBA88E690E092BD81BD20BD00
:104040000FB6F894FA9AF99A0FBE0F900F900F904E
:104050000F90CF91DF910895DF93CF9300D000D0E0
:10406000CDB7DEB760934210709343108093441035
:10407000909345100E94FD92409142105091431040
:10408000609144107091451085E795E023E00E940F
:10409000B9388091421090914310A0914410B09192
:1040A000451089839A83AB83BC838DE890E0BE0181
:1040B0006F5F7F4F44E050E023E33EE10E94D41D58
:1040C0000E940239282FF999FECF88E690E092BD30
:1040D00081BDF89A80B5281769F0F999FECF1FBA0B
:1040E00088E690E092BD81BD20BD0FB6F894FA9AA3
:1040F000F99A0FBE0F900F900F900F90CF91DF9114
:1041000008956F927F928F929F92AF92BF92CF92BB
:10411000DF92EF92FF920F931F93DF93CF9300D024
:1041200000D0CDB7DEB760916010709161108091C2
:104130006210909163102FE632E143E85AE30E9447
:104140000CEB7B018C01CE01019661E870E044E04C
:1041500050E02BE23EE10E947C1DC801B70129819D
:104160003A814B815C810E94BBE8AB01BC0188ECC9
:1041700097E022E00E947D3889EE97E00E94533656
:10418000E0919501F091960163857485858596850A
:1041900020E030E040E751E40E9408EB18160CF4F0
:1041A0007AC06624772443018DE790E06BE27EE1DC
:1041B0000E94981D7B018C01E60CF71C081D191D3F
:1041C000C801B70120E831E541E050E00E9479ECF8
:1041D000922E832E742E652E622F732F842F952F8F
:1041E00020E83EEA4EEF5FEF0E9404EC5B016C01B9
:1041F000AE0CBF1CC01ED11E8AED97E0492D582D74
:10420000672D762D0E94C537C601B50120E13EE03D
:1042100040E050E00E9479EC122F032FF42EE52E9F
:104220008CEE97E0422F502F6F2D7E2D0E94C537C8
:10423000612F702F8F2D9E2D20EF31EF4FEF5FEF0D
:104240000E9404ECA60EB71EC81ED91EC601B501F9
:104250002CE330E040E050E00E9479EC83EF97E0FF
:10426000BA01A9010E94C5378BEF97E00E94613621
:104270000F900F900F900F90CF91DF911F910F91A2
:10428000FF90EF90DF90CF90BF90AF909F908F9076
:104290007F906F9008950FB6F8946091BD1470915F
:1042A000BE148091BF149091C0140FBE20915C1079
:1042B00030915D1040915E1050915F10621B730B46
:1042C000840B950B28EE33E040E050E00E9457EC61
:1042D000C901DA013C014D0167CF2F923F924F9205
:1042E0005F926F927F928F929F92AF92BF92CF9286
:1042F000DF92EF92FF920F931F93DF93CF93CDB78F
:10430000DEB72C970FB6F894DEBF0FBECDBF9A87ED
:104310008987A090510FB090520FC090530FD0904A
:10432000540F6090550F7090560F8090570F9090DB
:10433000580F2090590F30905A0F40905B0F5090BB
:104340005C0FC601B501A60195010E94C3EB88234D
:1043500009F078C01C861B8686017501E89417F960
:10436000C801B7012FEF3FEF4FE75FE70E94C3EBB4
:10437000882351F4C801B7012FEF3FEF4FE75FE704
:104380000E941FE9181624F081E090E09C878B873B
:10439000AB85BC85119709F055C0C401B301A401D8
:1043A00093010E94C3EB882309F04CC01C861B8636
:1043B00084017301E89417F9C801B7012FEF3FEFAB
:1043C0004FE75FE70E94C3EB882351F4C801B701B0
:1043D0002FEF3FEF4FE75FE70E941FE9181624F029
:1043E000E1E0F0E0FC87EB878B859C85019751F538
:1043F000C201B101A20191010E94C3EB882311F512
:104400001C861B8682017101E89417F9C801B70167
:104410002FEF3FEF4FE75FE70E94C3EB882351F494
:10442000C801B7012FEF3FEF4FE75FE70E941FE999
:10443000181624F0A1E0B0E0BC87AB87EB85FC85C3
:10444000319721F089859A850E9466362091790FEF
:1044500030917A0F40917B0F50917C0F80917D0FAE
:1044600090917E0FA0917F0FB091800F8D839E83DE
:10447000AF83B8878091810F9091820FA091830FB5
:10448000B091840F89839A83AB83BC838091FD0EA6
:10449000882359F40F2EF0E0EF2EF0E0FF2EF0E825
:1044A0000F2FFFE31F2FF02D0AC00F2EF0E7EF2E86
:1044B000F2E4FF2EF1E20F2FFDE31F2FF02DC601D6
:1044C000B5010E94BBE8A80197010E940CEBAB016B
:1044D000BC018CE697E022E00E947D388091FD0EC1
:1044E000882359F40F2EF0E0EF2EF0E0FF2EF0E8D5
:1044F0000F2FFFE31F2FF02D0AC00F2EF0E7EF2E36
:10450000F2E4FF2EF1E20F2FFDE31F2FF02DC40187
:10451000B3012D813E814F8158850E94BBE8A801DF
:1045200097010E940CEBAB01BC0183E797E022E00E
:104530000E947D388091FD0E882359F40F2EF0E003
:10454000EF2EF0E0FF2EF0E80F2FFFE31F2FF02DEE
:104550000AC00F2EF0E7EF2EF2E4FF2EF1E20F2F4C
:10456000FDE31F2FF02DC201B10129813A814B815A
:104570005C810E94BBE8A80197010E940CEBAB0193
:10458000BC0187E797E023E00E947D3820914D0F22
:1045900030914E0F40914F0F5091500FA0900A0F45
:1045A000B0900B0FC0900C0FD0900D0F8091FD0EAE
:1045B000882359F40F2EF0E0EF2EF0E0FF2EF0E804
:1045C0000F2FFFE31F2FF02D0AC00F2EF0E7EF2E65
:1045D000F2E4FF2EF1E20F2FFDE31F2FF02DCA01B1
:1045E000B9010E94C1E9A60195010E940CEBA80146
:1045F00097010E940CEBAB01BC018BE797E024E034
:104600000E94B9382C960FB6F894DEBF0FBECDBF0E
:10461000CF91DF911F910F91FF90EF90DF90CF909E
:10462000BF90AF909F908F907F906F905F904F90D2
:104630003F902F9008951F93182F0E94008580911E
:1046400019028823C9F0109219020E9473518091B7
:104650001601815080931601882349F48091150139
:10466000833010F40E94934A85E08093160185E818
:1046700093E1612F0E9406DD1F91089509C00E94F9
:104680003B5C80E00E941B2385E893E10E94EDBE25
:104690008091ED0E882399F70895CF93DF9397FDCE
:1046A00010C0EC018F3F910521F01CF0CFEFD0E05E
:1046B00002C0009731F08091880F88608093880F46
:1046C00007C08091880F877F8093880FC0E0D0E07B
:1046D000662311F00E943E238091070390E0C817E3
:1046E000D907D1F08EEB97E0BE010E945C37809134
:1046F0001602882389F420910703822F90E08C17FB
:104700009D0754F4C535D1053CF4222311F082E015
:1047100001C088E080931602C0930703DF91CF9118
:1047200008952F923F924F925F926F927F928F9255
:104730009F92AF92BF92CF92DF92EF92FF920F9330
:104740001F93DF93CF9300D000D0CDB7DEB75C01CD
:10475000FC01808591858A35910509F4FDC08B3572
:104760009105B8F48430910509F45FC08530910556
:1047700020F4029708F0D6C52DC08531910509F4C3
:10478000A4C08C31910509F4A3C0449709F0CAC5AF
:1047900098C08338910509F480C38438910568F482
:1047A0008C35910509F4F9C08C35910508F4E3C006
:1047B0008436910509F0B6C5B9C18538910509F46B
:1047C000C6C48538910508F4CEC38638910509F032
:1047D000A9C578C5F5018081918192FF11C0868DB0
:1047E000978DA0A1B1A12091860F0097A105B105D9
:1047F00019F0822F806202C0822F8F7D8093860FF6
:10480000C5010E94488A882359F080E061E041E0B8
:104810000E94C67A882321F48FEF94E00E948036AC
:1048200081E061E00E946D7588C50E943E23F5011C
:104830002081318133FD05C060E070E080E090E0D0
:1048400005C0F50162A173A184A195A132FF0BC03F
:10485000F501668D778D80A191A128EE33E040E0CF
:1048600050E00E9404EC0FB6F894E090BD14F09074
:10487000BE140091BF141091C0140FBEE60EF71EB7
:10488000081F191F05C00E943B5C81E00E941B238A
:104890000FB6F8948091BD149091BE14A091BF14EE
:1048A000B091C0140FBE37014801681A790A8A0A0C
:1048B0009B0AD401C30180509449A543B74718F31C
:1048C0003CC581E08093FD0E38C51092FD0E35C5C4
:1048D000F50120813181C90188739070892B11F015
:1048E00080E008C0C90156E0969587955A95E1F792
:1048F0008095817026FF08C010924D0F10924E0FC8
:1049000010924F0F1092500F882321F041E051E098
:1049100061E01EC0F50120813181C901887390706A
:10492000892B09F41CC3C90143E0969587954A95E4
:10493000E1F7582F5170C90134E0969587953A9563
:10494000E1F7682F617025FD02C040E001C041E041
:10495000852F0E94EB9003C310923F0F25E5622E36
:10496000712CA60CB71CF5018081882309F4E5C4DD
:104970008AEE94E00FC081E080933F0F95E5692EA9
:10498000712CA60CB71CF5018081882309F4D5C4CD
:1049900085ED94E00E947336D0C4D090790FE090FA
:1049A0007A0FF0907B0F00917C0F70907D0F8090BC
:1049B0007E0F90907F0FC090800F3090810F4090BD
:1049C000820F5090830F6090840FF501108113FFC8
:1049D00022C022853385448555858091FD0E88232C
:1049E00051F0CA01B90123E333E34BEC51E40E94D7
:1049F0000CEB9B01AC01CA01B9012091510F309120
:104A0000520F4091530F5091540F0E94BAE8D62E86
:104A1000E72EF82E092F14FF23C0F50126853785D0
:104A2000408951898091FD0E882351F0CA01B90156
:104A300023E333E34BEC51E40E940CEB9B01AC010C
:104A4000CA01B9012091550F3091560F4091570F6F
:104A50005091580F0E94BAE8762E872E982EC92EB4
:104A600015FF23C0F5012289338944895589809136
:104A7000FD0E882351F0CA01B90123E333E34BEC67
:104A800051E40E940CEB9B01AC01CA01B9012091D9
:104A9000590F30915A0F40915B0F50915C0F0E945B
:104AA000BAE8362E472E582E692E2D2D3E2D4F2D2D
:104AB000502FB901CA01E72DF82DA92DBC2D9F015A
:104AC000AD01E32DF42DA52DB62D7F018D010E94A2
:104AD0003F83F501808186FF30C426893789408D68
:104AE000518D8091FD0E882351F0CA01B90123E355
:104AF00033E34BEC51E40E940CEB9B01AC01CA0187
:104B0000B9012091AE013091AF014091B0015091B7
:104B1000B1010E940CEB0E948EE960934D0F7093DF
:104B20004E0F80934F0F9093500F07C46090590F12
:104B300070905A0F80905B0F90905C0FC401B3018E
:104B400020913E1030913F10409140105091411003
:104B50000E9426E92DEC3CEC4CEC5DE30E9408EB56
:104B600018162CF48FE994E00E946636E6C3F5012E
:104B700082812081318182FFB6C023FD05C0207370
:104B80003070232B09F403C485E794E061C1C801A8
:104B9000B70120E030E040E050E00E9408EB18163A
:104BA0005CF4C801B70120E030E040E251E40E942B
:104BB0001FE91816F4F00AC0C801B70120E030E080
:104BC00040E251EC0E9408EB88239CF0CE01019654
:104BD00065E773E044E050E02BE23EE10E947C1D7B
:104BE000C801B70129813A814B815C810E94BBE8F1
:104BF00051C08CE494E02CC16091510F7091520F20
:104C00008091530F9091540F20E030E040E050E04D
:104C10000E941FE9882309F063C06091550F7091CD
:104C2000560F8091570F9091580F20E030E040E0F0
:104C300050E00E941FE9882309F052C08091850F3F
:104C400087FF2BC0E090C60FF090C70F0091C80FF0
:104C50001091C90F6091320F7091330F8091340F12
:104C60009091350F0E94BFE99B01AC010E940CEBB3
:104C70009B01AC01C801B7010E94BAE80E9479EB20
:104C80002091060F3091070F4091080F5091090FA6
:104C90000E940CEB0E94311FDDC0E090C60FF09027
:104CA000C70F0091C80F1091C90F2091320F30919A
:104CB000330F4091340F5091350FCA01B9010E9452
:104CC00004ECE61AF70A080B190BC801B7010E9499
:104CD0009E5EA0E0B0E0BC01CD010E94BFE9D0CF54
:104CE00089E194E0B5C023FF39C0F501E284F38483
:104CF00004851585C801B70120E030E040E050E0B0
:104D00000E9408EB18165CF4C801B70120E030E0FF
:104D100040E251E40E941FE918165CF00DC0C80182
:104D2000B70120E030E040E251EC0E9408EB87FF41
:104D300003C0DD24D39413C0C801B701A4019301BB
:104D40000E94BBE820913210309133104091341012
:104D5000509135100E94BBE80E94821FDD24F501AE
:104D6000808184FF38C0E684F78400891189C801F6
:104D7000B70120E030E040E050E00E9408EB181658
:104D80005CF4C801B70120E030E040E251E40E9449
:104D90001FE918165CF00DC0C801B70120E030E033
:104DA00040E251EC0E9408EB87FF03C0DD24D3945E
:104DB00012C0C801B701A40193010E94BBE8209171
:104DC0003A1030913B1040913C1050913D100E94A0
:104DD000BBE80E94D71FF501808185FF35C0E288BE
:104DE000F38804891589C801B70120E030E040E06C
:104DF00050E00E9408EB18165CF4C801B70120E0EF
:104E000030E040E251E40E941FE91816FCF00AC0AD
:104E1000C801B70120E030E040E251EC0E9408EB0D
:104E20008823A4F0C801B701A40193010E94BBE844
:104E30002091421030914310409144105091451000
:104E40000E94BBE80E942C20DD2021F080EF93E03F
:104E50000E94663600D000D080EF93E2A4E7B9E468
:104E6000EDB7FEB781839283A383B483BC01CD01E8
:104E70009B01AC010F2EF0E0EF2EF0E0FF2EF0E4EE
:104E80000F2FF1E41F2FF02D5B016C010E94F285C2
:104E90000F900F900F900F9050C26091510F709132
:104EA000520F8091530F9091540F2091550F3091D4
:104EB000560F4091570F5091580FE090590FF090B6
:104EC0005A0F00915B0F10915C0F6090461070902C
:104ED000471080904810909049100F2EF0E0AF2EB0
:104EE000F0E0BF2EF0E0CF2EF0E0DF2EF02DA0920C
:104EF0005210B0925310C0925410D0925510A092FC
:104F00005610B0925710C0925810D092591000D03D
:104F100000D0A090C201B090C301C090C401D09055
:104F2000C501EDB7FEB7A182B282C382D4820F2E33
:104F3000F0EFAF2EF3E2BF2EF4E7CF2EF9E4DF2E31
:104F4000F02D0E94A48E60924610709247108092BD
:104F50004810909249100F900F900F900F9080E0A2
:104F60000E946083EAC180E00E946D8580E090E04D
:104F7000A0E0B0E08093790F90937A0FA0937B0F1D
:104F8000B0937C0F80937D0F90937E0FA0937F0F43
:104F9000B093800F8093810F9093820FA093830F23
:104FA000B093840F6091CA017091CB018091CC01C4
:104FB0009091CD010E946287C0900610D09007109A
:104FC000E0900810F090091000910A1010910B1059
:104FD00020910C1030910D1040910210509103104F
:104FE0006091041070910510D901C8014801FA2F91
:104FF000EB2F0C151D052E053F052CF4D701C6011E
:105000004601FA2FEB2FC401AF2FBE2F841795074F
:10501000A607B70714F4DB01CA013C014D016C1867
:105020007D088E089F08740163013C014D01601AE0
:10503000710A820A930A1C012D01241A350A460AB4
:10504000570A8EEF99E0B701A6010E94993787E0D1
:105050009AE0B401A3010E94993780E19AE0B2017D
:10506000A1010E949937F5018081918192FF24C1AD
:10507000868D978DA0A1B1A1181619061A061B06D8
:105080000CF01AC18DE793E0B60143E35EE10E94A4
:10509000161E0E940239282FF999FECF88E690E06B
:1050A00092BD81BDF89A80B5281769F0F999FECFB5
:1050B0001FBA88E690E092BD81BD20BD0FB6F8947E
:1050C000FA9AF99A0FBE8FE793E0B30143E35EE1EA
:1050D0000E94161E0E940239282FF999FECF88E6F9
:1050E00090E092BD81BDF89A80B5281769F0F999D2
:1050F000FECF1FBA88E690E092BD81BD20BD0FB6FD
:10510000F894FA9AF99A0FBE81E893E0B10143E36B
:105110005EE10E94161E0E940239282FF999FECFE7
:1051200088E690E092BD81BDF89A80B5281709F411
:10513000C3C0F999FECF1FBA88E690E092BD81BD49
:1051400020BD0FB6F894FA9AF99A0FBEB5C0009137
:10515000850F10E085E0169507958A95E1F70170B7
:1051600080E00E946D851092410F1092420F1092C4
:10517000430F1092440F1092450F1092460F109259
:10518000470F1092480F1092490F10924A0F109239
:105190004B0F10924C0F80E090E0A0E0B0E08093C5
:1051A000790F90937A0FA0937B0FB0937C0F80932D
:1051B0007D0F90937E0FA0937F0FB093800F80930D
:1051C000810F9093820FA093830FB093840F10925E
:1051D0002E0F10922F0F1092300F1092310F10924D
:1051E000320F1092330F1092340F1092350F10922D
:1051F000360F1092370F1092380F1092390F6091BE
:10520000CA017091CB018091CC019091CD010E9497
:10521000628740911E1050911F1060912010709174
:10522000211048515C4F6F4F7F4F80912A10909111
:105230002B10A0912C10B0912D10481B590B6A0B0C
:105240007B0B80910A1090910B10A0910C10B091E3
:105250000D106A017B01C81AD90AEA0AFB0A80917B
:10526000021090910310A0910410B09105104A0112
:105270005B01881A990AAA0ABB0A809106109091CC
:105280000710A0910810B0910910481B590B6A0B28
:105290007B0B8EEF99E00E94993787E09AE0B70187
:1052A000A6010E94993780E19AE0B501A4010E940D
:1052B0009937802F0E946D8581E061E041E00E9476
:1052C000EB903BC040912E0F50912F0F6091300F0B
:1052D0007091310F85EE93E00E94C5374091320FF7
:1052E0005091330F6091340F7091350F8CE098E03E
:1052F0000E94C5374091360F5091370F6091380F9B
:105300007091390F8CE098E00E94993780E00E94FC
:10531000608387ED93E00E94533681ED93E00E9415
:105320006D210BC08091EE0182FF07C081E597E0FF
:105330000E945336C5010E945A5A0FB6F8948091C4
:10534000BD149091BE14A091BF14B091C0140FBEB3
:105350008093FC029093FD02A093FE02B093FF02A3
:105360000F900F900F900F90CF91DF911F910F91A1
:10537000FF90EF90DF90CF90BF90AF909F908F9075
:105380007F906F905F904F903F902F900895F50120
:10539000E6A4F7A400A911A9C801B70120E030E0F4
:1053A00040E050E00E941FE9882309F0F0CB24CCB4
:1053B000EF92FF920F931F93DF93CF930F92CDB78E
:1053C000DEB78DE0898365ECE62E64E1F62EC70139
:1053D0008E010F5F1F4FB80141E050E00E9430E79F
:1053E0008AE08983C701B80141E050E00E9430E7BC
:1053F0000F90CF91DF911F910F91FF90EF90089543
:10540000E0911C02F0911D0244A555A566A577A563
:105410008FE797E022E00E947D38E0911C02F09136
:105420001D0240A951A962A973A98EE997E020E065
:105430000E947D38E0911701EF3F29F4E0911C02B2
:10544000F0911D02E081F0E0EC5FFC4F608186E8A6
:1054500097E070E00E9485370E94D82908953F9216
:105460004F925F926F927F928F929F92AF92BF9274
:10547000CF92DF92EF92FF920F931F93DF93CF9320
:10548000CDB7DEB728970FB6F894DEBF0FBECDBFFD
:105490003C01DC0116968D919C91179788379105F8
:1054A00009F455C78937910508F0A1C082359105E7
:1054B00009F48BC28335910508F048C08B31910502
:1054C00009F4CBC18C319105E0F48731910509F4E1
:1054D0007EC18831910568F48531910509F46BC16D
:1054E0008631910508F06DC1449711F00C94583540
:1054F0005CC18931910509F48AC14A9708F08EC1CF
:1055000080C18032910509F4DBC18132910570F4CC
:105510008D31910511F40C9466358D31910508F4A7
:10552000A2C14E9711F00C945835B1C18A32910541
:1055300009F4DFC18A32910510F40C945835803596
:10554000910510F40C9458350C9466358A36910503
:1055500009F455C68B36910518F58C35910509F47B
:1055600083C28D35910570F48435910509F436C2F6
:105570008435910508F42DC28535910511F00C9400
:1055800058354FC28836910509F40FC38936910505
:1055900008F0D6C38336910511F00C945835B4C287
:1055A0008237910509F48CC68337910570F48D36E6
:1055B000910509F4D1C38F36910509F443C68B36A2
:1055C000910511F00C94583531C68437910509F4D2
:1055D0000FC68437910508F46CC68537910509F428
:1055E00074C68737910511F00C94583584C6B1E024
:1055F0008F329B0711F40C94F433E1E080339E0763
:1056000008F05EC08D3C910511F40C9406338E3C7D
:10561000910508F5893C910509F415C78A3C910567
:1056200070F48E3B910509F4CDC5883C910509F4D1
:105630009AC68C38910511F00C9458353DC38B3CBB
:10564000910509F48DC7D3012D913C918C3C9105B6
:1056500008F098C73FC78C3D910511F40C945E3358
:105660008D3D910588F48F3C910511F40C940D3318
:105670008F3C910510F40C940933813D910511F094
:105680000C9458350C9440338B3F910511F40C94D5
:1056900084338C3F910538F48D3D910511F00C94C5
:1056A00058350C947133B1E089319B0711F40C9497
:1056B000CA338E52914011F00C9458350C94CF336C
:1056C000F1E081399F0711F40C94AF3421E0823965
:1056D000920780F531E08E35930711F40C948B34EA
:1056E00041E08F35940798F451E08134950711F427
:1056F0000C945534A1E082349A0711F40C9476345A
:105700008054914011F00C9458350C944034E1E0F1
:1057100088369E0711F40C94A934F1E080399F0774
:1057200011F40C94AC348356914011F00C9458351C
:105730000C94903431E0863F930711F40C94FD34BF
:1057400041E0873F940798F451E0843F950711F4B6
:105750000C94E634A1E0853F9A0710F00C94EE34E7
:105760008259914011F00C9458350C94B234E2E017
:105770008A359E0711F40C941235F2E08B359F07A1
:1057800038F48955924011F00C9458350C9400353A
:1057900032E08B35930711F40C9454358C589340B8
:1057A00011F00C9458350C94663589EE90E10E9406
:1057B0003C9D0C94663589EE90E10E9458A10C94B2
:1057C000663589EE90E10E94849B0C946635D30186
:1057D0008D919C9197FD02C00C94663589EE90E105
:1057E00060E00E940AADE2E5F0E06E0E7F1ED3019C
:1057F0006D917C9189EE90E140E00E94A59C0C9413
:10580000663589EE90E10E949C9B0C94663589EE8A
:1058100090E160E00E9439A00C946635F30180812C
:10582000918192FD02C00C946635468D578D60A122
:1058300071A180915311882311F40C946635409323
:105840004A1150934B1160934C1170934D1189E2A2
:1058500091E10E949DAA0C94663589EE90E10E9428
:10586000809C0C946635D3018D919C9197FD02C06C
:105870000C946635E2E5F0E06E0E7F1ED3016D916B
:105880007C9189EE90E10E94419C0C946635F30175
:105890008081918197FD02C00C94663589EE90E17C
:1058A00060E00E940AAD22E530E0620E731ED30173
:1058B0006D917C9189EE90E10E94F29B0C9466358B
:1058C000F3018081918197FD02C00C94663589EEC9
:1058D00090E160E00E940AAD22E530E0620E731EA6
:1058E000D3016D917C9189EE90E10E94C89B0C944C
:1058F0006635F3014081518153FD02C00C94663539
:10590000E2A0F3A020E030E0F901EE0FFF1FE05D20
:10591000FD4FE4918E2F90E08E159F0509F44FC046
:105920002F5F3F4F2433310579F7F7FC48C052FF12
:1059300032C0F301868D978DA0A1B1A18F3F910553
:10594000A105B10509F008F58E2D0E94D3E0D30121
:105950005E969C915E975F962C91EE2DF0E0092E5D
:105960000E9442E18E2D692F722F0E94C5E38BE2C7
:1059700098E0B7010E948537F301668D778D84E446
:1059800098E00E945C370C94663586E593E00E94AF
:1059900066360C9466358E2D0E940CE184E498E006
:1059A000B7010E948537EE2DF0E00E943EE289E4C7
:1059B00098E06E2F70E00E945C370C94663580E2B0
:1059C00093E00E9466360C9466351092400F0C945A
:1059D000663581E08093400F0C946635D3018D913C
:1059E0009C91119792FF16C05E966D917D918D915D
:1059F0009C91919728EE33E040E050E00E9404EC47
:105A0000609398017093990180939A0190939B0100
:105A10000C9466350E943E2381E00E944E920C94C5
:105A20006635F3018081918192FF14C0668D778D78
:105A300080A191A128EE33E040E050E00E9404EC08
:105A40006093000370930103809302039093030318
:105A50000C94663510920003109201031092020319
:105A6000109203030C946635D3018C9183FF0EC012
:105A70001A968D919D910D90BC91A02D8093A201BD
:105A80009093A301A093A401B093A501F301808199
:105A900084FF0CC086859785A089B1898093A60173
:105AA0009093A701A093A801B093A901D3018C9171
:105AB00085FF0EC052968D919D910D90BC91A02DA9
:105AC0008093AA019093AB01A093AC01B093AD0178
:105AD0000E94FD92F301808186FD02C00C94663520
