:100000000C94AA0D0C94D50D0C94D50D0C94D50D13
:100010000C94D50D0C94D50D0C94D50D0C94D50DD8
:100020000C94D50D0C94D50D0C94A2A30C941BA28A
:100030000C94D50D0C94D50D0C94D50D0C94D50DB8
:100040000C94D50D0C94834B0C94D50D0C94D50DBC
:100050000C94D50D0C94D50D0C94C34A0C94DEA0D1
:100060000C94D50D0C94D50D0C94D50D0C94D50D88
:100070000C94D50D0C94D50D0C94D50D0C94D50D78
:100080000C94D50D0C94D50D0C94D50D0C94D50D68
:100090000C94D50D0C94D50D084AD73B3BCE016E80
:1000A00084BCBFFDC12F3D6C74319ABD56833DDACF
:1000B0003D00C77F11BED9E4BB4C3E916BAAAABEDE
:1000C000000000803F05A84CCDB2D44EB93836A907
:1000D000020C50B9918688083CA6AAAA2ABE000044
:1000E00000803F000001001C001D001300FFFF1AEC
:1000F000001E001F001200FFFF1B00200021001146
:1001000000FFFF2400FFFFFFFF0F000E0010002282
:100110000023000D000700060026004E6F6E6C697C
:100120006E2E20706F736974696F6E2073746570C2
:10013000733A00506F736974696F6E2073746570E1
:10014000733A0043757272656E7420706F736974D0
:10015000696F6E3A004C61737420636F6D6D616EF0
:1001600064656420706F736974696F6E3A005365DB
:1001700074204D6963726F7374657070696E670087
:10018000506F7346726F6D53746570733A005265A9
:10019000616C44656C74613A00436F6D7044656CCA
:1001A00074613A004649524D574152455F4E414DA8
:1001B000453A52657065746965725F302E39312039
:1001C0004649524D574152455F55524C3A687474F6
:1001D00070733A2F2F6769746875622E636F6D2F85
:1001E00072657065746965722F52657065746965B2
:1001F000722D4669726D776172652F2050524F548F
:100200004F434F4C5F56455253494F4E3A312E3073
:10021000204D414348494E455F545950453A446545
:100220006C74612045585452554445525F434F55B4
:100230004E543A312052455045544945525F505230
:100240004F544F434F4C3A320044656275673A0051
:100250006F6B000D0A004E414E00494E460045723C
:10026000726F723A00496E666F3A005761726E693A
:100270006E673A00526573656E643A004563686F55
:100280003A006F6B200057726F6E6720636865637A
:100290006B73756D004D697373696E672063686574
:1002A000636B73756D00466F726D61742065727259
:1002B0006F7200446F6E65207072696E74696E674C
:1002C0002066696C6500205800205900205A0020E3
:1002D0004500204600205300205000204900204ABD
:1002E0000020520053442072656164206572726F71
:1002F00072004572726F723A6578706563746564F6
:10030000206C696E65200020676F742000736B6934
:10031000702000424C4B2000737461727400506F67
:1003200077657255700045787465726E616C205205
:10033000657365740042726F776E206F757420521A
:1003400065736574005761746368646F67205265F4
:1003500073657400536F66747761726520526573BC
:10036000657400556E6B6E6F776E20636F6D6D6197
:100370006E643A00467265652052414D3A00583A23
:100380000020583A0020593A00205A3A0020453AB5
:1003900000543A0020423A0020403A002054002005
:1003A00040002042403A0020524157003A002F00BE
:1003B000202F0053706565644D756C7469706C799D
:1003C0003A00466C6F774D756C7469706C793A00C1
:1003D00046616E73706565643A005072696E74654B
:1003E000642066696C616D656E743A005072696E66
:1003F00074696E672074696D653A006D2000206431
:10040000617973200020686F7572732000206D6918
:100410006E00496E76616C696420617263002C0025
:100420002000593A005A3A0045303A0045313A0026
:100430004D53312C4D53322050696E730053657407
:10044000206F7574707574200020746F2000482030
:10045000004C2000785F6D696E3A00785F6D6178BE
:100460003A00795F6D696E3A00795F6D61783A00A4
:100470007A5F6D696E3A007A5F6D61783A004A651D
:10048000726B3A00205A4A65726B3A00206C696EB2
:100490006561722073746570733A002071756164D0
:1004A00072617469632073746570733A002C2073F1
:1004B000706565643D00454550524F4D2075706430
:1004C00061746564006C696E656172204C3A00204D
:1004D000717561647261746963204B3A004D6561A6
:1004E000737572656D656E742072657365742E0028
:1004F0004D6561737572652F64656C746120285356
:100500007465707329203D004D6561737572652FA8
:1005100064656C7461203D004D656173757265643E
:10052000206F726967696E207365742E204D656156
:10053000737572656D656E742072657365742E00D7
:100540004F726967696E206D6561737572656D655F
:100550006E742063616E6E6F7420626520736574C3
:100560002E2020557365206F6E6C79205A2D4361C3
:100570007274657369616E2028737472616967684B
:100580007420757020616E6420646F776E29206D11
:100590006F76656D656E747320616E642074727918
:1005A00020616761696E2E00496E76616C69642016
:1005B00064656C746120636F6F7264696E617465E9
:1005C000202D206D6F76652069676E6F72656400FF
:1005D0004C6576656C696E672063616C633A0054A4
:1005E0006F77657220313A00546F77657220323A26
:1005F00000546F77657220333A00416C7068612057
:100600004128323130293A00416C7068612042281B
:10061000333330293A00416C706861204328393007
:10062000293A0044656C74612052616469757320D5
:10063000412830293A0044656C7461205261646934
:10064000757320422830293A0044656C7461205249
:10065000616469757320432830293A004E6F206D1C
:100660006F766520696E2064656C746120736567C0
:100670006D656E742077697468203E203120736543
:10068000676D656E742E20546869732073686F758A
:100690006C64206E657665722068617070656E208E
:1006A000616E64206D6179206361757365206120DE
:1006B00070726F626C656D2100546172676574457C
:1006C000787472005461726765744265643A0050D0
:1006D0004944204175746F74756E6520737461723E
:1006E000740020626961733A200020643A2000207F
:1006F0006D696E3A2000206D61783A2000204B75BC
:100700003A20002054753A200020436C61737369CD
:10071000632050494400204B703A2000204B693A36
:100720002000204B643A2000504944204175746FEA
:1007300074756E65206661696C6564212054656D11
:10074000706572617475726520746F20686967687E
:1007500000504944204175746F74756E6520666160
:10076000696C6564212074696D656F75740050490A
:1007700044204175746F74756E652066696E697387
:10078000686564202120506C616365207468652071
:100790004B702C204B6920616E64204B6420636F8A
:1007A0006E7374616E747320696E20746865204383
:1007B0006F6E66696775726174696F6E2E68206FFF
:1007C0007220454550524F4D004D54454D503A0012
:1007D000686561746564206265640065787472752B
:1007E00064657220003A2074656D702073656E73C5
:1007F0006F7220646566656374003A20776F726B70
:10080000696E67005072696E74657220736574203A
:10081000696E746F206472792072756E206D6F64DA
:100820006520756E74696C207265737461727421D1
:10083000004175746F6C6576656C696E6720656ED6
:1008400061626C6564004175746F6C6576656C6996
:100850006E672064697361626C6564005A2D707202
:100860006F6265206661696C6564005A2D70726FF5
:100870006265206D61783A005072696E746572200D
:100880006865696768743A007761697400417574D6
:100890006F6C6576656C20616374697665202831BC
:1008A0002F302900436F6E66696775726174696FD6
:1008B0006E2073746F72656420746F2045455052CA
:1008C0004F4D2E00436F6E66696775726174696F74
:1008D0006E206C6F616465642066726F6D204545A3
:1008E00050524F4D2E00436F6E666967757261748A
:1008F000696F6E20726573657420746F206465661D
:1009000061756C74732E0050726F746F636F6C201E
:1009100076657273696F6E206368616E6765642CBB
:1009200020757067726164696E6700457874722E15
:10093000004550523A3020004550523A312000458F
:1009400050523A3220004550523A332000426175ED
:1009500064726174650046696C616D656E742070C7
:1009600072696E746564205B6D5D005072696E74AF
:10097000657220616374697665205B735D004D610B
:10098000782E20696E6163746976652074696D657F
:10099000205B6D732C303D6F66665D0053746F7025
:1009A0002073746570706572206166746572206969
:1009B0006E6163746976697479205B6D732C303D68
:1009C0006F66665D005820686F6D6520706F7320DC
:1009D0005B6D6D5D005920686F6D6520706F7320D1
:1009E0005B6D6D5D005A20686F6D6520706F7320C0
:1009F0005B6D6D5D0058206D6178206C656E67746D
:100A000068205B6D6D5D0059206D6178206C656EAE
:100A1000677468205B6D6D5D005A206D6178206C95
:100A2000656E677468205B6D6D5D00582062616360
:100A30006B6C617368205B6D6D5D00592062616352
:100A40006B6C617368205B6D6D5D005A2062616341
:100A50006B6C617368205B6D6D5D004D61782E205D
:100A60006A65726B205B6D6D2F735D00416363651A
:100A70006C65726174696F6E205B6D6D2F735E3291
:100A80005D0054726176656C20616363656C6572AC
:100A90006174696F6E205B6D6D2F735E325D005304
:100AA0007465707320706572206D6D004D61782ED5
:100AB000206665656472617465205B6D6D2F735D82
:100AC00000486F6D696E6720666565647261746564
:100AD000205B6D6D2F735D00446961676F6E616CA3
:100AE00020726F64206C656E677468205B6D6D5D4D
:100AF00000486F72697A6F6E74616C20726164690C
:100B00007573205B6D6D5D005365676D656E747305
:100B10002F7320666F72207072696E74696E670041
:100B20005365676D656E74732F7320666F722074E2
:100B3000726176656C00546F776572205820656E1F
:100B40006473746F70206F6666736574205B737472
:100B50006570735D00546F776572205920656E640F
:100B600073746F70206F6666736574205B73746551
:100B700070735D00546F776572205A20656E6473E0
:100B8000746F70206F6666736574205B7374657034
:100B9000735D004D61782E20726164697573205B0E
:100BA0006D6D5D00436F72722E20646961676F6EB8
:100BB000616C2041205B6D6D5D00436F72722E2071
:100BC000646961676F6E616C2042205B6D6D5D00D2
:100BD000436F72722E20646961676F6E616C20438F
:100BE000205B6D6D5D004F5053206F7065726174B6
:100BF000696F6E206D6F6465205B303D4F66662CBB
:100C0000313D436C61737369632C323D466173748B
:100C10005D004F5053206D6F76652061667465727C
:100C20002078252072657472616374205B255D00F5
:100C30004F5053206D696E2E2064697374616E632A
:100C40006520666F722066696C2E20726574726111
:100C50006374696F6E205B6D6D5D004F5053207241
:100C6000657472616374696F6E206C656E67746819
:100C7000205B6D6D5D004F5053207265747261632F
:100C800074696F6E206261636B6C617368205B6D69
:100C90006D5D004265642048656174204D616E6140
:100CA000676572205B302D335D00426564205049DA
:100CB00044206472697665206D6178004265642025
:100CC000504944206472697665206D696E00426502
:100CD000642050494420502D6761696E004265646C
:100CE0002050494420492D6761696E0042656420A7
:100CF00050494420442D6761696E0042656420506C
:100D00004944206D61782076616C7565205B302DDB
:100D10003235355D00737465707320706572206DB7
:100D20006D006D61782E2066656564726174652062
:100D30005B6D6D2F735D0073746172742066656501
:100D40006472617465205B6D6D2F735D0061636318
:100D5000656C65726174696F6E205B6D6D2F735E7B
:100D6000325D0068656174206D616E616765722037
:100D70005B302D335D0050494420647269766520F4
:100D80006D617800504944206472697665206D6910
:100D90006E0050494420502D6761696E2F64656173
:100DA000642D74696D650050494420492D6761695F
:100DB0006E0050494420442D6761696E00504944DB
:100DC000206D61782076616C7565205B302D323541
:100DD000355D00582D6F6666736574205B737465AE
:100DE00070735D00592D6F6666736574205B737454
:100DF0006570735D0074656D702E20737461626937
:100E00006C697A652074696D65205B735D0074653B
:100E10006D702E20666F72207265747261637469E2
:100E20006F6E207768656E2068656174696E6720F3
:100E30005B435D0064697374616E636520746F2049
:100E400072657472616374207768656E206865618D
:100E500074696E67205B6D6D5D0065787472756492
:100E6000657220636F6F6C657220737065656420B6
:100E70005B302D3235355D00616476616E636520CF
:100E80004B205B303D6F66665D00616476616E632A
:100E900065204C205B303D6F66665D005344204307
:100EA0006172642072656D6F7665640053442043FF
:100EB00061726420696E73657274656400534420C6
:100EC000696E6974206661696C006572726F722068
:100ED00077726974696E6720746F2066696C65004B
:100EE000426567696E2066696C65206C6973740081
:100EF000456E642066696C65206C69737400466990
:100F00006C65206F70656E65643A002053697A6580
:100F10003A0046696C652073656C656374656400AE
:100F200066696C652E6F70656E206661696C6564BC
:100F3000005344207072696E74696E672062797420
:100F40006520004E6F74205344207072696E74697E
:100F50006E67006F70656E206661696C65642C2039
:100F600046696C653A200057726974696E6720742F
:100F70006F2066696C653A2000446F6E652073616E
:100F800076696E672066696C652E0046696C65201F
:100F900064656C657465640044656C6574696F6E46
:100FA000206661696C6564004469726563746F7280
:100FB0007920637265617465640043726561746968
:100FC0006F6E206661696C656400534420657272BF
:100FD0006F72436F64653A0007061C151C141E00EF
:100FE000002243141F1F00107010C410341184110C
:100FF00000000000FC1184129013E0135C14000048
:101000000000A00F5C006009690010097900C008A9
:101010008C007008A2002008BD00D007DE00800709
:10102000050130073401E0066D019006B20140066B
:101030000702F0056D02A005E80250057B030005DC
:101040002B04B004F8046004EB06C0033509200348
:101050007F0B8002650DE001B00E40011D0FF00016
:10106000480FC8006C0FA000ED0F60FFFE0F48FE98
:101070000400801AD8009808AC01200780025006AE
:101080005403C80528045805FC040005D005B00425
:10109000A4066804780728044C08E8032009B00374
:1010A000F4097003C80A38039C0BF802700CB002F4
:1010B000440D6802180E0802EC0E8801C00F88006B
:1010C000F00F00000400001B5400600964001009C8
:1010D0007400C008840070089C002008B800D00785
:1010E000D8008007000130072C01E0066801900657
:1010F000AC0140060002F0056802A005E0025005C0
:10110000740300052404B004F0046004DC0510043A
:10111000E406C0030408700330092003780B800242
:10112000600DE001A80E4001680FA000C00F000094
:10113000E80F60FF0400700DD8004804AC015803AC
:101140008002D8025403800228043802FC04000202
:10115000D005C801A4069801780770014C08480121
:1011600020091801F409F000C80AC8009C0BA0006F
:10117000700C7000440D3800180E0000EC0EA8FF33
:10118000C00FE8FE0400304D900098101C01900C38
:10119000A801A80A34027809C00298084C03E8079D
:1011A000D80360076404E806F00480067C05200686
:1011B0000806C8059406780520073005AC07E80442
:1011C0003808A804C408680450092804DC09F0039E
:1011D000680AB003F40A7003800B30030C0CF002B1
:1011E000980CB002240D6802B00D18023C0EB80134
:1011F000C80E4801540FA800E00F58FF0000401F20
:10120000450060094F0010095C00C0086B007008C1
:101210007D0020089200D007AC008007CC0030078A
:10122000DE00E006230190065E014006A601F005FF
:10123000FF01A0056D025005F30200059603B004FE
:101240005A046004400510044806C0036E0770038A
:10125000A8082003EB09D002230B8002410C3002C6
:10126000390DE001040E9001A20E4001170FF000AD
:10127000690FA000A20F5000C60F0000DD0FB0FFE5
:10128000EB0F60FF0400681D4C00500B94005809E0
:10129000DC0050082401A8076C012807B401C0062F
:1012A000FC017006440228068C02F005D402B80541
:1012B0001C03880564035805AC033005F4031005CE
:1012C0003C04E8048404C804CC04A8041405900475
:1012D0005C057004A4055804EC05380434062004A9
:1012E0007C060804C406F0030C07D8035407C8039F
:1012F0009C07B003E40798032C088003740870036C
:10130000BC085803040948034C0930039409180326
:10131000DC090803240AF0026C0AE002B40AC802DD
:10132000FC0AB002440BA0028C0B8802D40B7002A2
:101330001C0C5802640C4002AC0C2802F40C100285
:101340003C0DF001840DD801CC0DB801140E9801AC
:101350005C0E7001A40E4801EC0E1801340FD80089
:101360007C0F8800C40F0800FC0F00000000000084
:10137000000000000000000000000000000000006D
:10138000000000000000000000000000000000005D
:1013900004000016D800C006AC0178058002C00425
:1013A000540348042804E803FC049803D0055003C0
:1013B000A40618037807D8024C08A8022009700276
:1013C000F4093802C80A08029C0BD001700C900185
:1013D000440D5001180EF800EC0E8800C00F0000FC
:1013E0000400401D900060091C01B007A801D00650
:1013F00034023806C002C8054C036805D803180536
:101400006404D804F00498047C05600408063004E1
:10141000940600042007D003AC07A8033808800313
:10142000C408580350093003DC090803680AE002C5
:10143000F40AB802800B88020C0C6002980C30028F
:10144000240DF801B00DC0013C0E8001C80E300122
:10145000540FB800B40F2800E00F00000400081D6E
:10146000900058091C01B007A801C80634023006D4
:10147000C002C0054C036805D80318056404D004F5
:10148000F00498047C056004080630049406000407
:101490002007D003AC07A80338088003C40858030A
:1014A00050093003DC090803680AD802F40AB002C4
:1014B000800B88020C0C6002980C3002240DF8019D
:1014C000B00DC0013C0E8001C80E3001540FB800B1
:1014D000B40F2800E00F00005344206572726F7251
:1014E00020646964206E6F74207265636F76657224
:1014F000210042696E6172793A00436F6D6D616ED1
:10150000644275666665720000000000000000001D
:10151000000000000000000024F403D950C38EB185
:10152000C2A23D96828B3582127AE372816CCB66C1
:10153000A861015DC758EB546151204E1E4B5648BF
:10154000C14559431A41013F093D2F3B7139CD3700
:101550004036C93465331432D430A32F802E6B2D1E
:10156000632C672B752A8E29B028DC2710274B2681
:101570008F25D9242B248223E0224322AC211A2157
:101580008D200420801F001F841E0C1E971D261D09
:10159000B81C4E1CE61B821B201BC11A641A0A1AB7
:1015A000B2195D190A19B9186A181C18D1178817C9
:1015B0004017FA16B51673163116F115B3157615D0
:1015C0003A150015C7148F1458142214EE13BA13C9
:1015D000881356132513F612C71299126C12401273
:1015E0001512EB11C1119811701148112111FB1046
:1015F000D610B1108D106910461024100210E10FA2
:10160000C00FA00F800F610F420F230F060FE80ECF
:10161000CB0EAF0E930E770E5C0E410E270E0D0E05
:10162000F30DDA0DC10DA80D900D780D600D490D6B
:10163000320D1B0D050DEF0CD90CC30CAE0C990C23
:10164000850C700C5C0C480C350C210C0E0CFB0B43
:10165000E80BD60BC40BB20BA00B8E0B7D0B6B0BE8
:101660005A0B4A0B390B290B180B080BF80AE90A1D
:10167000D90ACA0ABB0AAC0A9D0A8E0A800A710AF4
:10168000630A550A470A390A2C0A1E0A110A040A73
:10169000F709EA09DD09D009C409B709AB099F09AF
:1016A000920987097B096F09630958094C094109A7
:1016B00036092B09200915090A090009F508EB0864
:1016C000E008D608CC08C208B808AE08A4089A08F2
:1016D000900887087D0874086B08610858084F084F
:1016E00046083D0834082C0823081A08120809087F
:1016F0000108F807F007E807E007D807D007C80790
:10170000C007B807B007A807A1070000420FA1074C
:101710001605D0030D038B022E02E801B2018601EB
:10172000630145012C0117010401F40000002110A0
:10173000422063308440A550C660E770088129913B
:101740004AA16BB18CC1ADD1CEE1EFF131121002E3
:1017500073325222B5529442F772D662399318838B
:101760007BB35AA3BDD39CC3FFF3DEE362244334AF
:1017700020040114E664C774A44485546AA54BB5DB
:1017800028850995EEE5CFF5ACC58DD55336722683
:1017900011163006D776F6669556B4465BB77AA72B
:1017A00019973887DFF7FEE79DD7BCC7C448E558CF
:1017B0008668A7784008611802282338CCC9EDD97B
:1017C0008EE9AFF9488969990AA92BB9F55AD44A23
:1017D000B77A966A711A500A333A122AFDDBDCCBCB
:1017E000BFFB9EEB799B588B3BBB1AABA66C877CEF
:1017F000E44CC55C222C033C600C411CAEED8FFD1B
:10180000ECCDCDDD2AAD0BBD688D499D977EB66EC2
:10181000D55EF44E133E322E511E700E9FFFBEEF6A
:10182000DDDFFCCF1BBF3AAF599F788F8891A9812C
:10183000CAB1EBA10CD12DC14EF16FE18010A10016
:10184000C230E3200450254046706760B983989306
:10185000FBA3DAB33DC31CD37FE35EF3B102901266
:10186000F322D2323542145277625672EAB5CBA5D2
:10187000A89589856EF54FE52CD50DC5E234C324B6
:10188000A01481046674476424540544DBA7FAB7A6
:101890009987B8975FE77EF71DC73CD7D326F23606
:1018A0009106B01657667676154634564CD96DC9F2
:1018B0000EF92FE9C899E9898AB9ABA94458654856
:1018C00006782768C018E1088238A3287DCB5CDB46
:1018D0003FEB1EFBF98BD89BBBAB9ABB754A545AA6
:1018E000376A167AF10AD01AB32A923A2EFD0FED12
:1018F0006CDD4DCDAABD8BADE89DC98D267C076CF6
:10190000645C454CA23C832CE01CC10C1FEF3EFFE5
:101910005DCF7CDF9BAFBABFD98FF89F176E367E45
:10192000554E745E932EB23ED10EF01E7C3C3E5E50
:101930002B3D3F2F5B5D3B2C2A225C004E6F2065C8
:1019400072726F7220666F756E642E0043616E272F
:1019500074206F70656E20726F6F74206469726599
:1019600063746F72792E00496E76616C69642066CB
:101970006F726D61742C207265666F726D61742078
:1019800053442E004E6F20636172642C2077726F77
:101990006E6720636869702073656C65637420707E
:1019A000696E2C206F72205350492070726F626CE8
:1019B000656D3F0043616E277420616363657373D7
:1019C00020534420636172642E20446F206E6F7434
:1019D000207265666F726D61742E00012902290400
:1019E0002908291029202940298029012C022C01AD
:1019F0002602260426082610262026402680264079
:101A00002C802C01230223042308231023202340AD
:101A100023802301200220042008201020202040C1
:101A2000208020102C202C012F022F042F082F1093
:101A30002F202F402F802F7EFE7EFD7EFB7EF77EA7
:101A4000EF7EDF7EBF7E7F000100007B1A12000266
:101A500000008D1A4300030000D01A04010309049A
:101A6000D41A1802030904EE1A1603030904061B0C
:101A70000C0001C102018036018136120100020210
:101A8000000020C016830400010102030109024383
:101A900000020100C0320904000001020201000539
:101AA0002400100105240100010424020605240677
:101AB00000010705820308004009040100020A0032
:101AC00000000705030240000007058402400000F3
:101AD0000403090418035400650065006E007300D8
:101AE00079006400750069006E006F000000160345
:101AF0005500530042002000530065007200690049
:101B000061006C0000000C0331003200330034002F
:101B100035000000494E46494E4954594E414ECD7C
:101B2000CCCC3D0AD7233C17B7D13877CC2B329594
:101B300095E6241FB14F0A000020410000C8420072
:101B4000401C4620BCBE4CCA1B0E5AAEC59D74003C
:101B50009B80D3A511241FBECFEFD0E2DEBFCDBF47
:101B600012E0A0E0B1E0E2E0F7E501E00BBF02C067
:101B700007900D92AE33B107D9F71BBE13E1AEE368
:101B8000B2E001C01D92AC3BB107E1F71BE1C4E537
:101B9000DBE104C02297FE010E9431ABC035D107C2
:101BA000C9F70E9421A40C947FAB0C940000A0E024
:101BB000B0E0EDEDFDE00C944EABEC015B01611586
:101BC000710519F0FB0191838083F9908F2D90E0CE
:101BD0000E9435AB892BC9F7FDE2FF1621F4F9907D
:101BE000EE24E39405C02BE2F21609F4F990EE24FA
:101BF0008E0101501040C80164E17BE143E050E0F8
:101C00000E946610892B01F58E010E5F1F4FC801DF
:101C100067E17BE145E050E00E946610892B19F4F2
:101C20008E01095F1F4FA114B10419F0F501118352
:101C30000083E0FC04C070E090E080E814C070E035
:101C400090E080E86FEF08C1C8016CE17BE143E000
:101C500050E00E946610892B69F4A114B10429F4A4
:101C600070E090E080EC6FE7F7C02296F501D18339
:101C7000C083F6CF8824992440E050E060E070E013
:101C8000EF2DE053EA30A0F5F2E0EF2A8E2D90E040
:101C90009C0128703070E2FE06C0232B79F5089471
:101CA000811C911C2BC0232B19F0089481089108EA
:101CB000DB01CA0112E0880F991FAA1FBB1F1A95EA
:101CC000D1F7480F591F6A1F7B1F440F551F661F0E
:101CD000771F4E0F511D611D711D483929E95207AB
:101CE00029E9620729E1720748F084E0E82A06C082
:101CF000EE3F31F4E3FC39C098E0E92AF990C0CF17
:101D0000E53311F0E53189F529912D3219F4E0E13F
:101D1000EE2A05C02B3219F081E090E003C0299132
:101D200082E090E0E22FE053EA3018F0C81BD90BB4
:101D30001CC020E030E0FCE020383F075CF4C90123
:101D4000880F991F880F991F280F391F220F331FE3
:101D50002E0F311DE991E053EA3068F3E4FE03C031
:101D6000309521953F4F820E931ECE2CDD24E1FE4F
:101D700007C0A114B10421F02197F501D183C083DC
:101D8000CB01BA010E94ADA77B018C01F3E0CF2209
:101D9000DD2423E0C216D10421F417FB109517F9B6
:101DA000109557016801C801B70120E030E040E01C
:101DB00050E00E940DA7882309F44AC097FE0DC089
:101DC00023E3E22E2BE1F22E9094819491089394D8
:101DD000C0E2D0E000E010E012C09BE4E92E9BE1FD
:101DE000F92EF6CFF7012591359145915491C60111
:101DF000B5010E94BDA95B016C018C1A9D0A8C166D
:101E00009D0684F7D595C7950F5F1F4F06301105C6
:101E100029F08CEF9FEFE80EF91EF1CFC501D60136
:101E20007C018D018C2D880F8D2D881F8F3F51F0E7
:101E3000C601B50120E030E040E050E00E940DA76F
:101E4000882331F482E290E09093BB138093BA131D
:101E50007E2D9F2D802F612F272F392F482F562F12
:101E6000B901CA01CDB7DEB7ECE00C946AAB2F9292
:101E70003F925F926F927F928F929F92AF92BF92AA
:101E8000CF92DF92EF92FF920F931F93CF93DF9346
:101E90008C011B01EA016115710519F0FB019183A9
:101EA0008083209749F0CE010297839728F020E0A5
:101EB00030E040E050E0F6C0F801A1908F018A2D9B
:101EC00090E00E9435AB892BB9F7FDE2AF1631F4F3
:101ED000F801A1908F015524539407C0FBE2AF167F
:101EE00019F4F801A1908F015524209719F0C03101
:101EF000D105C1F4F0E3AF1679F4F8018081883799
:101F000011F0883549F4F801A1800E5F1F4FF2E00F
:101F10005F2AC0E1D0E006C0209721F480E3A81634
:101F2000E9F427C0C830D10531F1C930D10524F416
:101F3000C230D10531F50CC0CA30D10589F0C031AD
:101F4000D105F9F4C12CD12CE12CB8E0FB2E28C02E
:101F5000C12CD12CE12CA0E4FA2E22C0CAE0D0E0A2
:101F6000FCECCF2EFCECDF2EFCECEF2EFCE0FF2E89
:101F700017C0C8E0D0E0C12CD12CE12CE0E1FE2E4E
:101F80000FC09E01442737FD4095542F60E070E05C
:101F900080E090E80E94E6AAC901DA016C017D01A7
:101FA00020E030E040E050E060E03E01882477FC33
:101FB0008094982C70EDB72EBA0CE9E0EB1570F414
:101FC0008A2D81548A3118F499ECB92E06C08A2DD5
:101FD00081568A3150F589EAB82EBA0C8B2D90E0E3
:101FE0008C179D0714F56F3FE1F0C216D306E40687
:101FF000F506B0F0CA01B901A40193010E9493AAA9
:102000009B01AC012B0D311D411D511D2130F0E014
:102010003F07F0E04F07F0E85F0710F461E001C010
:102020006FEFF801A1908F01C5CF2114310481F029
:10203000662331F001501040F1011183008308C084
:1020400051FE1AC002501040F1011183008314C0E8
:1020500067FF12C050FC05C02FEF3FEF4FEF5FE767
:1020600004C020E030E040E050E882E290E090934D
:10207000BB138093BA1316C050FE08C0509540950C
:10208000309521953F4F4F4F5F4F0CC057FF0AC00F
:1020900082E290E09093BB138093BA132FEF3FEF4F
:1020A0004FEF5FE7B901CA01DF91CF911F910F9107
:1020B000FF90EF90DF90CF90BF90AF909F908F9068
:1020C0007F906F905F903F902F900895FB01DC010F
:1020D0004150504088F08D9181341CF08B350CF4C8
:1020E000805E659161341CF06B350CF4605E861B7C
:1020F000611171F3990B0895881BFCCFFB01DC0182
:1021000002C001900D9241505040D8F70895FB0154
:10211000DC010D900020E9F7119701900D9200204D
:10212000E1F70895FC018191861721F08823D9F702
:10213000992708953197CF010895FB01DC018D9116
:10214000019080190110D9F3990B0895FB01DC016E
:1021500001900D920020E1F70895FB01DC01415050
:10216000504048F001900D920020C9F701C01D9227
:1021700041505040E0F70895FC0181E090E001906B
:10218000061609F4CF010020D1F701970895A0E0C9
:10219000B0E0EDECF0E10C9452AB7C01EB018A0174
:1021A000690109C0CE012196F6010995F7018193D5
:1021B0007F010150104001151105A1F7CDB7DEB721
:1021C000E8E00C946EABBF92CF92DF92EF92FF9259
:1021D0000F931F937B018C01FB010995B82EC80159
:1021E0000196F7010995C82EC8010296F7010995D5
:1021F000D82EC8010396F7010995982F6B2D7C2DD9
:102200008D2D1F910F91FF90EF90DF90CF90BF9099
:102210000895DF92EF92FF920F931F937B018C0141
:10222000FB010995D82EC8010196F7010995982F51
:102230008D2D1F910F91FF90EF90DF900895A0E0FA
:10224000B0E0E5E2F1E10C9452ABEC017B018A01D4
:10225000690109C0CE012196F70161917F01F60164
:1022600009950150104001151105A1F7CDB7DEB752
:10227000E8E00C946EABBF92CF92DF92EF92FF92A8
:102280000F931F93D52EC62EB72E79018C01642F84
:10229000F9010995C80101966D2DF7010995C8014D
:1022A00002966C2DF7010995C80103966B2DF70175
:1022B00009951F910F91FF90EF90DF90CF90BF9005
:1022C0000895DF92EF92FF920F931F93D72E7A011A
:1022D0008C01FA010995C80101966D2DF701099548
:1022E0001F910F91FF90EF90DF9008959C01F99955
:1022F000FECF32BD21BDF89A80B508959C01F999B1
:10230000FECF1FBA32BD21BD60BD0FB6F894FA9A58
:10231000F99A0FBE0895089560910F017091100110
:1023200080911101909112016817790744F470931C
:1023300012016093110184E793E00E9474260895CE
:10234000BC01893191051CF469E170E005C0893C4C
:10235000910514F068EC70E070938B1060938A1014
:1023600082EC93E00E9474260895EF92FF920F93FF
:102370001F93CF93DF93EC01893191051CF4C9E1E0
:10238000D0E006C081E0C53FD80714F0C4EFD1E02B
:10239000BE01882777FD8095982F0E94AFA77B010B
:1023A0008C016091881070918910882777FD809545
:1023B000982F0E94AFA79B01AC01C801B7010E94F2
:1023C00014A79B01AC0160918410709185108091DD
:1023D0008610909187100E94BDA96093841070931D
:1023E00085108093861090938710D0938910C093A6
:1023F000881083EB93E0BE010E947426DF91CF9199
:102400001F910F91FF90EF9008950E942B4C9C011B
:1024100080910F01909110012817390724F430930F
:10242000100120930F0108950E94884A08952F9269
:102430003F924F925F926F927F928F929F92AF9254
:10244000BF92CF92DF92EF92FF920F931F93DF9391
:10245000CF93CDB7DEB728970FB6F894DEBF0FBE87
:10246000CDBFA090A10FB090A20FC090A30FD090AD
:10247000A40F2090A50F3090A60F4090A70F50906A
:10248000A80F8091A90F9091AA0FA091AB0FB091C6
:10249000AC0F89839A83AB83BC832091C90F3091A1
:1024A000CA0F4091CB0F5091CC0F6090CD0F709020
:1024B000CE0F8090CF0F9090D00F8091D10F909140
:1024C000D20FA091D30FB091D40F8D839E83AF8391
:1024D000B88780914D0F882359F40F2EF0E0EF2E2E
:1024E000F0E0FF2EF0E80F2FFFE31F2FF02D0AC0C2
:1024F0000F2EF0E7EF2EF2E4FF2EF1E20F2FFDE3B7
:102500001F2FF02DC601B5010E9447A6A801970113
:102510000E94BDA9AB01BC018EE793E022E00E94BE
:10252000692780914D0F882359F40F2EF0E0EF2E8C
:10253000F0E0FF2EF0E80F2FFFE31F2FF02D0AC071
:102540000F2EF0E7EF2EF2E4FF2EF1E20F2FFDE366
:102550001F2FF02DC201B101A40193010E9447A6D3
:10256000A80197010E94BDA9AB01BC0185E893E0D9
:1025700022E00E94692780914D0F882359F40F2E85
:10258000F0E0EF2EF0E0FF2EF0E80F2FFFE31F2F1B
:10259000F02D0AC00F2EF0E7EF2EF2E4FF2EF1E24D
:1025A0000F2FFDE31F2FF02D69817A818B819C8194
:1025B0002D813E814F8158850E9447A6A801970131
:1025C0000E94BDA9AB01BC0189E893E022E00E9412
:1025D000692720919D0F30919E0F40919F0F509140
:1025E000A00FA0905A0FB0905B0FC0905C0FD090DE
:1025F0005D0F80914D0F882359F40F2EF0E0EF2EE0
:10260000F0E0FF2EF0E80F2FFFE31F2FF02D0AC0A0
:102610000F2EF0E7EF2EF2E4FF2EF1E20F2FFDE395
:102620001F2FF02DCA01B9010E94AFA7A601950185
:102630000E94BDA9A80197010E94BDA9AB01BC01E0
:102640008DE893E022E00E94A52728960FB6F89423
:10265000DEBF0FBECDBFCF91DF911F910F91FF90D5
:10266000EF90DF90CF90BF90AF909F908F907F9032
:102670006F905F904F903F902F9008956F927F9250
:102680008F929F92AF92BF92CF92DF92EF92FF9282
:102690000F931F93DF93CF9300D000D0CDB7DEB759
:1026A00060919E1070919F108091A0109091A11048
:1026B0002FE632E143E85AE30E94BDA97B018C0179
:1026C000CE01019661E870E044E050E026E731E198
:1026D0000E94C710C801B70129813A814B815C81F2
:1026E0000E9447A6AB01BC018AED93E022E00E9464
:1026F00069278BEF93E00E947825E091C301F09168
:10270000C401638574858585968520E030E040E7C7
:1027100051E40E941BA918160CF47AC06624772491
:1027200043018DE790E066E771E10E94E3107B01D1
:102730008C01E60CF71C081D191DC801B70120E823
:1027400031E541E050E00E9408AB922E832E742EBA
:10275000652E622F732F842F952F20E83EEA4EEFCF
:102760005FEF0E9493AA5B016C01AE0CBF1CC01E00
:10277000D11E8CEE93E0492D582D672D762D0E94A9
:10278000B126C601B50120E13EE040E050E00E94E4
:1027900008AB122F032FF42EE52E8EEF93E0422F7D
:1027A000502F6F2D7E2D0E94B126612F702F8F2DFF
:1027B0009E2D20EF31EF4FEF5FEF0E9493AAA60E00
:1027C000B71EC81ED91EC601B5012CE330E040E09B
:1027D00050E00E9408AB85E094E0BA01A9010E9494
:1027E000B1268DE094E00E9486250F900F900F9007
:1027F0000F90CF91DF911F910F91FF90EF90DF909D
:10280000CF90BF90AF909F908F907F906F900895E2
:102810000FB6F8946091A6137091A7138091A81336
:102820009091A9130FBE20919A1030919B10409166
:102830009C1050919D10621B730B840B950B28EE1E
:1028400033E040E050E00E94E6AAC901DA013C0111
:102850004D0167CF809140028823A1F01092400281
:102860000E94E13E809114018150809314018823DD
:1028700049F480911301833010F40E947A3885E086
:1028800080931401089504C00E943E470E942A14B8
:1028900080913D0F8823C1F70895CF93DF9397FD73
:1028A00010C0EC018F3F910521F01CF0CFEFD0E07C
:1028B00002C0009731F08091D70F88608093D70FC6
:1028C00007C08091D70F877F8093D70FC0E0D0E0FB
:1028D000662311F00E9443148091470390E0C817CB
:1028E000D90729F080ED93E0BE010E947426C093C1
:1028F0004703DF91CF910895EF92FF920F931F93BB
:10290000DF93CF930F92CDB7DEB78DE089838EEA48
:10291000E82E83E1F82EC7018E010F5F1F4FB8012B
:1029200041E050E00E94BCA48AE08983C701B8015D
:1029300041E050E00E94BCA40F90CF91DF911F9125
:102940000F91FF90EF9008951F93182FE0914C0284
:10295000F0914D0244A555A566A577A581E993E0C0
:1029600022E00E946927E0914C02F0914D0240A9BB
:1029700051A962A973A980EB93E020E00E94692726
:102980000E94A835AB01BC0184E993E022E00E94DB
:10299000692740918D0150918E0160918F01709156
:1029A000900180EB93E020E00E946927112391F0D1
:1029B00087EA93E061E070E00E948A266CEF7FE096
:1029C0008091850190918601681B790B8CEA93E0D8
:1029D0000E948A26E0918201F0E0EC5BFC4F60816E
:1029E00082EA93E070E00E948A26E0911501EF3FB1
:1029F00029F4E0914C02F0914D02E081F0E0EC5BB3
:102A0000FC4F608188E993E070E00E948A260E9472
:102A10007C141F9108952F923F924F925F926F9274
:102A20007F928F929F92AF92BF92CF92DF92EF925E
:102A3000FF920F931F93DF93CF93CDB7DEB7E0974D
:102A40000FB6F894DEBF0FBECDBF6C0180911E02A1
:102A5000282F84FF22C0D6018C9182FD09C081FFFE
:102A60001CC016968D919C9117978F369105A9F0F1
:102A70000FB6F8948091A6139091A713A091A81374
:102A8000B091A9130FBE80933C0390933D03A09394
:102A90003E03B0933F030C94EC24F60100811181B6
:102AA00002FFC8C5808591858C31910509F43CC22F
:102AB0008D31910590F48430910518F40297D0F58A
:102AC0002DC08431910509F428C28531910509F49E
:102AD00028C2049709F099C5D3C18338910509F438
:102AE00025C38438910568F48B35910509F460C2DB
:102AF0008C35910509F460C28A35910509F085C5C8
:102B000054C28538910509F470C48538910508F4DC
:102B100073C38638910509F078C526C5C6010E94A1
:102B20003874882309F471C580E061E041E00E94B7
:102B3000A0656BC58091A10F9091A20FA091A30FEA
:102B4000B091A40F89879A87AB87BC878091A50F26
:102B50009091A60FA091A70FB091A80F8D879E8787
:102B6000AF87B88B8091A90F9091AA0FA091AB0F5E
:102B7000B091AC0F898B9A8BAB8BBC8BC6010E943A
:102B80003874882309F441C5FE01319688E0DF01DD
:102B90001D928A95E9F7F601828180FD05C020E04B
:102BA00030E040E050E007C0D60197962D913D916E
:102BB0004D915C919A9780914D0F882351F0CA01F5
:102BC000B90123E333E34BEC51E40E94BDA99B011F
:102BD000AC0129833A834B835C83F601828181FDBA
:102BE00005C020E030E040E050E007C0D6019B96F1
:102BF0002D913D914D915C919E9780914D0F882331
:102C000051F0CA01B90123E333E34BEC51E40E94D4
:102C1000BDA99B01AC012D833E834F835887FE01E4
:102C2000759680E1DF011D928A95E9F78091A10FE9
:102C30009091A20FA091A30FB091A40F8D8B9E8BAA
:102C4000AF8BB88F8091A50F9091A60FA091A70F81
:102C5000B091A80F898F9A8FAB8FBC8F8091A90FED
:102C60009091AA0FA091AB0FB091AC0F8D8F9E8F5A
:102C7000AF8FB8A36091C50F7091C60F8091C70F39
:102C80009091C80F0E94AFA720915A0F30915B0F0F
:102C900040915C0F50915D0F0E94BDA969A37AA37A
:102CA0008BA39CA3F601828182FFC7C087A490A852
:102CB000A1A8B2A880914D0F882351F0C501B4019D
:102CC00023E333E34BEC51E40E94BDA94B015C01CB
:102CD0006D897E898F89988D29853A854B855C859C
:102CE0000E9446A66DA77EA78FA798AB698D7A8DA7
:102CF0008B8D9C8D2D853E854F8558890E9446A6DB
:102D00002B013C01C501B40120E030E040E850E473
:102D10000E94BDA9A50194010E94BDA97B018C015F
:102D20006DA57EA58FA598A99B01AC010E94BDA9A8
:102D30009B01AC01C801B7010E9446A67B018C0132
:102D4000C301B201A30192010E94BDA99B01AC0184
:102D5000C801B7010E9446A60E942AAA7B018C01E5
:102D60006DA57EA58FA598A9A30192010E9428A90F
:102D70009B01AC0117FB109517F91095C801B7011D
:102D80000E9414A77B018C01A80197010E9477AAD9
:102D9000882329F082E194E00E948B2536C4D60175
:102DA00018968D919C911997039721F417FB109514
:102DB00017F91095C501B40120E030E040E050E083
:102DC0000E940DA7882344F417FB109517F910955E
:102DD000B7FAB094B7F8B094C301B201A801970153
:102DE0000E94BDA99B01AC016DA57EA58FA598A9E8
:102DF0000E9446A620E030E040E05FE30E94BDA9CB
:102E000069837A838B839C836DA57EA58FA598A902
:102E1000A80197010E94BDA99B01AC01C301B201A9
:102E20000E9447A620E030E040E05FE30E94BDA999
:102E30006D837E838F8398870CC069817A818B81B3
:102E40009C812D813E814F8158850E9428A94B018C
:102E50005C01E0E0D60118968D919C91199702973C
:102E600009F4E1E0CE010996BE016B5E7F4FAE0131
:102E70004F5F5F4F95018401EE2E0E94EF53C5C353
:102E80000E944314F6012081318133FD05C060E0CA
:102E900070E080E090E007C0D60193966D917D913F
:102EA0008D919C91969732FF0BC0F601678D70A1B2
:102EB00081A192A128EE33E040E050E00E9493AA65
:102EC0000FB6F894E090A613F090A7130091A81302
:102ED0001091A9130FBEE60EF71E081F191F04C09C
:102EE0000E943E470E942A140FB6F8948091A613C0
:102EF0009091A713A091A813B091A9130FBE270119
:102F00003801481A590A6A0A7B0AD301C201805063
:102F10009449A543B74720F378C381E080934D0FD0
:102F200074C310924D0F71C3C80188739070892BC0
:102F300011F080E008C0C80156E0969587955A9533
:102F4000E1F78095817006FF08C010929D0F1092E6
:102F50009E0F10929F0F1092A00F882321F041E046
:102F600051E061E01EC0D6012D913C91C9018873EA
:102F70009070892B09F43CC1C90143E0969587956F
:102F80004A95E1F7582F5170C90134E0969587951D
:102F90003A95E1F7682F617025FD02C040E001C05D
:102FA00041E0852F0E94E47823C110928F0F2DC33A
:102FB00081E080938F0F29C3A090C90FB090CA0FF2
:102FC000E090CB0FF090CC0F6090CD0F7090CE0FB3
:102FD0008090CF0F9090D00F2090D10F3090D20FD3
:102FE0004090D30F5090D40F03FF21C0F6012285EB
:102FF00033854485558580914D0F882351F0CA0152
:10300000B90123E333E34BEC51E40E94BDA99B01DA
:10301000AC01CA01B9012091A10F3091A20F4091DA
:10302000A30F5091A40F0E9446A65B017C0104FFF0
:1030300023C0D6011E962D913D914D915C915197E3
:1030400080914D0F882351F0CA01B90123E333E386
:103050004BEC51E40E94BDA99B01AC01CA01B9012E
:103060002091A50F3091A60F4091A70F5091A80F66
:103070000E9446A63B014C0105FF21C0F6012289B2
:1030800033894489558980914D0F882351F0CA01B5
:10309000B90123E333E34BEC51E40E94BDA99B014A
:1030A000AC01CA01B9012091A90F3091AA0F40913A
:1030B000AB0F5091AC0F0E9446A61B012C01B5012D
:1030C000C7019301A401710182010E94BE6FD60164
:1030D0008C9186FF9AC256962D913D914D915C91AF
:1030E000599780914D0F882351F0CA01B90123E30C
:1030F00033E34BEC51E40E94BDA99B01AC01CA0132
:10310000B9012091DE013091DF014091E001509141
:10311000E1010E94BDA90E947CA760939D0F70935E
:103120009E0F80939F0F9093A00F6FC26091A10F8D
:103130007091A20F8091A30F9091A40F2091A50FE1
:103140003091A60F4091A70F5091A80FE090A90FC2
:10315000F090AA0F0091AB0F1091AC0F609084100B
:103160007090851080908610909087100F2EF0E060
:10317000AF2EF0E0BF2EF0E0CF2EF0E0DF2EF02DEE
:10318000A0929010B0929110C0929210D092931091
:10319000A0929410B0929510C0929610D092971071
:1031A00000D000D0A090F201B090F301C090F401E3
:1031B000D090F501EDB7FEB7A182B282C382D4826E
:1031C0000F2EF0E8AF2EFFE4BF2EF3ECCF2EF7E486
:1031D000DF2EF02D0E949C776092841070928510F3
:1031E00080928610909287100F900F900F900F9002
:1031F00080E00E94DF6F09C280E00E94FD7080E0E5
:1032000090E0A0E0B0E08093C90F9093CA0FA09324
:10321000CB0FB093CC0F8093CD0F9093CE0FA09394
:10322000CF0FB093D00F8093D10F9093D20FA09374
:10323000D30FB093D40F6091FA017091FB0180918C
:10324000FC019091FD010E94967180904410909035
:103250004510A0904610B090471000914810109172
:10326000491020914A1030914B10409140105091DC
:1032700041106091421070914310D901C80178014A
:10328000FA2FEB2F081519052A053B052CF4D5015B
:10329000C4017401FA2FEB2FC701AF2FBE2F841783
:1032A0009507A607B70714F4DB01CA012C013D01FD
:1032B000481859086A087B08530142012C013D0156
:1032C000401A510A620A730A830172012C013D01FE
:1032D000441A550A660A770A8FED95E0B501A401F4
:1032E0000E949E2688EE95E0B801A7010E949E26C6
:1032F00081EF95E0B301A2010E949E26D6018D9137
:103300009C91119792FF2AC15F968D919D910D908E
:10331000BC91A02D181619061A061B060CF01EC12A
:103320008DE793E0B4014EE751E10E9461110E94E4
:10333000D127282FF999FECF88E690E092BD81BD74
:10334000F89A80B5281769F0F999FECF1FBA88E678
:1033500090E092BD81BD20BD0FB6F894FA9AF99A1B
:103360000FBE8FE793E0B7014EE751E10E94611174
:103370000E94D127282FF999FECF88E690E092BDD0
:1033800081BDF89A80B5281769F0F999FECF1FBA68
:1033900088E690E092BD81BD20BD0FB6F894FA9A00
:1033A000F99A0FBE81E893E0B2014EE751E10E9425
:1033B00061110E94D127282FF999FECF88E690E06D
:1033C00092BD81BDF89A80B5281709F4C7C0F99954
:1033D000FECF1FBA88E690E092BD81BD20BD0FB63A
:1033E000F894FA9AF99A0FBEB9C00091D50F10E07F
:1033F00025E0169507952A95E1F7017080E00E9477
:10340000FD701092910F1092920F1092930F1092E4
:10341000940F1092950F1092960F1092970F109292
:10342000980F20915C1030915D1040915E1050918A
:103430005F102093990F30939A0F40939B0F5093F6
:103440009C0F80E090E0A0E0B0E08093C90F9093E3
:10345000CA0FA093CB0FB093CC0F8093CD0F909356
:10346000CE0FA093CF0FB093D00F8093D10F909336
:10347000D20FA093D30FB093D40F10927E0F10925F
:103480007F0F1092800F1092810F1092820F109276
:10349000830F1092840F1092850F2093860F309324
:1034A000870F4093880F5093890F6091FA017091B4
:1034B000FB018091FC019091FD010E949671609149
:1034C0005C1070915D1080915E1090915F100E9471
:1034D000AFA720E030E040EC5FE30E94BDA90E946E
:1034E0007CA7AB01BC018091481090914910A0913C
:1034F0004A10B0914B106A017B01C81AD90AEA0A36
:10350000FB0A8091401090914110A0914210B0911F
:1035100043104A015B01881A990AAA0ABB0A8091E2
:10352000441090914510A0914610B0914710481B4F
:10353000590B6A0B7B0B8FED95E00E949E2688EE5F
:1035400095E0B701A6010E949E2681EF95E0B501A6
:10355000A4010E949E26802F0E94FD7081E061E000
:1035600041E00E94E47851C040917E0F50917F0F5E
:103570006091800F7091810F89E991E00E94B126DE
:103580004091820F5091830F6091840F7091850F4D
:103590008EE194E00E94B1264091860F5091870FF2
:1035A0006091880F7091890F8EE194E00E949E26B1
:1035B0004091341050913510609136107091371051
:1035C0008EE891E00E94B126409138105091391058
:1035D00060913A1070913B108EE194E00E94B12608
:1035E00040913C1050913D1060913E1070913F1001
:1035F0008EE194E00E949E2680E00E94DF6F80E8CA
:1036000091E00E9478250E9417120FB6F8948091DD
:10361000A6139091A713A091A813B091A9130FBE60
:1036200080933C0390933D03A0933E03B0933F03EC
:103630000C94EC2401FD02C00C94D924F60186817F
:1036400097818237910509F459C78337910508F0AE
:1036500081C08A32910509F4A4C18B329105C8F565
:103660008931910509F43EC18A319105C8F486314A
:10367000910509F416C18731910548F4843191050B
:1036800009F403C1459711F00C94EC2404C187316F
:10369000910509F40CC1489711F00C94EC241CC15D
:1036A0008C31910509F448C18D31910548F48A3176
:1036B000910509F41EC14B9711F00C94EC2436C10E
:1036C0008E31910509F447C1809711F00C94EC24D8
:1036D00054C18336910509F4ABC684369105D8F4FC
:1036E0008435910509F41EC68535910550F482355F
:1036F000910509F410C68335910511F00C94EC2462
:103700000DC68535910509F429C68C35910511F052
:103710000C94EC2444C68A36910509F4E0C58B3636
:10372000910550F48836910509F48FC189369105C9
:1037300011F00C94EC244CC28D36910509F452C260
:103740008F36910509F4C0C68B36910511F00C94A3
:10375000EC24D7C58F3C910511F40C949923803D3E
:103760009105F0F5893C910509F4F7C68A3C91056D
:10377000D8F48737910509F4C4C68837910550F409
:103780008337910509F4B3C68437910511F00C9481
:10379000EC24E9C48C38910509F4D6C18E3B91051F
:1037A00011F00C94EC2424C48C3C910509F474C7EA
:1037B0008D3C910550F48A3C910509F414C78B3C6B
:1037C000910511F00C94EC2454C78D3C910511F433
:1037D0000C9492238E3C910511F00C94EC24A5C717
:1037E000F1E081399F0711F40C94F02321E0823934
:1037F000920710F531E08F32930709F43CC541E0A0
:103800008033940760F48C3D910511F40C94CB2324
:103810008D3D910511F00C94EC240C94DB2351E0C8
:103820008E35950711F40C943D248059914011F088
:103830000C94EC240C94ED23B1E0853F9B0711F42C
:103840000C942C24E1E0863F9E0768F4F1E0823975
:103850009F0711F40C94F323845F914011F00C94B2
:10386000EC240C94242431E0873F930709F45AC7D1
:1038700041E0873F940710F40C943A24875192401A
:1038800011F00C94EC240C94422488E091E10E9405
:103890000B820C94EC2488E091E10E9425850C9425
:1038A000EC2488E091E10E9463800C94EC2417FDE5
:1038B00002C00C94EC2488E091E160E00E94CF907B
:1038C000D601D3966D917C91D49788E091E140E048
:1038D0000E9474810C94EC2488E091E10E94748031
:1038E0000C94EC2488E091E160E00E9481840C94C7
:1038F000EC2412FD02C00C94EC24F601478D50A17B
:1039000061A172A180917211882311F40C94EC24AE
:103910004093691150936A1160936B1170936C110D
:1039200088E491E10E94608E0C94EC2488E091E19F
:103930000E944F810C94EC2417FD02C00C94EC24DF
:10394000D601D3966D917C91D49788E091E10E9445
:1039500017810C94EC2417FD02C00C94EC2488E031
:1039600091E160E00E94CF90F60163A974A988E01C
:1039700091E10E94CA800C94EC2417FD02C00C94C3
:10398000EC2488E091E160E00E94CF90D601D396CC
:103990006D917C91D49788E091E10E94A0800C9475
:1039A000EC2412FD02C00C94EC2413FD02C00C9414
:1039B000EC24F601878D90A1A1A1B2A1B7FF02C0AE
:1039C0000C94EC248F3F9105A105B10519F014F07A
:1039D0000C94EC24E3A0F4A020E030E0F901EE0F19
:1039E000FF1FED51FF4FE4918E2F90E08E159F0544
:1039F00011F40C94EC242F5F3F4F2833310571F7FD
:103A0000F7FE02C00C94EC248E2D0E94349FD60148
:103A10005F969C915F9790962C91EE2DF0E0092E89
:103A20000E94A39F8E2D692F722F0E9451A18DE3BA
:103A300094E0B7010E948A26F601678D70A189E49F
:103A400094E00E9474260C94EC240E942C38882365
:103A500011F00C94EC240FB6F8948091A613909179
:103A6000A713A091A813B091A9130FBE80933C0394
:103A700090933D03A0933E03B0933F0380911E02B9
:103A800083FDAAC7D6018D919C91119793FD0CC01F
:103A900092FF0CC05F968D919D910D90BC91A02DD1
:103AA0000097A105B10511F40E944314F60180812D
:103AB000918192FF91C7878C90A0A1A0B2A09C0198
:103AC0002070317091FF1FC0068D232B11F410E080
:103AD00011C010E0D6015A966D917D918D919C9107
:103AE0005D9720E030E040E050E00E941BA91816EE
:103AF0000CF411E0C501B4010E94AFA7402F212FA3
:103B00000E948C3C69C7E0914C02F0914D0200810B
:103B1000232B11F410E00FC010E0F601628D738DBD
:103B2000848D958D20E030E040E050E00E941BA99C
:103B300018160CF411E0C501B4010E94AFA7402F84
:103B4000212F0E948C3C48C70E942C38882309F002
:103B500043C70FB6F8948091A6139091A713A09134
:103B6000A813B091A9130FBE80933C0390933D031B
:103B7000A0933E03B0933F0380911E0283FD2CC7A8
:103B8000D6018D919C91119792FF26C75F96ED907B
:103B9000FD900D911C91929790FD02C0BB2410C026
:103BA000BB24F601628D738D848D958D20E030E00D
:103BB00040E050E00E941BA9181614F4BB24B394F3
:103BC000C801B7010E94AFA74B2D0E94BC3804C7A3
:103BD00083E0169507958A95E1F7802F81700E9402
:103BE000A414FAC60E942C38882309F0F5C60FB633
:103BF000F8948091A6139091A713A091A813B09167
:103C0000A9130FBE80933C0390933D03A0933E0302
:103C1000B0933F0380911E0283FDDEC60E944314D1
:103C200080904C0290904D02D6012D913C911197BD
:103C300031FF08C05E968C91882321F416E1812E15
:103C400011E0912E32FF23C0F601E78CF0A001A114
:103C500012A1D401AC9030FD02C0BB2410C0BB2423
:103C6000F601628D738D848D958D20E030E040E00B
:103C700050E00E941BA9181614F4BB24B394C80189
:103C8000B7010E94AFA74A2D2B2D0E948C3CD40176
:103C90009C966D917D918D919C919F97D0962D9141
:103CA0003D914D915C91D3970E9446A67B018C017A
:103CB00020E030E040E050E00E941BA918165CF4C0
:103CC000C801B70120E030E040E050E40E940DA7B9
:103CD000882364F481C6C801B70120E030E040E0E9
:103CE00050EC0E941BA918160CF476C63324F4017C
:103CF00022A533A580A591A58217930714F4332438
:103D000033940FB6F8944090A6135090A713609088
:103D1000A8137090A9130FBE49A65AA66BA67CA63D
:103D200044245524320110E00FB6F8942091A613D4
:103D30003091A7134091A8135091A9130FBE2DA342
:103D40003EA34FA358A7DA01C90129A53AA54BA55F
:103D50005CA5821B930BA40BB50B895E9340A0401E
:103D6000B04058F080E00E94A4148DA19EA1AFA1A4
:103D7000B8A589A79AA7ABA7BCA70E942A148091CF
:103D80004C0290914D028816990609F067C0D40143
:103D90009396ED90FC9094971E141F040CF05EC057
:103DA000112309F05BC0332009F458C091966D913E
:103DB0007C919297882777FD8095982F0E94AFA7D6
:103DC0009B01AC01F40164A575A586A597A50E9489
:103DD0001BA918160CF042C000D000D000D00DB7BF
:103DE0001EB70F5F1F4F662777276E197F09882739
:103DF00077FD8095982F0E94AFA72091DE0130912A
:103E0000DF014091E0015091E1010E94BDA90E94B3
:103E10007CA75B016C01F40187859089A189B28937
:103E2000F80180839183A283B3831482158260E0BA
:103E300070E080E090E020E030E040E050E0EE24F0
:103E4000FF2487010E94036F11E02DB73EB72A5F60
:103E50003F4F0FB6F8943EBF0FBE2DBF4114510423
:103E60006104710409F053C03320C9F0D401D09625
:103E70006D917D918D919C91D39720E030E040E849
:103E80005FE30E9446A69B01AC01F40164A575A501
:103E900086A597A50E941BA987FF1AC045CFD4010C
:103EA000D0966D917D918D919C91D39720E030E0DB
:103EB00040E85FE30E9447A69B01AC01F40164A5C2
:103EC00075A586A597A50E940DA718160CF42CCFF2
:103ED000D4015F966D917C919097882777FD8095AE
:103EE000982F28EE33E040E050E00E9493AA2B0187
:103EF0003C012DA13EA14FA158A5420E531E641EA8
:103F0000751E411451046104710409F40DCFD301ED
:103F1000C2012DA13EA14FA158A5821B930BA40B5A
:103F2000B50B80509449A543B74708F4FDCE112343
:103F300009F44AC080914C0290914D02881699066E
:103F400009F042C000D000D000D00DB71EB70F5FFF
:103F50001F4FD40193966D917C919497882777FD9C
:103F60008095982F0E94AFA72091DE013091DF014C
:103F70004091E0015091E1010E94BDA90E947CA7FF
:103F80005B016C01F40187859089A189B289F801F0
:103F900080839183A283B3831482158260E070E0F2
:103FA00080E090E020E030E040E050E0EE24FF24AC
:103FB00087010E94036F2DB73EB72A5F3F4F0FB6B0
:103FC000F8943EBF0FBE2DBF0FB6F8948091A61394
:103FD0009091A713A091A813B091A9130FBE80933D
:103FE0003C0390933D03A0933E03B0933F03F4C47E
:103FF00023FDF2C40E944314D6018D919C91119728
:1040000092FF21C05F96ED90FD900D911C919297CB
:1040100090FD02C0BB2410C0BB24F601628D738DDD
:10402000848D958D20E030E040E050E00E941BA997
:10403000181614F4BB24B394C801B7010E94AFA7AB
:104040004B2D0E94BC386091890170918A0180914A
:104050008B0190918C0120918D0130918E014091C6
:104060008F01509190010E9446A67B018C0120E0B7
:1040700030E040E050E00E941BA918165CF4C80133
:10408000B70120E030E040E450E40E940DA788230F
:1040900064F4A2C4C801B70120E030E040E450EC71
:1040A0000E941BA918160CF497C40FB6F894E09060
:1040B000A613F090A7130091A8131091A9130FBE97
:1040C00024C00FB6F8948091A6139091A713A091E5
:1040D000A813B091A9130FBE8E199F09A00BB10BA5
:1040E000895E9340A040B04070F080E00E94A4142C
:1040F0000FB6F894E090A613F090A7130091A813C0
:104100001091A9130FBE0E942A1460918901709129
:104110008A0180918B0190918C0120E030E040E099
:104120005FE30E9447A620918D0130918E0140915E
:104130008F01509190010E940DA787FDC2CF0FB64D
:10414000F8948091A6139091A713A091A813B09111
:10415000A9130FBE80933C0390933D03A0933E03AD
:10416000B0933F0339C423FD37C40FB6F894809051
:10417000A6139090A713A090A813B090A9130FBEF8
:104180000FB6F8948091A6139091A713A091A8134D
:10419000B091A9130FBE88199909AA09BB09895EB4
:1041A0009340A040B04070F080E00E94A4140FB68D
:1041B000F8948090A6139090A713A090A813B090A5
:1041C000A9130FBE0E942A14C090C301D090C4014D
:1041D000D6011B96ED90FD900D911C911E97C80184
:1041E000B70120E030E040EF51E40E941BA918160F
:1041F000A4F4C801B701F6012781308541855285B5
:104200000E9446A69F7720E030E040E85FE30E94EE
:104210001BA9181614F4772402C077247394C09055
:10422000C501D090C601D6011B96ED90FD900D9171
:104230001C911E97C801B70120E030E040EF51E427
:104240000E941BA918169CF4C801B701F60127812A
:104250003085418552850E9446A69F7720E030E058
:1042600040E85FE30E941BA918160CF489CF772061
:1042700009F486CFB1C312FD03C026E930E005C0C2
:10428000D6015F962D913C91909713FD03C0CC24ED
:10429000DD240AC0F601C3A0D4A0F2E0CF16D104F9
:1042A0001CF0B2E0CB2ED12CF601EE0FFF1FED5328
:1042B000FE4FE080F180B901882777FD8095982F27
:1042C0000E94AFA7AB01BC01F3E016950795FA95E4
:1042D000E1F70170C7012C2D0E9423397DC312FD27
:1042E00003C08FEF90E005C0D6015F968D919C9141
:1042F0009097612F66956695669561700E944D1442
:104300006BC3612F669566956695617080E090E05D
:104310000E944D1461C31092900F5EC381E08093A0
:10432000900F5AC312FF14C0F601678D70A181A1CE
:1043300092A128EE33E040E050E00E9493AA6093FF
:10434000C8017093C9018093CA019093CB0144C303
:104350000E94431481E00E94037A3EC312FF16C0FC
:10436000D6015F966D917D918D919C91929728EEEB
:1043700033E040E050E00E9493AA609340037093C2
:104380004103809342039093430326C3109240035A
:104390001092410310924203109243031DC303FF86
:1043A0000DC0F60182859385A485B5858093D201E1
:1043B0009093D301A093D401B093D501D6018C91F1
:1043C00084FF0EC01E968D919D910D90BC91A02DE5
:1043D0008093D6019093D701A093D801B093D901CF
:1043E000F601808185FF0CC082899389A489B589F3
:1043F0008093DA019093DB01A093DC01B093DD019F
:104400000E94987AD6018C9186FFE6C2E0914C0218
:10441000F0914D0256962D913D914D915C91599799
:10442000218732874387548780810E945B3DD4C2B5
:1044300012FD05C060E177E280E090E00BC0F6017C
:10444000678D70A181A192A128EE33E040E050E099
:104450000E9493AA03FD779A04FD769A05FD479A78
:104460000FB6F894E090A613F090A7130091A8134C
:104470001091A9130FBEE60EF71E081F191F02C0E8
:104480000E94397A0FB6F8948091A6139091A713E1
:10449000A091A813B091A9130FBE27013801481AA3
:1044A000590A6A0A7B0AD301C201805A9648A14080
:1044B000B04030F3D6013C9133FD779834FD7698C7
:1044C00035FF8AC2479888C212FF04C0F601878D63
:1044D00080931E0280911E0283FF7EC260E070E026
:1044E00080E090E040E020E00E948C3C75C284EACD
:1044F00091E00E9486250E943E136EC20E94171210
:104500006BC20E9443148BE594E00E9478251E9BA9
:1045100003C081E594E002C08EE494E00E94782517
:1045200089E694E00E9478251F9B03C081E594E012
:1045300002C08EE494E00E94782587E794E00E9410
:104540007825649B03C081E594E002C08EE494E08A
:104550000E9478250E947C143FC203FF0DC0F60123
:1045600082859385A485B5858093FE019093FF0194
:10457000A0930002B0930102D6018C9184FF0EC07B
:104580001E968D919D910D90BC91A02D809302025D
:1045900090930302A0930402B0930502F601808178
:1045A00085FF0CC082899389A489B589809306020E
:1045B00090930702A0930802B0930902D6018C9150
:1045C00086FF0EC056968D919D910D90BC91A02DA9
:1045D00080930A0290930B02A0930C02B0930D02F9
:1045E0000E94987AF9C103FF0DC0F6018285938578
:1045F000A485B58580930E0290930F02A0931002BC
:10460000B0931102D6018C9184FF0EC01E968D913D
:104610009D910D90BC91A02D809312029093130256
:10462000A0931402B0931502F601808185FF0CC09F
:1046300082899389A489B589809316029093170281
:10464000A0931802B0931902D6018C9186FF0EC078
:1046500056968D919D910D90BC91A02D80931A023C
:1046600090931B02A0931C02B0931D020E94987AA3
:10467000B3C112FFB1C1F601278D30A141A152A1F2
:1046800012161306140615061CF020931301A4C17C
:1046900081E080931301A0C180914C0290914D0262
:1046A00012FD03C0FC01B59610C0F601878D90A1E4
:1046B000A1A1B2A1B7FD90C10097A105B10519F460
:1046C000EBE3F1E002C0E2E8F1E003FF0BC0D6014A
:1046D0001A962D913D914D915C911D97228F338FAC
:1046E000448F558FD6018C9184FF0AC01E962D9160
:1046F0003D914D915C915197268F378F40A351A3E7
:10470000D6018C9185FF0AC052962D913D914D9115
:104710005C91559722A333A344A355A3CF010E94D4
:104720005C355AC10E94D63357C1C6010E94D730AA
:1047300053C103FF0DC0F60182859385A485B5851D
:1047400080938C1090938D10A0938E10B0938F1047
:10475000D6018C9186FF11C0E0914C02F0914D0280
:1047600056962D913D914D915C915997278B308FA5
:10477000418F528F80810E945B3D40918C105091FF
:104780008D1060918E1070918F108EE794E022E072
:104790000E94A52721C112FD05C024E630E040E0BB
:1047A00050E005C0F601278D30A141A152A1C901F9
:1047B0000E94B51111C112FD05C024E630E040E0B1
:1047C00050E007C0D6015F962D913D914D915C91CF
:1047D0009297C9010E94A011FFC00E944314FCC01F
:1047E0000E94AD70F9C010FF06C0F601C28CD38CD8
:1047F000E48CF58C08C0C0908410D0908510E090B7
:104800008610F0908710B801E4E076956795EA95F8
:10481000E1F76170A80175E0569547957A95E1F743
:104820004170980156E0369527955A95E1F7217029
:1048300093E0169507959A95E1F7802F817087018F
:1048400076010E946979C8C080E00E94D32984EA79
:1048500098E00E94A525C0C00E94E42CE0914C0283
:10486000F0914D0280810E945B3D84EC98E00E94B3
:10487000A525B2C00E945231AFC08EE691E00E94E1
:104880008625AAC04091AD0F5091AE0F6091AF0F39
:104890007091B00F85E591E022E00E946927409178
:1048A000B10F5091B20F6091B30F7091B40F8EE1C0
:1048B00094E022E00E9469274091B50F5091B60F15
:1048C0006091B70F7091B80F8EE194E022E00E94E2
:1048D000A5274091A10F5091A20F6091A30F709155
:1048E000A40F83E491E022E00E9469274091A50F84
:1048F0005091A60F6091A70F7091A80F8EE194E0E0
:1049000022E00E9469274091A90F5091AA0F60915F
:10491000AB0F7091AC0F8EE194E022E00E94A527CE
:104920004091910F5091920F6091930F7091940F5D
:1049300083E391E00E94B1264091950F5091960F2C
:104940006091970F7091980F8EE194E00E94B126CC
:104950004091990F50919A0F60919B0F70919C0F0D
:104960008EE194E00E949E2640917E0F50917F0F31
:104970006091800F7091810F8BE191E00E94B126D0
:104980004091820F5091830F6091840F7091850F39
:104990008EE194E00E94B1264091860F5091870FDE
:1049A0006091880F7091890F8EE194E00E949E269D
:1049B00013C011FF08C00E944314D6015E968C916B
:1049C0000E945B3D09C022FF07C083E693E00E947E
:1049D0007825C6010E948745E0960FB6F894DEBFA1
:1049E0000FBECDBFCF91DF911F910F91FF90EF9040
:1049F000DF90CF90BF90AF909F908F907F906F90FF
:104A00005F904F903F902F900895CF93DF931CC0FD
:104A100080917311882381F0888181FF04C08E8189
:104A20009F814D97F9F088E091E1BE010E94B1822B
:104A3000CE010E94444603C0CE010E940B15CE0158
:104A40000E9455460E942A1480913D0F882329F424
:104A50000E94E641EC01009751F00E943E472097EA
:104A6000B9F6F0CF88E091E10E94F980E1CFDF91C3
:104A7000CF910895CF93DF930E943E470E94E64175
:104A8000EC010097D1F080917311882381F0888127
:104A900081FF04C08E819F814D9791F088E091E164
:104AA000BE010E94B182CE010E94444603C0CE01E5
:104AB0000E940B15CE010E9455460E94397ADCCF28
:104AC00088E091E10E94F980EECFDF93CF930F92BF
:104AD000CDB7DEB789838EEA93E1BE016F5F7F4F6A
:104AE00041E050E00E94BCA40F90CF91DF91089567
:104AF000CF93DF93EC0102C00E946525FE018491F3
:104B000021968823C9F7DF91CF9108950E947825D7
:104B10000E947C1408950F931F938C018EE592E000
:104B20000E947825C8010E9486251F910F91089543
:104B30000F931F938C0185E692E00E947825C801AF
:104B40000E9486251F910F9108950F931F938C014A
:104B500085E692E00E947825C8010E9478251F9181
:104B60000F9108950F931F938C018BE692E00E94A2
:104B70007825C8010E9486251F910F910895CF9333
:104B8000DF93EC0103C021960E946525888188236C
:104B9000D1F7DF91CF9108950F931F938B010E945E
:104BA0007825C8010E94BF251F910F9108950F938A
:104BB0001F938B010E947825C8010E94BF250E9487
:104BC0007C141F910F910895AF92BF92CF92DF9204
:104BD000EF92FF920F931F93DF93CF93CDB7DEB782
:104BE0002B970FB6F894DEBF0FBECDBFC62ED92EC1
:104BF0001B869BE0A92EB12CAC0EBD1E6C2D9D2DED
:104C00002AE030E040E050E00E94E6AAD52E79018B
:104C1000042F152F80E3C80EC801B7012AE030E049
:104C200040E050E00E9493AAC61AF501C2925F01CB
:104C3000CE2C7F2D802FE114F10401051105F1F632
:104C4000CF010E94BF252B960FB6F894DEBF0FBE92
:104C5000CDBFCF91DF911F910F91FF90EF90DF902B
:104C6000CF90BF90AF900895EF92FF920F931F9354
:104C70007A018B010E947825C801B7010E94E425C2
:104C80000E947C141F910F91FF90EF900895EF9276
:104C9000FF920F931F937A018B010E947825C80120
:104CA000B7010E94E4251F910F91FF90EF900895A6
:104CB000EF92FF920F931F937B018C0197FF0BC024
:104CC0008DE20E94652510950095F094E094E11C1A
:104CD000F11C011D111DC801B7010E94E4251F919F
:104CE0000F91FF90EF900895EF92FF920F931F9313
:104CF0007B010E9478250027F7FC0095102FC80142
:104D0000B7010E9458260E947C141F910F91FF90BA
:104D1000EF900895EF92FF920F931F937B010E94F3
:104D200078250027F7FC0095102FC801B7010E94D5
:104D300058261F910F91FF90EF900895EF92FF92E8
:104D40000F931F937A018B010E947825C801B70148
:104D50000E9458260E947C141F910F91FF90EF90A3
:104D60000895EF92FF920F931F937A018B010E9497
:104D70007825C801B7010E9458261F910F91FF9016
:104D8000EF9008959F92AF92BF92CF92DF92EF92F1
:104D9000FF920F931F93CF93DF937B018C01942E8F
:104DA000A80197010E9477AA882319F086E592E06E
:104DB00020C0C0E0D0E057016801E894D7F8C601F0
:104DC000B5012FEF3FEF4FE75FE70E9477AA8823F7
:104DD00051F4C601B5012FEF3FEF4FE75FE70E94A7
:104DE0000DA7181614F0C1E0D0E0219729F08AE54C
:104DF00092E00E94782561C0C801B70120E030E050
:104E000040E050E00E940DA788233CF48DE20E9410
:104E1000652517FB109517F9109520E030E040E06C
:104E20005FE3DD240BC0CA01B90120E030E040E2BD
:104E300051E40E9414A79B01AC01D394D91498F3B8
:104E4000C801B7010E9447A65B016C010E9481A7BF
:104E50007B018C010E94E425992019F08EE20E94CA
:104E60006525C801B7010E94ADA79B01AC01C60131
:104E7000B5010E9446A61FC020E030E040E251E4A8
:104E80000E94BDA97B018C010E947CA75B016C0183
:104E9000CC24B7FCC094DC2CC601B5010E94582676
:104EA000C601B5010E94AFA79B01AC01C801B701C3
:104EB0000E9446A69A949920F9F6DF91CF911F910E
:104EC0000F91FF90EF90DF90CF90BF90AF909F90A9
:104ED0000895DF92EF92FF920F931F937A018B0157
:104EE000D22E0E947825C801B7014D2D0E94C226FE
:104EF0001F910F91FF90EF90DF900895EF92FF9236
:104F00000F931F93CF93DF93162F072FE42EF22ECC
:104F10000E947825212F302FC901EC0110E00AC032
:104F2000499159916991799180E294E02F2D0E94E5
:104F300069271F5F1E15A0F30E947C14DF91CF919B
:104F40001F910F91FF90EF900895DF92EF92FF92E3
:104F50000F931F937A018B01D22E0E947825C801EE
:104F6000B7014D2D0E94C2260E947C141F910F9103
:104F7000FF90EF90DF9008959C01F999FECF32BD2C
:104F800021BDF89A80B508959C01F999FECF1FBA0A
:104F900032BD21BD60BD0FB6F894FA9AF99A0FBEE2
:104FA000089520E030E090E02836310539F0F99995
:104FB000FECF32BD21BDF89A80B5980F2F5F3F4FCD
:104FC00088E02030380781F7892F0895F999FECFBE
:104FD00012BC11BCF89A80B5813071F48BE490E07A
:104FE0006CEB77E20E94E3106093CC017093CD01EB
:104FF0008093CE019093CF010895DF93CF9300D09B
:1050000000D0CDB7DEB7BC01CE01019644E050E040
:105010002CEB37E20E94C71029813A814B815C81D9
:10502000B901CA010F900F900F900F90CF91DF91AF
:105030000895DF93CF9300D000D0CDB7DEB749837A
:105040005A836B837C83BE016F5F7F4F44E050E0E7
:1050500024EC37E20E941F110F900F900F900F90D9
:10506000CF91DF910895EF92FF920F931F9360917C
:105070009E1070919F108091A0109091A11020E03F
:1050800030E040E050E00E940DA7882309F49CC066
:105090000FB6F8946091A6137091A7138091A8138E
:1050A0009091A9130FBE20919A1030919B104091BE
:1050B0009C1050919D10621B730B840B950B28EE76
:1050C00033E040E050E00E94E6AA79018A018DE7D2
:1050D00090E06CEB77E20E94E310E60EF71E081FEB
:1050E000191F8DE790E0B801A70124EC37E20E9478
:1050F0003B1181E890E00E94FD277B018C016091CB
:105100009E1070919F108091A0109091A1102FE699
:1051100032E143E85AE30E94BDA99B01AC01C801FA
:10512000B7010E9447A6AB01BC0181E890E00E9454
:10513000192880E090E0A0E0B0E080939E1090936A
:105140009F10A093A010B093A1100FB6F894809177
:10515000A6139091A713A091A813B091A9130FBE05
:1051600080939A1090939B10A0939C10B0939D10E5
:1051700020E030E040E02836310539F0F999FECFE3
:1051800032BD21BDF89A80B5480F2F5F3F4F88E0B0
:105190002030380781F7F999FECF88E690E092BD7C
:1051A00081BDF89A80B5481769F0F999FECF1FBA0A
:1051B00088E690E092BD81BD40BD0FB6F894FA9AA2
:1051C000F99A0FBE0E943E131F910F91FF90EF902E
:1051D00008950F931F9388E293E040E050E060E26F
:1051E00072E40E9419288CE293E040E050E060E015
:1051F00070E40E94192888E493E040E050E066E102
:1052000073E40E94192880E293E040E050E060E0FF
:1052100070E00E94192884E293E040E050E060E0F2
:1052200070E00E94192880E393E040E050E060EADB
:1052300071E40E94192884E393E040E050E060EAC2
:1052400071E40E94192888E393E040E050E060E2B6
:1052500073E40E9419288CE393E040E050E060EA98
:1052600071E40E94192880E493E040E050E068EC8B
:1052700072E40E94192884E493E040E050E060E288
:1052800073E40E94192881EA93E040E050E060E274
:1052900071E40E94192881E793E040E050E064E166
:1052A00073E40E94192885E793E040E050E063E84A
:1052B00072E40E94192804EC17E289E793E066E99A
:1052C00070E0A8010E9461118BE793E066E470E052
:1052D000A8010E9461118DE793E060E070E0A801F1
:1052E0000E9461118FE793E060E070E0A8010E94E6
:1052F000611181E893E060E070E0A8010E94611113
:1053000085E893E040E050E062E573E40E941928EC
:1053100089E893E040E050E065EA73E40E941928D0
:105320008DE893E040E050E064EB72E40E941928BD
:1053300081E993E040E050E060E070E00E941928CD
:1053400085E993E040E050E060E070E00E941928B9
:1053500089E993E040E050E060E070E00E941928A5
:105360008DE993E040E050E060E772E40E94192884
:1053700085EA93E040E050E060E070E00E94192888
:1053800089EA93E040E050E060E070E00E94192874
:105390008DEA93E040E050E060E070E00E94192860
:1053A0001F910F910895FF920F931F93CF93DF9357
:1053B000F82E4091CC015091CD016091CE017091B9
:1053C000CF018BE490E024EC37E20E943B11409146
:1053D00040035091410360914203709143038FE475
:1053E00090E024EC37E20E943B114091C8015091BB
:1053F000C9016091CA017091CB0183E590E024EC72
:1054000037E20E943B114091D2015091D30160914B
:10541000D4017091D50183E090E00E941928409159
:10542000D6015091D7016091D8017091D90187E0E0
:1054300090E00E9419284091DA015091DB016091BF
:10544000DC017091DD018BE090E00E941928409111
:10545000E2015091E3016091E4017091E5018FE078
:1054600090E00E9419284091E6015091E701609177
:10547000E8017091E90183E190E00E9419284091D0
:10548000EA015091EB016091EC017091ED0187E12F
:1054900090E00E9419284091F2015091F30160912F
:1054A000F4017091F5018BE190E00E941928409180
:1054B000F6015091F7016091F8017091F9018FE1C7
:1054C00090E00E9419284091FA015091FB016091EF
:1054D000FC017091FD0183E290E00E941928409147
:1054E0008C1050918D1060918E1070918F1087E20A
:1054F00090E00E9419284091FE015091FF016091B7
:1055000000027091010283E390E00E94192840910B
:10551000020250910302609104027091050287E338
:1055200090E00E9419284091060250910702609174
:105530000802709109028BE390E00E9419284091C3
:105540000E0250910F0260911002709111028FE3D0
:1055500090E00E941928409112025091130260912C
:1055600014027091150283E490E00E941928409182
:10557000160250911702609118027091190287E487
:1055800090E00E94192820919501F999FECF1FBA49
:105590008AE690E092BD81BD20BD0FB6F894FA9ADC
:1055A000F99A0FBE20919A01F999FECF1FBA8BE6A6
:1055B00090E092BD81BD20BD0FB6F894FA9AF99A99
:1055C0000FBE20919B01F999FECF1FBA8CE790E0A6
:1055D00092BD81BD20BD0FB6F894FA9AF99A0FBE1C
:1055E00040919C0150919D0160919E0170919F019D
:1055F0008CE690E00E9419284091A0015091A101F1
:105600006091A2017091A30180E790E00E941928A7
:105610004091A4015091A5016091A6017091A7014C
:1056200084E790E00E9419282091A801F999FECF03
:105630001FBA88E790E092BD81BD20BD0FB6F894F7
:10564000FA9AF99A0FBE40917010509171106091C2
:1056500072107091731085E890E00E9419284091B3
:1056600078105091791060917A1070917B1089E8D0
:1056700090E00E9419284091801050918110609113
:105680008210709183108DE890E00E94192840915B
:105690006C1050916D1060916E1070916F1081E9D7
:1056A00090E00E94192840917410509175106091FB
:1056B00076107091771085E990E00E94192840914A
:1056C0007C1050917D1060917E1070917F1089E95F
:1056D00090E00E9419288DE990E040E050E060E001
:1056E00070E00E94192881EA90E040E050E060E01C
:1056F00070E00E94192885EA90E040E050E060E008
:1057000070E00E9419282091D50FF999FECF1FBA99
:1057100080E793E092BD81BD822F90E035E09695C1
:1057200087953A95E1F7817080BD0FB6F894FA9AA3
:10573000F99A0FBE08ED1FE0C0E0D0E0CE01880F5F
:10574000991F880F991FF8014191519161917191B1
:105750008F01845B9C4F0E9419282196C930D10586
:1057600069F740911F0150912001609121017091D2
:10577000220188EC90E00E94192840912501509167
:10578000260160912701709128018CEC90E00E9425
:10579000192840912D0150912E0160912F01709197
:1057A000300180ED90E00E9419284091290150912C
:1057B0002A0160912B0170912C0184ED90E00E94F0
:1057C000192820914E01F999FECF1FBA88ED90E07B
:1057D00092BD81BD20BD0FB6F894FA9AF99A0FBE1A
:1057E00020915301F999FECF1FBA89ED90E092BD47
:1057F00081BD20BD0FB6F894FA9AF99A0FBE209198
:105800005401F999FECF1FBA85EF90E092BD81BD9A
:1058100020BD0FB6F894FA9AF99A0FBE409155013F
:105820005091560160915701709158018AED90E0B6
:105830000E9419284091590150915A0160915B01D1
:1058400070915C018EED90E00E94192840915D01FD
:1058500050915E0160915F017091600182EE90E075
:105860000E94192820916101F999FECF1FBA86EE96
:1058700090E092BD81BD20BD0FB6F894FA9AF99AD6
:105880000FBE40911701509118016091190170915C
:105890001A0187EE90E024EC37E20E943B11409120
:1058A0001B0150911C0160911D0170911E018BEE36
:1058B00090E024EC37E20E943B1160913501709139
:1058C00036018FEE90E044EC57E20E946111609146
:1058D0003701709138018AEF90E044EC57E20E9462
:1058E00061116091390170913A018CEF90E044ECC4
:1058F00057E20E94611120918001F999FECF1FBAF1
:105900008EEF90E092BD81BD20BD0FB6F894FA9A5B
:10591000F99A0FBE81EF90E040E050E060E070E067
:105920000E94192886EF90E040E050E060E070E0CF
:105930000E941928FF20A1F08DE790E040E050E0A0
:1059400060E070E024EC37E20E943B1181E890E0D7
:1059500040E050E060E070E00E9419280E94E928D1
:10596000F999FECF1FBA89E690E092BD81BD87E02C
:1059700080BD0FB6F894FA9AF99A0FBE20E030E095
:1059800040E02836310539F0F999FECF32BD21BD0E
:10599000F89A80B5480F2F5F3F4FF8E020303F075F
:1059A00081F7F999FECF1FBA88E690E092BD81BDDC
:1059B00040BD0FB6F894FA9AF99A0FBEDF91CF91D5
:1059C0001F910F91FF900895DF92EF92FF920F9336
:1059D0001F93CF93DF93F999FECF89E690E092BDB4
:1059E00081BDF89AD0B48BE490E06CEB77E20E9432
:1059F000E3106093CC017093CD018093CE0190931E
:105A0000CF018FE490E06CEB77E20E94E3106093AB
:105A1000400370934103809342039093430383E5D3
:105A200090E06CEB77E20E94E3106093C801709302
:105A3000C9018093CA019093CB0183E090E00E945A
:105A4000FD276093D2017093D3018093D40190938A
:105A5000D50187E090E00E94FD276093D601709306
:105A6000D7018093D8019093D9018BE090E00E94F8
:105A7000FD276093DA017093DB018093DC01909342
:105A8000DD018FE090E00E94FD276093E2017093BA
:105A9000E3018093E4019093E50183E190E00E94AB
:105AA000FD276093E6017093E7018093E8019093EE
:105AB000E90187E190E00E94FD276093EA0170937D
:105AC000EB018093EC019093ED018BE190E00E945B
:105AD000FD276093F2017093F3018093F40190939A
